S01400004D61696E5F50726F6772616D2E7372656354
S21408000088F50720A95E0800A15E0800A15E080022
S214080010A15E0800A15E0800A15E080000000000BE
S2140800200000000000000000000000005163080007
S214080030A15E080000000000156508005965080064
S214080040A15E0800A15E0800A15E0800A15E080087
S214080050A15E0800A15E0800A15E0800A15E080077
S214080060A15E0800A15E0800000000005D580800B8
S214080070755808008D580800A558080000000000AC
S2140800800000000045430800A15E0800A15E0800C5
S214080090A15E0800A15E0800A15E0800A15E080037
S2140800A0B53E080000000000A15E0800A15E08003A
S2140800B0A15E0800A15E0800A15E0800A15E080017
S2140800C0A15E0800A15E0800A15E0800A15E080007
S2140800D0A15E0800A15E0800A15E0800A15E0800F7
S2140800E0A15E0800A15E0800A15E0800C589080098
S2140800F0C588080010B5054C237833B9044B13B1EE
S2140801000448AFF300800123237010BD380407208D
S21408011000000000BCB1080008B5064B1BB1064835
S2140801200649AFF300800648036813B1054B03B1D0
S214080130984708BD00000000BCB108003C04072032
S214080140BCB108000000000080B483B000AF78603F
S2140801507B685B6803F00203002B01D0012300E0F4
S214080160002318460C37BD465DF8047B704700BF71
S21408017080B582B000AF78607868024B9847083739
S214080180BD4680BD295B080080B582B000AF7860A8
S2140801907A68044B9A4202D11820034B98470837CE
S2140801A0BD4680BD008000407101080080B483B061
S2140801B000AF786039607B685B6823F470227B68E0
S2140801C05A607B685A683B681B0403F470231A431A
S2140801D07B685A600C37BD465DF8047B704700BFE5
S2140801E080B483B000AF786039607B685B6823F0C2
S2140801F07F427B685A607B685A683B681B061A43CE
S2140802007B685A600C37BD465DF8047B704700BFB4
S21408021080B586B000AFF860B9607A6043F6982378
S2140802207B6106E07B695A1E7A61002B01D10123A7
S2140802301DE0FB681B6903F00103002BF2D0FB6886
S2140802409A680D4B1A60F8680C4B98470346002BC3
S21408025007D0094B1B6803F470231B0CDAB27B68C3
S2140802601A70054B1B689AB2BB681A8000235BB2EB
S21408027018461837BD4680BD5404072049010800B3
S21408028080B584B000AF786079807A703B7043F6AA
S2140802909823FB6006E0FB685A1EFA60002B01D123
S2140802A0012320E07B681B6903F00203002BF2D0D1
S2140802B078680F4B98470346002B0ED07A887B78D1
S2140802C01B0403F470231343BB603B78002B06D053
S2140802D0BB6843F08073BB6001E07B88BB607B68CB
S2140802E0BA68DA6000235BB218461037BD4680BD90
S2140802F04901080080B485B000AFF860B9607A603C
S2140803007B68002B0CD0FB68BA680C3253F8223096
S21408031043F00101FB68BA680C3243F822100BE080
S214080320FB68BA680C3253F8223023F00101FB68E8
S214080330BA680C3243F822101437BD465DF8047BC1
S214080340704700BF80B485B000AFF860B9607A60C7
S2140803507B68002B0CD0FB68BA680C3253F8223046
S21408036043F00201FB68BA680C3243F822100BE02F
S214080370FB68BA680C3253F8223023F00201FB6897
S214080380BA680C3243F822101437BD465DF8047B71
S214080390704700BF80B485B000AFF860B9607A6077
S2140803A07B68042B18D1FB68BA680C3253F82230E5
S2140803B023F00801FB68BA680C3243F82210FB6881
S2140803C0BA680C3253F8223043F00401FB68BA6866
S2140803D00C3243F822102AE07B68002B18D1FB6801
S2140803E0BA680C3253F8223023F00801FB68BA6862
S2140803F00C3243F82210FB68BA680C3253F82230E5
S21408040023F00401FB68BA680C3243F822100EE0A9
S2140804107B68082B0BD1FB68BA680C3253F822307D
S21408042043F00801FB68BA680C3243F82210143708
S214080430BD465DF8047B704780B485B000AFF860B1
S214080440B9607A60FB68BA680C3253F8223023F039
S214080450F001FB68BA680C3243F82210FB68BA68E9
S2140804600C3253F822207B6842EA0301FB68BA681C
S2140804700C3243F822101437BD465DF8047B7047EB
S21408048080B485B000AF786039603A687B681344FA
S2140804905A1E7B68B2FBF3F3FB60FB68002B02DD99
S2140804A0FB68FF2B02DD4FF6FF7301E0FB689BB28B
S2140804B01BB218461437BD465DF8047B704700BF6C
S2140804C080B485B000AFF860B9601346FB71FB686E
S2140804D0BA680C3253F8223023F47F41FB68BA68B6
S2140804E00C3243F82210FB68BA680C3253F8222004
S2140804F0FB791B029BB242EA0301FB68BA680C321E
S21408050043F822101437BD465DF8047B704700BFD9
S21408051080B485B000AFF860B960FA71BB71FB684B
S214080520BA680C3253F8223099B2FB68BA680C32B3
S21408053043F82210FB68BA680C3253F82220FB797D
S2140805401B0403F47F01BB791B060B4342EA030135
S214080550FB68BA680C3243F822101437BD465DF8BB
S214080560047B704790B589B000AFBA607B600346DD
S214080570FB730B46BB73A14B7B61A04BBB6100238F
S2140805803B610023FB7709E0FB7FFA7F79680A4422
S21408059011789B4AD154FB7F0133FB77FB7F922B64
S2140805A0F2D9BB681B0EDAB2954B83F89720BB6866
S2140805B003F47F031B0CDAB2914B83F89620BB68D2
S2140805C003F47F43082B94BF00230123DBB21A46AB
S2140805D08B4B83F89520BB68DAB2894B83F8942056
S2140805E0874BFA7B83F89320854BBA7B83F8922057
S2140805F0844B1B68184600217A690023824CA04762
S2140806000346012B07D1814B1B6818467C497A693B
S21408061000237F4CA0477B4B1B681846002100220E
S21408062000237B4CA0473B6B002B05D0386B002182
S21408063000220023764CA047FB7B043B0A2B00F2E3
S214080640118101A252F823F0750608006508080013
S214080650A5060800D506080005070800350708009F
S214080660650708009507080065080800C50708001C
S214080670F5070800674B01221A7001E0664B984799
S214080680644B1B781A46BB69591EB9611340002B88
S214080690F4D14FF0FF333B615E4B1B78002B01D142
S2140806A001233B615D4B01221A7001E05A4B9847C3
S2140806B05A4B1B781A46BB69591EB9611340002B62
S2140806C0F4D14FF0FF333B61544B1B78002B01D11C
S2140806D001233B61524B01221A7001E04E4B9847AA
S2140806E04F4B1B781A46BB69591EB9611340002B3D
S2140806F0F4D14FF0FF333B61494B1B78002B01D1F7
S21408070001233B61474B01221A7001E0424B984790
S214080710444B1B781A46BB69591EB9611340002B17
S214080720F4D14FF0FF333B613E4B1B78002B01D1D1
S21408073001233B613C4B01221A7001E0364B984777
S214080740394B1B781A46BB69591EB9611340002BF2
S214080750F4D14FF0FF333B61334B1B78002B01D1AC
S21408076001233B61314B01221A7001E02A4B98475E
S2140807702E4B1B781A46BB69591EB9611340002BCD
S214080780F4D14FF0FF333B61284B1B78002B01D187
S21408079001233B61264B01221A7001E01E4B984745
S2140807A0234B1B781A46BB69591EB9611340002BA8
S2140807B0F4D14FF0FF333B611D4B1B78002B01D162
S2140807C001233B611B4B01221A7001E0124B98472C
S2140807D0184B1B781A46BB69591EB9611340002B83
S2140807E0F4D14FF0FF333B61124B1B78002B01D13D
S2140807F001233B61104B01221A7021E0E0930400AC
S2140808003CB40720E8AD0720C16D08001CB50720DA
S214080810016B0800E0B307205D64080010AE0720EF
S214080820E4AD072098B3072044B5072018AE072084
S21408083014B5072088B30720FCAD0720124B98474D
S214080840124B1B781A46BB69591EB9611340002B18
S214080850F4D14FF0FF333B610C4B1B78002B01D1D2
S21408086001233B614FF0FF333B613B6B002B05D008
S214080870386B00217A690023054CA0473B69184667
S2140808802437BD4690BD00BF5D640800FCAD072058
S214080890C16D080090B587B000AFBA607B600346AC
S2140808A0FB730B46BB73354B3B610023FB7509E0B6
S2140808B0FB7DFA7D79680A441178314AD154FB7D6C
S2140808C00133FB75FB7D922BF2D9BB681B0EDAB29F
S2140808D02B4B83F89720BB6803F47F031B0CDAB214
S2140808E0274B83F89620BB6803F47F43082B94BFF6
S2140808F000230123DBB21A46214B83F89520BB68F8
S214080900DAB21F4B83F894201D4BFA7B83F89320AA
S2140809101B4BBA7B83F892201A4B1B68184600219B
S2140809203A690023184CA0470346012B1FD1174BE2
S2140809301B68184612493A690023154CA047034617
S214080940012B0AD00F4B1B681846002100220023F3
S2140809500F4CA0474FF0FF330BE00A4B1B681846B6
S2140809600021002200230A4CA047012301E04FF093
S214080970FF3318461C37BD4690BD00BFE093040001
S21408098058AE0720F0B40720C16D08004CB5072004
S214080990016B080080B487B000AFBA607B6003467E
S2140809A0FB730B46BB730023FB750023BB75FB7BF1
S2140809B0043B0A2B22D801A252F823F0E9090800C2
S2140809C0FD090800F1090800FD090800F9090800F2
S2140809D0FD090800FD090800ED090800FD090800E2
S2140809E0FD090800F50908000623BB750523BB7535
S2140809F00923BB751623BB752123BB750023184630
S214080A001C37BD465DF8047B704700BF90B587B0BD
S214080A1004AF00237B60022300933B1D0193002351
S214080A200293002303930648064940F28A224AF6B0
S214080A30CD33054CA0477B6818460C37BD4690BD9D
S214080A404D0A08002CB008003573080090B585B02C
S214080A5000AF78607A684AF6CD339A4202D0674B80
S214080A609847FEE7664B00221A70664B00221A70FB
S214080A70654B00221A60654B00221A60644B002200
S214080A801A70644B00221A70634B00221A70634B6C
S214080A9000221A70624B00221A70624B00221A70EB
S214080AA0614B00221A70614B00221A70604B0022BC
S214080AB01A70604B00221A705F4B00221A705F4B48
S214080AC000221A705E4B00221A705E4B00221A70C3
S214080AD05D4B00221A705D4B00221A705C4B9847DB
S214080AE05C4B98475C4B00221A705C4B01221A70CC
S214080AF05B4B00221A605B4B00221A60424B0022B6
S214080B001A60424B00221A60554B1B68002B0FD107
S214080B10554B1A68554B1B6810463C491A46002325
S214080B20534CA0470346012B02D14D4B01221A60B5
S214080B304C4B1B68002B14BF00230123DBB21A465C
S214080B40474B1B681340002B0FD0474B1A68474B80
S214080B501B6810462C491A460023454CA0470346F6
S214080B60012B02D13F4B01221A603E4B1B68002B1B
S214080B7002D0404B9847F8603F4B1B78002B3CD17F
S214080B803E4B1B6818463E4901220023384CA047B6
S214080B900346012B01D13B4B98473B4B1B78002B58
S214080BA006D03A4B93F896301846394B984713E0D8
S214080BB0384B1B6818463549012200232C4CA047A1
S214080BC00346012B08D1304B01221A702F4B93F89D
S214080BD0963018462E4B98472F4B9847234B05229E
S214080BE01A602E4B984702462D4B1A601F4B1B68FF
S214080BF02B4819462B4B984786E785E7F964080083
S214080C00A9AD072062040720700407207404072093
S214080C107804072063040720640407206804072074
S214080C2069040720790407206B0407206C04072052
S214080C3065040720660407207A0407207B0407203B
S214080C407C0407206D0407206A0407206704072031
S214080C504915080079150800580407205A04072083
S214080C60480807204C080720E8B40720BC050720DA
S214080C70C16D0800D5110800CCAD0720F8B40720D0
S214080C80180707203116080051B50720B0070720B7
S214080C902513080000B50720A90C0800717708007E
S214080CA0B8050720B574080090B585B004AF8A4B20
S214080CB000221A60894B00221A60894B9847894B94
S214080CC01B681846884901220023884CA04703461B
S214080CD0012B66D1844B93F88C301B029AB2844B56
S214080CE01A80814B93F88B301A46814B1B88134425
S214080CF09AB27F4B1A807C4B93F88A301B029AB2C2
S214080D007C4B1A80784B93F889301A46794B1B88A7
S214080D1013449AB2774B1A80734B93F89230192B78
S214080D2012D1754B1B780133DAB2734B1A70724BBB
S214080D301B780093012301936B4B02930420102128
S214080D40032219236D4CA047674B93F892300A2B61
S214080D5012D16B4B1B780133DAB2694B1A70684BA9
S214080D601B780093012301935F4B02930420102104
S214080D7003220A23614CA0475B4B93F89230DD2B85
S214080D800FD15B4B18885B4B1988574B93F891200B
S214080D90554B93F890300024009402240194594C43
S214080DA0A047594B1B6818464F49012200234F4C51
S214080DB0A0470346012B46D14B4B9B791B029AB2A0
S214080DC04B4B1A80484B5B791A46494B1B88134491
S214080DD09AB2474B1A80444B1B791B029AB2454B72
S214080DE01A80414BDB781A46424B1B8813449AB24A
S214080DF0404B1A803C4B5B7A022B12D1434B1B7834
S214080E000133DAB2414B1A70404B1B78009301232A
S214080E100193354B02930620112109220223374CF1
S214080E20A047314B5B7ADD2B0DD1314B1888314BFF
S214080E3019882D4B1A7A2C4BDB790024009402244F
S214080E400194304CA047324B1B68184626490122AD
S214080E500023264CA0470346012B39D1224B93F892
S214080E608C301B029AB2224B1A801F4B93F88B3099
S214080E701A461F4B1B8813449AB21D4B1A801A4BEE
S214080E8093F88A301B029AB21A4B1A80164B93F8BC
S214080E9089301A46174B1B8813449AB2154B1A808A
S214080EA0114B93F89230CC2B12D11A4B1B78013386
S214080EB0DAB2184B1A70174B1B780093012301936C
S214080EC0094B02930E2012210622CC230B4CA04776
S214080ED000BF0437BD4690BDA0050720A40507201F
S214080EE0791508008CB307200C050720C16D08008B
S214080EF05E0407206004072063040720190F080013
S214080F0064040720D924080030B4072065040720A5
S214080F107CD507206704072080B584B000AFF87139
S214080F20B9717A713B71984B00221A70974B002260
S214080F301A70974B00221A80964B1B781B039AB29E
S214080F40954B1A80934B5B781B029AB2924B1A8089
S214080F50904B9B781B019AB28F4B1A808D4BDB788F
S214080F601A468D4B1A808D4B1B78002B02D04FF0FB
S214080F70FF332BE1BB8B012B03D9894B01221A7057
S214080F8002E0874B03221A70864B00221A70854BA4
S214080F901B785B01DAB27C4B1B7803F001031B015C
S214080FA0DBB21343DBB243F00803DBB2DAB27E4BA4
S214080FB083F897207C4BFA7983F89620784B1B7831
S214080FC09B01DAB2784B83F89520704B1A78764BEB
S214080FD083F89420744B002283F89320724B972250
S214080FE083F892206F4B01221A706E4B1B7803F021
S214080FF007031B01DBB263F07F03DBB2DAB26A4B8E
S21408100083F89120684B7A7983F89020664B3A7972
S21408101083F88F20644B3A7E83F88E20624BBA7929
S21408102083F88D205C4B1B881B0A9BB2DAB25E4B9A
S21408103083F88C20584B1B88DAB25B4B83F88B20DE
S2140810405A4896215A4B984703461A46594B1A80CF
S214081050584B1B881B0A9BB2DAB2534B5A70554B37
S2140810601B88DAB2504B1A70BB8B012B37D1474B13
S2140810701B780133DAB2454B1A700223BB810AE0AB
S214081080BB89BA89023A396A0A441178464AD15461
S214081090BB890133BB81BB89812BF1D94348962193
S2140810A0434B984703461A46394B1A80384B1B88D9
S2140810B01B0A9BB2DAB23C4B5A70354B1B88DAB225
S2140810C0394B1A70354B01221A703B4B984703462A
S2140810D0002B02DA4FF0FF3378E0012376E0002396
S2140810E0FB816EE0294B1A782F4B83F89420274B08
S2140810F01B780133DAB2254B1A70FB89012B02D90B
S214081100274B00221A70FA89BB8B013B9A4202D100
S214081110234B02221A70224B1B789B01DAB2224B11
S21408112083F895200223BB810DE0BB89B989FA892B
S214081130D2010A44023A396A0A4411781A4AD15442
S214081140BB890133BB81BB898A2BEED91748962108
S214081150174B984703461A460D4B1A800C4B1B88AC
S2140811601B0A9BB2DAB2104B5A70094B1B88DAB2CC
S2140811700D4B1A70094B01221A700F4B98470346FD
S214081180002B1BDAFB8921E0590407205C040720A2
S214081190AC05072004B10720A8050720EDB40720F2
S2140811A05B040720580407208006072082060720CD
S2140811B0A52A0800AA050720F5150800FB890133AB
S2140811C0FB81FA89BB8B9A428CD3BB8B18461037A7
S2140811D0BD4680BD80B582B000AF474B1B68FB712B
S2140811E0464B00221A60464B00221A60FA79454B95
S2140811F01B7801339A420DDDFF20434B9847414B3D
S21408120000221A70414B00221A70414B98474FF043
S214081210FF336DE03F4B1B78002B0BD0FF203A4B7B
S2140812209847384B00221A70384B00221A704FF035
S214081230FF335DE0FB79002B03D1324B1B78002B84
S21408124005D0FA792F4B1B7801339A4243D12D4BA0
S214081250FA791A702D4B01221A70FB799B002E4AD8
S2140812601268D1B22D4AD154FB799B0001332A4A21
S214081270126802F47F42120AD1B2284AD154FB7986
S2140812809B000233244A126802F47F02120CD1B281
S214081290224AD154FB799B0003331F4A1268120E68
S2140812A0D1B21E4AD154FB79252B12D1154B0022F8
S2140812B01A70164B00221A70164B01221A70FB7908
S2140812C01846114B9847FB7918460F4B9847144B0E
S2140812D09847FB790CE0FF200B4B9847094B0022F8
S2140812E01A700A4B00221A70094B98474FF0FF33C2
S2140812F018460837BD4680BD7004072048080720F2
S2140813004C08072062040720E1140800CCAD07202B
S21408131019150800A9AD072074040720E80507205A
S214081320A915080090B587B002AF0346FB715F4B5E
S21408133026221A605E4B4FF4FA721A805D4B192209
S2140813401A605D4B00221A705C4B00221A70FB79FB
S2140813500F22009219220192002000211A4600232B
S214081360574CA04717E0524B1B885A1E91B2504A5A
S2140813701180002B02D14FF0FF3392E0FB790F2249
S214081380009219220192002000211A4600234C4C94
S214081390A0474C4B9847494B1B78002BE3D0474B4C
S2140813A000221A700023FB604EE0434B1B78FF2B8D
S2140813B002D14FF0FF3374E0FB689B00424AD35CCF
S2140813C01A46424B1A60FB689B0001333E4AD35CC0
S2140813D01B021A463D4B1B681A443C4B1A60FB68B6
S2140813E09B000233384AD35C1B041A46374B1B68EB
S2140813F01A44364B1A60FB689B000333324AD35CA8
S2140814001B061A46314B1B681A44304B1A602F4B82
S2140814101968FB68DAB2FB790D2000901920019054
S214081420084611461A460023254CA047284B9847DD
S2140814300246284B1A601F4B1B6826481946264B3F
S2140814409847FB680133FB60184B1B68FA689A429A
S214081450ABD3174B4FF4FA721A800CE0144B1B8868
S2140814605A1E91B2124A1180002B02D14FF0FF3358
S21408147017E0144B9847104B1B78002BEED00E4BFA
S2140814801B78252B05D00C4B00221A704FF0FF3323
S21408149007E0094B00221A70104B00221A70064B00
S2140814A01B7818461437BD4690BD00BFB005072008
S2140814B0B4050720BC050720E0B40720F1AE0720D6
S2140814C0859208005D640800B0070720A405072079
S2140814D071770800B8050720B574080051B50720CD
S2140814E090B587B002AF0346FB71FB79FB60084BEB
S2140814F01B781422009219220192F86819460A22CB
S2140815000023044CA04700BF1437BD4690BD00BF5B
S21408151008B107208592080080B483B000AF002386
S214081520FB7106E0FB79074A0021D154FB790133A9
S214081530FB71FB79972BF5D900BF0C37BD465DF8D4
S214081540047B7047E805072080B483B000AF00230B
S214081550FB7106E0FB79074A0021D154FB79013379
S214081560FB71FB79882BF5D900BF0C37BD465DF8B3
S214081570047B70478004072080B483B000AF002344
S214081580FB7106E0FB79074A0021D154FB79013349
S214081590FB71FB79922BF5D900BF0C37BD465DF879
S2140815A0047B70470C05072098B500AF0C4B1B68EA
S2140815B018460C49012200230B4CA0470346012B72
S2140815C008D00120272100220023084CA0474FF00E
S2140815D0FF3303E0064B00221A700123184698BD15
S2140815E0F8B40720E8050720016B0800F126080074
S2140815F0A9AD072098B500AF094B1B6818460949DE
S21408160001220023084CA0470346012B02D04FF0C6
S214081610FF3303E0054B00221A700123184698BDD5
S21408162000B5072080060720016B0800EDB40720E8
S214081630F0B589B006AF744B93F897301A46734BDB
S2140816401A80724B1B881B029AB2704B1A806E4B1C
S21408165093F896301A466D4B1B8813439AB26B4B19
S2140816601A80694B93F895301A46694B1A80684B6E
S2140816701B881B029AB2664B1A80634B93F8943009
S2140816801A46634B1B8813439AB2614B1A805E4B0B
S21408169093F897305B09DAB25E4B1A705A4B93F898
S2140816A0973003F010031B11DAB25B4B1A70564BD7
S2140816B093F8973003F00803DB10DAB2574B1A702A
S2140816C0514B93F89620564B1A704F4B93F895301B
S2140816D09B09DAB2534B1A704B4B93F89420524B33
S2140816E01A70494B93F892300133DAB24F4B1A709E
S2140816F0454B93F89130DB09DAB24D4B1A70424BE2
S21408170093F8913003F070031B11DAB2494B1A7044
S2140817103D4B93F8913003F00F03DAB2464B1A703C
S214081720394B93F89020454B1A70374B93F88F2017
S214081730434B1A70344B93F88E20424B1A70324B38
S2140817405B781A46404B1A803F4B1B881B029AB29E
S2140817503D4B1A802C4B1B781A463B4B1B88134470
S2140817609AB2394B1A8039489621394B984703461E
S2140817701A46384B1A8000233B604FF0FF337B60D5
S21408178020E0274B1878294B1978324B1A882E4BAD
S2140817901B882A4C94F800C0294C94F800E01D4C8D
S2140817A02678234C2578234C2478CDF800C0CDF82D
S2140817B004E0029603950494274CA04778603B689B
S2140817C001333B603B68022B02DC7B68002BD8DBCE
S2140817D07B68002B0ADA194B1B78032019461A2255
S2140817E000231E4CA0474FF0FF3308E0134B1A782F
S2140817F0134B1B7810461946194B9847034618464C
S2140818000C37BD46F0BD00BF180707205E0407204A
S21408181060040720CC050720CD050720C005072053
S214081820C1050720CE050720CF050720C2050720DB
S214081830D0050720D1050720C8050720C9050720B9
S214081840CA050720CB050720C40507201A07072066
S214081850A52A0800C60507206D1F08009508080079
S2140818606518080090B58BB004AF02460B46FA71AF
S214081870BB71A04BFF221A709F4B00221A709F4B19
S21408188000221A7000233B610023FB600023BB6024
S2140818909B4B98470023FB7509E0FB7DFA7D0232D7
S2140818A09849895C984AD154FB7D0133FB75FB7DCA
S2140818B0882BF2D9954B1B88DBB21B12DAB2924BF7
S2140818C083F88C20914B1B88DAB28F4B83F88B20D9
S2140818D08F4B1B88DBB21B12DAB28B4B83F88A203D
S2140818E08B4B1B88DAB2884B83F88920FB79032B4D
S2140818F040F02E81BB79013B0A2B00F2248101A21D
S21408190052F823F0311908006D1A0800D11908009A
S2140819108F1A08001F1A0800391A0800B11A08009A
S214081920D31A0800531A0800471B0800251B08008E
S214081930754B93F888206F4B1A706E4B1B78012BEB
S21408194010D0724B1A88724B1B8800210091012117
S214081950019110461946FF2205236E4CA0474FF00A
S214081960FF33E1E2684B93F88720634B1A70664BA7
S21408197093F88620614B1A70604B1B78402B10D961
S214081980624B1A88624B1B88002100910121019145
S21408199010461946FF2205235E4CA0474FF0FF333A
S2140819A0C2E2594B012283F89220534B1A78564BC1
S2140819B083F89120514B1A78534B83F89020564B56
S2140819C01B681846504901220023544CA047BDE026
S2140819D04D4B93F88820474B1A70464B1B78012BC3
S2140819E010D04A4B1A884A4B1B88002100910121C7
S2140819F0019110461946FF220523464CA0474FF092
S214081A00FF3391E2404B032283F89220424B1B6837
S214081A1018463D4901220023404CA04796E03A4B21
S214081A20052283F892203C4B1B681846364901224B
S214081A3000233A4CA04789E0334B062283F89220CD
S214081A40354B1B681846304901220023334CA04703
S214081A507CE02D4B092283F892202F4B1B681846F2
S214081A602949012200232D4CA0476FE0264B03226C
S214081A7083F89220244B022283F89120284B1B6877
S214081A801846214901220023244CA0475EE01E4B3D
S214081A90032283F892201C4B042283F89120204BC3
S214081AA01B6818461849012200231C4CA0474DE025
S214081AB0154B032283F89220134B072283F89120B4
S214081AC0174B1B681846104901220023134CA047E1
S214081AD03CE00D4B032283F892200B4B082283F838
S214081AE091200F4B1B6818460749012200230B4C10
S214081AF0A0472BE0D2050720D4050720D5050720E8
S214081B0079150800180707200C0507205E0407202B
S214081B1060040720D9240800C4AD0720016B08001C
S214081B20C8AD07208D4B032283F892208B4B0B22DF
S214081B3083F891208A4B1B6818468849012200239F
S214081B40884CA04702E04FF0FF33EDE10123EBE1BC
S214081B50FB79092B28D1814B01225A72824B1B88AC
S214081B60DBB21B12DAB27D4B1A727F4B1B88DAB2D5
S214081B707A4BDA717D4B1B88DBB21B12DAB2774BD5
S214081B809A717A4B1B88DAB2744B5A71734B1A786F
S214081B90724B1A70764B1B68184670490122002350
S214081BA0704CA0470123BFE1FB79062B39D16B4B5C
S214081BB0BA7983F892206C4B1B881B0A9BB2DAB260
S214081BC0664B83F88C20684B1B88DAB2634B83F825
S214081BD08B20664B1B881B0A9BB2DAB25F4B83F8D6
S214081BE08A20624B1B88DAB25C4B83F88920614BEB
S214081BF01B68002B07D1604B1B6818465749012203
S214081C000023584CA0475B4B1B68002B07D0544B4F
S214081C101B681846514901220023524CA04701234D
S214081C2082E1FB79452B40F05681BB79012B24D104
S214081C304A4B93F887301B06FB60484B93F8863070
S214081C401B04FA681344FB60444B93F885301B0268
S214081C50FA681344FB60414B93F88430FA681344DF
S214081C60FB603E4BBA7983F89220444B1B681846B3
S214081C703A49012200233B4CA047BB79082B10D1D8
S214081C803F4B01221A70384B1A88384B1B880021A4
S214081C900091022101911046194600220A23394C68
S214081CA0A047BB79092B23D1354B1B78002B11D0C5
S214081CB0354B01221A702C4B1A882C4B1B88002196
S214081CC00091022101911046194600220A232D4C44
S214081CD0A0470DE0244B1A88244B1B88002100914E
S214081CE00121019110461946FF220523254CA047DD
S214081CF0BB790A2B65D1194B93F888301846234BC5
S214081D00984703461A46224B1A70144B93F88430A9
S214081D103B61124B93F885301B023A6913443B61CA
S214081D200E4B93F886301B043A6913443B610B4B01
S214081D3093F887301B063A6913443B61144B1B78AB
S214081D40022B29D8124B1978044B93F888203B6944
S214081D509BB20A200F4CA04725E000BF0C050720C1
S214081D60C8AD0720016B08005E0407206004072042
S214081D7080D5072038B4072034B5072010B10720CF
S214081D80A8AD0720D924080064B10720F13108005F
S214081D90D30507202D9D0800654B93F88830184614
S214081DA03969644B9847644B1A88644B1B88002132
S214081DB00091022101911046194600220A23604C20
S214081DC0A047BB790B2B7AD1594B93F88830184625
S214081DD05C4B984703461A465B4B1A70544B93F86D
S214081DE084303B61524B93F885301B023A691344A2
S214081DF03B614F4B93F886301B043A6913443B61AA
S214081E004B4B93F887301B063A6913443B614E4B9D
S214081E101B78022B0BD84C4B1978454B93F8882027
S214081E2007F108030A20494CA047386106E0404BF2
S214081E3093F888301846464B984738613E4B1A88C0
S214081E403E4B1B880021009102210191104619463D
S214081E5000220A233A4CA047354B93F88830FB7586
S214081E603C4B9847324BFA7D83F888203B69DAB2B8
S214081E702F4B83F884203B691B0ADAB22C4B83F875
S214081E8085203B691B0CDAB2294B83F886203B6910
S214081E901B0EDAB2264B83F887202F4B1B785A1C6A
S214081EA0D1B22D4A1170009301230193204B02935F
S214081EB00A20132145220C23284CA0470BE01C4B74
S214081EC0BA7983F89220264B1B68184618490122CF
S214081ED00023244CA047FB79462B24D1144BFA79CF
S214081EE083F89220124BBA7983F89120BB79072B96
S214081EF00BD0BB79082B08D0BB790A2B05D0BB7949
S214081F00092B02D0BB790B2B05D1094B93F88120FE
S214081F10074B83F89020144B1B6818460449012287
S214081F200023104CA047012318461C37BD4690BD19
S214081F300C050720712708005E04072060040720A8
S214081F40D9240800F1310800D30507209D9C080015
S214081F5081280800791508006A040720190F080068
S214081F6010B10720016B0800C8AD072090B587B0F0
S214081F7002AFF871B971BA807B80674B00221A608D
S214081F80664B00221A60664B00221A60654B0022D8
S214081F901A60BB79982B10D0634B1A88634B1B8842
S214081FA0B97900910121019110461946FF220123B3
S214081FB05F4CA0474FF0FF337CE2BA887B889A4292
S214081FC010D0594B1A88594B1B88798800910121E3
S214081FD0019110461946FF220223554CA0474FF0A0
S214081FE0FF3367E297F82030032B1DD097F8203090
S214081FF0062B19D097F82030092B15D097F82030E3
S214082000452B11D0484B1A88484B1B8897F8201048
S21408201000910121019110461946FF220323444CE2
S214082020A0474FF0FF3345E297F82030032B3BD10B
S21408203097F82430012B2ED097F82430022B2AD07C
S21408204097F82430032B26D097F82430042B22D078
S21408205097F82430052B1ED097F82430062B1AD074
S21408206097F82430072B16D097F82430082B12D070
S21408207097F82430092B0ED097F824300B2B0AD06B
S21408208097F82430112B06D097F82430122B02D05C
S2140820904FF0FF330EE2FB79042B05D0FB790C2BAF
S2140820A002D04FF0FF3305E297F82030062B40F0B9
S2140820B0A98097F82430022B19D097F82430052BDE
S2140820C015D097F82430092B11D0174B1A88174BC0
S2140820D01B8897F824100091012101911046194693
S2140820E0FF220423124CA0474FF0FF33E2E1FB79AE
S2140820F00E2B1FD00C4B1A880C4B1B88F9790091B5
S2140821000121019110461946FF220023084CA047DA
S2140821104FF0FF33CEE100BFD8050720DC050720C7
S214082120E0050720E40507205E0407206004072072
S214082130D92408007D4B93F889301A067C4B1A6020
S2140821407A4B93F888301A04794B1B681A44784BF4
S2140821501A60764B93F887301A02754B1B681A4438
S214082160734B1A60714B93F886301A46704B1B688F
S2140821701A446F4B1A606D4B93F88A30012B0DD9B1
S2140821806C4B1A886C4B1B88002100910121019129
S21408219010461946FF220523684CA047634B93F860
S2140821A08A30012B12D1624B1B68B3F5801F0DD302
S2140821B0604B1A88604B1B88002100910121019111
S2140821C010461946FF2205235C4CA047574B93F848
S2140821D08A30012B16D15A4B1B68002B12D0544B51
S2140821E01B68B3F5805F0DD3524B1A88524B1B8879
S2140821F0002100910121019110461946FF2205236E
S2140822004E4CA04797F82030092B29D197F8243050
S214082210012B11D0474B1A88474B1B8897F8241078
S21408222000910121019110461946FF220423434CD0
S214082230A0474FF0FF333DE1FB79062B10D03D4B0E
S2140822401A883D4B1B88F9790091012101911046A7
S2140822501946FF220023394CA0474FF0FF3329E1E7
S21408226097F82030452B40F0C780304B93F88830DD
S2140822701A46344B1A6097F824300B2B03D897F875
S2140822802430002B11D12B4B1A882B4B1B8897F820
S214082290241000910121019110461946FF220423BB
S2140822A0264CA0474FF0FF3304E1204B93F88730C5
S2140822B0002B0ED11D4B93F88630002B09D11B4BF3
S2140822C093F88530002B04D1184B93F88430002BF4
S2140822D014D097F82430012B10D0164B1A88164BBA
S2140822E01B88002100910121019110461946FF2202
S2140822F00523124CA0474FF0FF33DBE00B4B93F857
S2140823008730002B0ED1094B93F88630002B09D165
S214082310064B93F88530002B04D1044B93F8843091
S214082320002B69D00023FB7361E000BF1807072065
S214082330D80507205E04072060040720D924080073
S214082340F8B30720DC050720FA7B13465B079B1AC1
S214082350DB008733594AD35C1A06594B1A60FA7B56
S21408236013465B079B1ADB008633544AD35C1A0471
S214082370534B1B681A44524B1A60FA7B13465B078A
S2140823809B1ADB0085334D4AD35C1A024C4B1B68FC
S2140823901A444B4B1A60FA7B13465B079B1ADB0002
S2140823A08433464AD35C1A46454B1B681A44444B4A
S2140823B01A60434B1A68434B1B689A4210D2424B2A
S2140823C01A88424B1B880021009101210191104672
S2140823D01946FF2205233E4CA0474FF0FF3369E01D
S2140823E0374B1A68374B1A60FB7B0133FB73FA7B53
S2140823F0384B1B689A42A7D397F82030462B19D13A
S21408240097F824300C2B03D897F82430002B11D1DA
S2140824102D4B1A882D4B1B8897F824100091012104
S214082420019110461946FF220423294CA0474FF075
S214082430FF333FE097F82830002B10D0224B1A883D
S214082440224B1B8800210091012101911046194654
S214082450FF2205231E4CA0474FF0FF332AE097F8CB
S2140824602C30012B10D0184B1A88184B1B880021CB
S21408247000910121019110461946FF220523144CAC
S214082480A0474FF0FF3315E097F83030012B10D0F7
S2140824900D4B1A880D4B1B880021009101210191D4
S2140824A010461946FF220523094CA0474FF0FF3374
S2140824B000E0012318461437BD4690BD18070720CC
S2140824C0E0050720E40507205E04072060040720CF
S2140824D0D9240800DC05072090B589B004AFF88039
S2140824E0B980FA70BB704FF0FF33FB60664B9847B5
S2140824F097F82430012B73D1BB78052B02D94FF0FF
S214082500FF33BDE0FB78002B28D1604B1B780133E6
S214082510DAB25E4B1A70BB88DAB25D4B1A70BB88AB
S2140825201B0A9BB2DAB25A4B5A70FB88DAB2584B7F
S2140825309A70FB881B0A9BB2DAB2554BDA70534B7B
S2140825401B78009301230193514B02930A20132111
S214082550012201234F4CA047F86041E04E4B1B7800
S2140825600133DAB24C4B1A703B6ADAB2484B1A702F
S2140825703B6A03F47F431B0ADAB2454B5A703B6A40
S21408258003F47F031B0CDAB2414B9A703B6A1B0EAE
S214082590DAB23F4BDA703E4BBA781A71BB88DAB2B9
S2140825A03B4B5A71BB881B0A9BB2DAB2384B9A71FE
S2140825B0FB88DAB2364BDA71FB881B0A9BB2DAB2B2
S2140825C0334B1A72314B1B78009301230193304B1F
S2140825D002930A201321012202232E4CA047F860FA
S2140825E097F82430022B43D1BB88DAB2284B1A70EE
S2140825F0BB881B0A9BB2DAB2254B5A70FB88DAB244
S214082600234B9A70FB881B0A9BB2DAB2204BDA700F
S214082610FB78FF2B14D1214B1B780133DAB21F4B02
S2140826201A701E4B1A78BB78009201220192184A3B
S21408263002921846132101220823164CA047F86078
S214082640FB78012B14D1164B1B780133DAB2144BE6
S2140826501A70134B1A78BB780092012201920C4A22
S214082660029218461321012207230A4CA047F86055
S214082670FB68B3F1FF3F02D14FF0FF3300E00123C0
S21408268018461437BD4690BD49150800780407203B
S21408269080040720190F0800790407206C04072017
S2140826A06B04072090B587B004AF02460B46FA7154
S2140826B0BB710C4B1B780133DAB20A4B1A70094B04
S2140826C01978FA79BB79009101210191064902919E
S2140826D0104613210522054CA04700BF0C37BD46FF
S2140826E090BD00BF7A04072080040720190F080051
S2140826F080B582B000AFF871B9717A713B71194B29
S2140827009847194BBA7983F88820174B022283F822
S2140827108720154B002283F88620134B002283F867
S2140827208520114B002283F884200F4B3A7983F8D2
S21408273083200D4B002283F882200B4B002283F85F
S2140827408120094B002283F88020074B7A7983F88A
S2140827507F20FB790A201946044B984700BF0837A4
S214082760BD4680BD791508000C050720A52608007B
S21408277080B483B000AF03463960FB71FB79E43B55
S214082780142B5CD801A252F823F000BF37280800A3
S214082790312808002B280800252808003F280800AC
S2140827A03F2808003F2808003F2808001F28080080
S2140827B0192808003F2808003F2808003F28080076
S2140827C03F280800112808000928080001280800E2
S2140827D0F9270800F1270800E9270800E12708007C
S2140827E03B68DAB2194B1A703B68DAB2184B1A70A3
S2140827F03B68DAB2174B1A703B68DAB2164B1A7097
S2140828003B68DAB2154B1A703B68DAB2144B1A708A
S2140828103B68DAB2134B1A70134B3A681A60134BBC
S2140828203A681A60124B3A681A60124B3A681A608D
S214082830114B3A681A60114B3A681A6000BF00BF1D
S2140828400C37BD465DF8047B704700BFECB4072024
S21408285084D5072008B1072018B10720FEB3072043
S214082860E5AD072074B5072068B10720ACAD072092
S214082870E4B3072024B10720F4B40720E4B4072003
S21408288080B483B000AF0346FB71FB79E43B142B9E
S21408289053D801A252F823F0352908002F2908003A
S2140828A029290800232908003B2908003B29080095
S2140828B03B2908003B2908001D290800172908009D
S2140828C03B2908003B2908003B2908003B2908004B
S2140828D0112908000B29080005290800FF28080008
S2140828E0F9280800F3280800ED280800164B1B787E
S2140828F024E0164B1B7821E0154B1B781EE0154B81
S2140829001B781BE0144B1B7818E0144B1B7815E05B
S214082910134B1B7812E0134B1B680FE0124B1B6817
S2140829200CE0124B1B6809E0114B1B6806E0114BC4
S2140829301B6803E0104B1B6800E0002318460C37A2
S214082940BD465DF8047B7047ECB4072084D50720A5
S21408295008B1072018B10720FEB30720E5AD072009
S21408296074B5072068B10720ACAD0720E4B307208C
S21408297024B10720F4B40720E4B4072090B587B044
S21408298004AF00237B60012300933B1D01930023C3
S2140829900293002303930648064982224AF6CD335B
S2140829A0054CA0477B6818460C37BD4690BD00BF4F
S2140829B0BD29080030B008003573080080B584B01B
S2140829C000AF78607A684AF6CD339A4202D0094B4F
S2140829D09847FEE76423FB600748084B9847084B70
S2140829E098470346BB6007F108031846F968054B85
S2140829F09847F1E7F9640800501A0E40795E080017
S214082A0071770800B574080080B487B000AF7860A6
S214082A1039604FF6FF737B614FF6FF733B6128E022
S214082A203A6840F267139A4238BF1346FB603A6822
S214082A30FB68D31A3B600AE07B681A1D7A601B683D
S214082A407A6913447B613A697B6913443B61FB6886
S214082A50013BFB60FB68002BEED17B699AB27B6971
S214082A601B0C13447B613B699AB23B691B0C1344ED
S214082A703B613B68002BD3D17B699AB27B691B0C00
S214082A8013447B613B699AB23B691B0C13443B6158
S214082A903B691A047B69134318461C37BD465DF824
S214082AA0047B704780B485B000AF78603960002337
S214082AB0FB810023BB810023BB6025E0FA89BB6845
S214082AC079680B441B78D118184B81FB03230B44F9
S214082AD0DA11CB17D21A13461B029B1ACA1A1346C8
S214082AE0FB81BA89FB89D118104B81FB03230B4461
S214082AF0DA11CB17D21A13461B029B1ACA1A1346A8
S214082B00BB81BB680133BB60BA683B689A42D5DBB9
S214082B10BB891B029AB2FB8913439BB29BB2184629
S214082B201437BD465DF8047B704700BF81808080FF
S214082B3090B587B004AF00237B60012300933B1D4C
S214082B400193002302930023039306480649822232
S214082B504AF6CD33054CA0477B6818460C37BD4669
S214082B6090BD00BF712B080034B00800357308000C
S214082B7080B584B000AF78607A684AF6CD339A425A
S214082B8002D0244B9847FEE7234B00221A60234BBB
S214082B9000221A60224B00221A70224B00221A705A
S214082BA0214B00221A70214B1E221A70204B1E221F
S214082BB01A70204B0A221A601F4B9847F8601F4B62
S214082BC098471F4B98471F4B984700201E4B98471F
S214082BD01E4B9847184B98470246FB68D21A43F68E
S214082BE098239A420BD91A4B98470346002B06D0CF
S214082BF0184B9847184B98470F4B9847F860174B51
S214082C009847094B1B78002B02D0154B9847E1E7ED
S214082C10E0E700BFF9640800A40B0720A80B07200C
S214082C20AC0B0720A00B0720AD0B0720AE0B072028
S214082C30AF0B0720B00B072071770800792E080025
S214082C40C52E08002D33080019350800012F080086
S214082C503D2F0800812F0800E5350800652C080080
S214082C604D36080080B500AF014B984700BF80BDC1
S214082C70752C080098B500AF114B9847114B1B6888
S214082C801846114901220023104CA0470346012B81
S214082C9003D10F4B984703460FE00E4B1B681846A8
S214082CA0094901220023094CA0470346002B03D0FC
S214082CB0074B9847034600E00023184698BD00BF18
S214082CC0C52E0800C4AD0720DC080720C16D080023
S214082CD0D92C0800FCB0072080B582B000AF5D4B49
S214082CE093F88C301B029AB25B4B1A80594B93F8B8
S214082CF08B301A46584B1B8813449AB2564B1A8088
S214082D00544B93F88A301B029AB2544B1A80514B94
S214082D1093F889301A46514B1B8813449AB24F4B86
S214082D201A804C4B93F89230FB71FB79013B082BC9
S214082D3000F2898001A252F823F000BF612D080036
S214082D40472E0800CD2D0800472E0800112E080033
S214082D50292E0800472E0800472E0800412E080096
S214082D603C4B93F891203E4B1A703E4B00221A704B
S214082D700DE03C4B1B783B4A12783649895C3A4A48
S214082D80D154384B1B780133DAB2364B1A70354BB0
S214082D901B78882BEDD9344B012283F88820304BDA
S214082DA01A78314B83F887202A4B93F892202E4BBB
S214082DB083F8862001202D4B9847274B1A88274BE7
S214082DC01B88012011461A46294B9847244B1E2279
S214082DD01A70244B00221A700AE0224B1B78224AEB
S214082DE00021D1541F4B1B780133DAB21D4B1A70E1
S214082DF01C4B1B78882BF0D900201C4B9847164B89
S214082E001A88164B1B88012011461A46184B9847F5
S214082E10184B01221A70104B1A88104B1B88012079
S214082E2011461A46124B9847124B00221A700A4B44
S214082E301A880A4B1B88012011461A460C4B9847DD
S214082E400C4B01221A704FF0FF3318460837BD4660
S214082E5080BD00BFDC080720BA0B0720BC0B072084
S214082E60AF0B0720B80B0720FC0907201935080008
S214082E70C1360800AD0B072080B400AF0E4B002209
S214082E801A700FE00C4B1B780C4A0021D1540A4BE1
S214082E901B780B4A0021D154074B1B780133DAB252
S214082EA0054B1A70044B1B78882BEBD900BFBD4620
S214082EB05DF8047B704700BFB80B07205008072052
S214082EC0880A072080B400AF0B4B00221A700AE06D
S214082ED0094B1B78094A0021D154074B1B7801334C
S214082EE0DAB2054B1A70044B1B78922BF0D900BF48
S214082EF0BD465DF8047B7047B80B0720DC08072042
S214082F0080B400AF0B4B00221A700AE0094B1B78FE
S214082F10094A0021D154074B1B780133DAB2054B16
S214082F201A70044B1B78882BF0D900BFBD465DF895
S214082F30047B7047B80B0720FC09072080B500AF54
S214082F4001200E4B98470346012B02D94FF0FF335A
S214082F5012E00020094B98470346012B02D94FF090
S214082F60FF3309E00220054B98470346012B02D998
S214082F704FF0FF3300E00123184680BDF1940800A7
S214082F8090B585B000AF894B93F88120884B1A70AE
S214082F90884B00221A7000237B60874B00221A6039
S214082FA0864B1B78002B02D04FF0FF33F9E0844B9A
S214082FB000221A700AE0824B1B78824A0021D154FC
S214082FC07F4B1B780133DAB27D4B1A707C4B1B782B
S214082FD0972BF0D9764B1B78FB7341F28833BB608E
S214082FE0794B552283F85E20774B552283F85D206F
S214082FF0764B1A78744B83F85320754B1A78724BB5
S21408300083F85120734B1A786F4B83F84F206D4B1B
S214083010012283F85E206B4B012283F85D20694B02
S214083020012283F85420674B012283F85320654B0E
S214083030012283F85220634B012283F85120614B0A
S214083040012283F850205F4B012283F84F204AE084
S2140830506148624940F2D242614B98470346012BC9
S2140830603FD1FB7B013BFB735B4B1B68DAB2514BD2
S2140830701A70534B4F221A702AE0514B1B784B4A52
S214083080D25C4C4B1B789A421CD14D4B1B78534A4A
S2140830901268D1B24C4AD154494B1B7801334F4A77
S2140830A0126802F47F42120AD1B2474AD154444BFE
S2140830B01B78444A0121D154414B1B780133414ABD
S2140830C00121D1543E4B1B780233DAB23C4B1A70BE
S2140830D03B4B1B781A46364B1B785B004F339A429D
S2140830E0CBDB404B9847FB7B002B04D0BB685A1EB3
S2140830F0BA60002BACD1324B4F221A7044E0304BEA
S2140831001B78304AD35C002B38D12D4B1B78274AC6
S214083110D35C1846344B984703461A46284B1B7808
S2140831202249CB5C042011461A467B682F4CA047E0
S21408313003461A46204B1A607B681B68B3F1FF3FAC
S2140831401CD01F4B1B781C4A1268D1B21E4AD15499
S2140831501B4B1B780133184A126802F47F4212127E
S214083160D1B2194AD154164B1B78164A0121D154AC
S214083170134B1B780133134A0121D154104B1B788B
S2140831800233DAB20E4B1A700D4B1B781A46084BF0
S2140831901B785B004F339A42B1DB084B01221A704A
S2140831A0012318461437BD4690BD00BF140B0720F0
S2140831B0BE0B0720BF0B0720B40B0720AC0B07205D
S2140831C0B80B0720880A072050080720ECB4072009
S2140831D084D5072008B10720A40B0720A80B0720D2
S2140831E0899408005D640800F13108009D9C080079
S2140831F080B483B000AF0346FB71FB79002B02D086
S214083200FB79112B08D9FB79FF2B05D0FB79FC2B12
S21408321002D0FB79FE2B01D1012380E0FB79122B2B
S21408322002D0FB79FD2B01D1002378E0FB79132B24
S21408323008D0FB79FA2B05D0FB79F12B04D9FB795A
S214083240F82B01D803236AE0FB79132B02D9FB7904
S214083250632B05D9FB79FB2B02D0FB79F92B01D11F
S21408326002235CE0FB79FF2B1DD0FB79FE2B1AD0DE
S214083270FB79FC2B17D0FB79EA2B14D0FB79F02BC3
S21408328011D0FB79F12B0ED0FB79E82B0BD0FB790C
S214083290E72B08D0FB79E62B05D0FB79E52B02D087
S2140832A0FB79E42B01D1012339E0FB79FD2B08D00B
S2140832B0FB79EF2B05D0FB79EE2B02D0FB79EB2BB5
S2140832C001D100232BE0FB79FB2B05D0FB79F92BEA
S2140832D002D0FB79E92B01D1022320E0FB79FA2BF7
S2140832E01AD0FB79F82B17D0FB79F72B14D0FB797B
S2140832F0F62B11D0FB79F52B0ED0FB79F42B0BD0DF
S214083300FB79F32B08D0FB79F22B05D0FB79ED2B54
S21408331002D0FB79EC2B01D1032300E003231846E7
S2140833200C37BD465DF8047B704700BF80B400AF1D
S214083330764B00221A700AE0744B1B78744A0021F8
S214083340D154724B1B780133DAB2704B1A706F4B3C
S2140833501B78882BF0D96E4B002283F883206D4BA0
S2140833601A786B4B83F88220694B192283F88120E0
S214083370674B012283F88020654B012283F87F2063
S214083380634B022283F87E20614B022283F87D205D
S2140833905F4B032283F87C205D4B032283F87B2057
S2140833A05B4B042283F87A20594B042283F8792051
S2140833B0574B052283F87820554B052283F877204B
S2140833C0534B062283F87620514B062283F8752045
S2140833D04F4B072283F874204D4B072283F873203F
S2140833E04B4B082283F87220494B082283F8712039
S2140833F0474B092283F87020454B092283F86F2033
S214083400434B0A2283F86E20414B0A2283F86D202C
S2140834103F4B0B2283F86C203D4B0B2283F86B2026
S2140834203B4B0C2283F86A20394B0C2283F8692020
S214083430374B0D2283F86820354B0D2283F867201A
S214083440334B0E2283F86620314B0E2283F8652014
S2140834502F4B0F2283F864202D4B0F2283F863200E
S2140834602B4B102283F86220294B102283F8612008
S214083470274B122283F86020254B122283F85F2000
S214083480234B132283F85E20214B132283F85D20FA
S2140834901F4B142283F85C201D4B142283F85B20F4
S2140834A01B4B192283F85A20194B192283F85920E6
S2140834B0174B1A2283F85820154B1A2283F85720E0
S2140834C0134B1B2283F85620114B1B2283F85520DA
S2140834D00F4BF82283F854200D4BF82283F853201C
S2140834E00B4BF72283F85220094BF72283F851201A
S2140834F0074BF62283F85020054BF62283F84F2018
S21408350000BFBD465DF8047B704700BFB80B0720B8
S21408351070090720AE0B072080B483B000AF0346BF
S214083520FB71FB79002B21D1264B00221A700DE087
S214083530244B1B78234A12782349895C234AD154A2
S214083540204B1B780133DAB21E4B1A701D4B1B78C2
S214083550882BEDD91E4B00221A701E4B1B784EF690
S214083560602202FB03F31A461B4B1A60FB79012BF9
S21408357021D1144B00221A700DE0124B1B78114A09
S21408358012781649895C114AD1540E4B1B780133C0
S214083590DAB20C4B1A700B4B1B78882BEDD90C4BF8
S2140835A001221A700E4B1B784EF6602202FB03F3BC
S2140835B01A46094B1A6000BF0C37BD465DF8047BF7
S2140835C0704700BFB80B072070090720140B0720A8
S2140835D0A00B0720AE0B0720B00B0720FC0907201E
S2140835E0AF0B072098B500AF124B9847124B19221D
S2140835F083F89220114B00221A700DE00F4B1B78AF
S2140836000E4A12780E49895C0B4AD1540B4B1B782C
S2140836100133DAB2094B1A70084B1B78882BEDD9A0
S214083620084B1B681846044901220023064CA0478D
S21408363000BF98BDC52E0800DC080720B80B072079
S214083640500807208CB30720016B080098B500AF18
S214083650144B00221A70144B9847144B0A2283F80E
S2140836609220134B00221A700DE0114B1B78104A5B
S21408367012781049895C0D4AD1540D4B1B780133DA
S214083680DAB20B4B1A700A4B1B78882BEDD90A4B0B
S2140836901B681846054901220023084CA04700BFAE
S2140836A098BD00BFAD0B0720C52E0800DC08072014
S2140836B0B80B0720140B07208CB30720016B0800F3
S2140836C090B585B002AF13460246FA710A46BA802C
S2140836D07B801A4B98471A4BDD2283F89220184BAA
S2140836E0FA7983F89120164B042283F89020BB8839
S2140836F0DBB21B12DAB2124B83F88C20BB88DAB224
S2140837000F4B83F88B207B88DBB21B12DAB20C4B8C
S21408371083F88A207B88DAB2094B83F88920094B1C
S2140837201B6801220092042001211A46044B064C0D
S214083730A04700BF0C37BD4690BD00BFC52E080089
S214083740DC0807208CB307209509080080B582B0EE
S21408375000AF00237B600FE00A4B7A6853F82230EC
S21408376018464FF06051084B984778680021074B79
S21408377098477B6801337B607B68032BECD9083756
S214083780BD4680BD38B008009D5508009137080032
S21408379080B582B000AF786039607B68032B23D889
S2140837A07B68002B06D13B68002B14BF002301233F
S2140837B0DBB23B603B68002B0BD00D4B98470D4B9C
S2140837C07A6853F8223018460B4B98470B4B9847A5
S2140837D00AE0074B9847074B7A6853F82230184692
S2140837E0074B9847054B98470837BD4680BD00BF2E
S2140837F07D64080038B0080009550800C164080050
S214083800D554080080B483B000AF0346FB71FA793C
S2140838100C4BA3FB0213DB08DBB21B01D8B2FA7908
S214083820084BA3FB0213D9080B469B000B445B000E
S214083830D31ADBB20344DBB218460C37BD465DF834
S214083840047B7047CDCCCCCC80B584B000AF0346A3
S214083850FB80FB881846184B9847184B1A78184B65
S2140838601A70164B5A78174B1A70144B9A78164BD0
S2140838701A70124BDA78154B1A70144B1B783B7279
S214083880114B1B787B720F4B1B78BB7201233B7363
S2140838900123FB7201237B730023FB8107F10803D6
S2140838A093E803000A4B98470A4B98470A4B9847F1
S2140838B000BF1037BD4680BDD939080004B10720BF
S2140838C0ECB4072084D5072008B1072018B10720D4
S2140838D0DD380800393A0800853A080080B586B011
S2140838E000AF3B4683E803003B783B747B787B74E9
S2140838F0BB78BB74FB78FB743B793B757B797B752F
S214083900FB88DBB2BB750023FB7524E0FB7D9BB20E
S21408391080339BB2BB81FB7D07F11802134413F872
S214083920083C18460F4B984703467B81BB899BB2D9
S2140839301B029AB27B899BB29BB213439BB29BB283
S214083940FB8107F10E03184601210122064B984712
S214083950FB7D0133FB75FB7D062BD7D900BF1837D7
S214083960BD4680BD05380800C540080080B584B04F
S21408397000AF02460B46FA80BB80FB881B029AB251
S214083980BB8813439BB29BB2FB8107F10E03184614
S21408399001210122024B984700BF1037BD4680BD63
S2140839A0C540080080B584B000AF0346FB80FB889E
S2140839B01B029BB2BB8107F10C03184601210122AA
S2140839C0044B9847BB899BB2FB73FB7B18461037A2
S2140839D0BD4680BDC540080080B582B000AF03462E
S2140839E0FB80FB888E201946024B984700BF083795
S2140839F0BD4680BD6D39080080B582B000AF03466D
S214083A00FB80FB888F201946024B984700BF083773
S214083A10BD4680BD6D39080080B582B000AF0F2066
S214083A20044B98470346FB71FB7918460837BD4692
S214083A3080BD00BFA539080080B582B000AF00235E
S214083A40FB7116E0FB799BB28B339BB2BB80BB88BD
S214083A509BB21B029BB243F080039BB29BB27B8057
S214083A60BB1C184601210122054B9847FB790133F8
S214083A70FB71FB79022BE5D900BF0837BD4680BD30
S214083A80C540080080B582B000AF074B984703468C
S214083A9023F00203FB71FB799BB21846034B984749
S214083AA000BF0837BD4680BD193A0800F939080036
S214083AB090B585B002AF284B1B68002B00D048E0B5
S214083AC01520264B98470220254B98470346012B7E
S214083AD007D000230093162000210A22214B224CEF
S214083AE0A047224B98470346002B07DA002300938B
S214083AF0162000210B221B4B1B4CA0470220184BFC
S214083B0098470346012B07D0002300931620002170
S214083B100A22144B144CA0470023FB8007E0FA88BF
S214083B20134B002143F82210FB880133FB80FB88E7
S214083B307F2BF4D90023FB8006E0FB88094A002186
S214083B40D154FB880133FB80FB88B3F5805FF4D340
S214083B5000BF0C37BD4690BDF8B3072009550800CE
S214083B60C13C08007CB5072065050800753B0800C1
S214083B70F4AE072080B584B000AFC723BB801E4BC9
S214083B801B68002B0FD00023FB8106E0FB891B4A2D
S214083B900021D154FB890133FB81FB89B3F5805F93
S214083BA0F4D3012324E040F2DC53BB603B1D1846E7
S214083BB001210222124B984702E00A20114B98472F
S214083BC00220114B98470346002B04D0BB685A1EA8
S214083BD0BA60002BF1D102200B4B98470346002B06
S214083BE002D1BB68002B02D14FF0FF3300E001235F
S214083BF018461037BD4680BDF8B307207CB50720A9
S214083C00C54008002D420800413C080080B584B035
S214083C1000AF78600523BB810023FB817B68DBB29D
S214083C2007F10C02104602211A46044B9847FB89F6
S214083C30DBB218461037BD4680BD00BFC540080039
S214083C4080B586B000AF786032233B614FF0FF3313
S214083C50FB607868184B98470346FB75FB7D03F0B6
S214083C600103FB750BE07868134B98470346FB7512
S214083C70FB7D03F00103FB756420104B9847FB7D22
S214083C80002B04D03B695A1E3A61002BEBD1FB7D12
S214083C90012B02D03B69002B01D1FB6807E0FB7DB6
S214083CA0002B03D10023FB60FB6800E0FB68184686
S214083CB01837BD4680BD00BF0D3C08005D420800B1
S214083CC080B584B000AF78607868134B9847F86082
S214083CD0FB68012B02D14FF0FF3319E00F4B062289
S214083CE01A807B68DBB20D4801211A460C4B9847B0
S214083CF078680C4B98470346FB60FB6803F00303A1
S214083D00FB60FB68022B02D04FF0FF3300E0012374
S214083D1018461037BD4680BD413C080078B10720DC
S214083D20C54008000D3C080080B483B000AF78603A
S214083D307B68072B25D801A252F823F05D3D0800C2
S214083D40633D0800693D08006F3D0800733D0800A4
S214083D50773D08007B3D08007F3D08004FF4FA4396
S214083D6010E04FF400430DE04FF400430AE0084B20
S214083D7008E0084B06E0084B04E0074B02E0064B59
S214083D8000E0002318460C37BD465DF8047B7047F4
S214083D9000093D0000127A00001BB70080B500AF8E
S214083DA00620044B984702461346DB009B1A5B0026
S214083DB0184680BD293D080080B500AF024B9847DD
S214083DC003465B08184680BD9D3D080080B483B056
S214083DD000AF78607B6880221A600C37BD465DF8B5
S214083DE0047B704780B483B000AF78607B6801229C
S214083DF01A600C37BD465DF8047B704780B483B004
S214083E0000AF78607B685B6843F001027B685A60A5
S214083E100C37BD465DF8047B704700BF80B483B09E
S214083E2000AF78607B685B6843F002027B685A6084
S214083E300C37BD465DF8047B704700BF80B483B07E
S214083E4000AF78607B685B6823F004027B685A6082
S214083E500C37BD465DF8047B704700BF80B483B05E
S214083E6000AF78607B685B6843F010027B685A6036
S214083E700C37BD465DF8047B704700BF80B483B03E
S214083E8000AF78607B685B6823F080027B685A60C6
S214083E900C37BD465DF8047B704700BF80B483B01E
S214083EA000AF78607B681B6918460C37BD465DF81E
S214083EB0047B704780B582B000AF0C4B7B600C4823
S214083EC00C4B9847034603F00103002B0BD0FB1C52
S214083ED0074809491A46094B98477B681B6843F008
S214083EE0BB027B681A600837BD4680BD0C80004060
S214083EF0008000409D3E0800C00B07201102080005
S214083F0090B585B000AF5948594B98475748594B14
S214083F1098475648584B98475448584B98475348DC
S214083F20574B984751480B21564B98474F48564B86
S214083F3098474E48554B98474C480021544B98474D
S214083F400023FB60534BBB6001237B6000233B6070
S214083F504648F968002202234F4CA0474348F968B0
S214083F6080224E4B98474E4B98470346B8681946EA
S214083F704C4B98470346DBB23C48F9681A464A4B0E
S214083F8098473A48F9680422484B98473748F968EA
S214083F907A68474B98473548F9683A68454B9847D2
S214083FA00123FB60444BBB6001237B6000233B601E
S214083FB02E48F96845220223374CA0472B48F96853
S214083FC08022364B9847364B98470346B8681946BA
S214083FD0344B98470346DBB22448F9681A46324BF6
S214083FE098472248F9680822304B98471F48F968CE
S214083FF07A682F4B98471D48F9683A682D4B9847BA
S2140840000223FB602D4BBB6001237B6000233B60D3
S2140840101648F968002202231F4CA0471348F9687F
S21408402000221E4B98471E4B98470346B868194609
S2140840301C4B98470346DBB20C48F9681A461A4BDD
S21408404098470A48F9680822184B98470748F968B5
S2140840507A68174B98470548F9683A68154B9847A1
S2140840600248174B98471437BD4690BD008000405D
S21408407089010800CD3D0800FD3D08005D3E0800AA
S2140840807D3E0800AD0108001D3E08003D3E0800C4
S214084090E1010800A086010011050800390408009F
S2140840A0B93D080081040800C1040800950308000B
S2140840B0F50208004503080080841E0000639F027E
S2140840C0E53D080090B589B000AFF860B9601346C2
S2140840D0FB710023FB61FB79012202FA03F3DBB2D2
S2140840E0DB43DBB203F00F03DBB2FB75FB68BB6197
S2140840F0BB68012B24D1FB695B00BA6913441A8894
S214084100FB7D414811461A460123404CA04700BF94
S2140841103D483F4B9847034603F00103002BF7D072
S21408412007F1140207F11703374811461A46394BA8
S2140841309847FB695B00BA691344BA8A1A805FE03D
S2140841400023FB6129E0FB695B00BA6913441A88FF
S214084150FB7D2D4811461A4600232C4CA04700BF6D
S21408416029482B4B9847034603F00103002BF7D04A
S21408417007F1140207F11703234811461A46254B80
S2140841809847FB695B00BA691344BA8A1A806420A8
S214084190214B9847FB690133FB61BB685A1EFB69D4
S2140841A09A42D0D864201C4B9847BB6803F100435A
S2140841B0013B5B00BA6913441A88FB7D1248114616
S2140841C01A460123114CA04700BF0F48104B9847CA
S2140841D0034603F00103002BF7D007F1140207F19A
S2140841E01703094811461A460A4B9847BB6803F155
S2140841F00043013B5B00BA691344BA8A1A8000BFC1
S2140842002437BD4690BD00BF0080004081020800EC
S2140842109D3E0800110208005D42080080B500AF08
S214084220014B984700BF80BD013F080080B485B0A9
S21408423000AF78607B68084A02FB03F3FB6000BFA8
S214084240FB685A1EFA60002BFAD100BF1437BD4629
S2140842505DF8047B704700BF2048010080B485B035
S21408426000AF78607B68542202FB03F3FB6000BF54
S214084270FB685A1EFA60002BFAD100BF1437BD46F9
S2140842805DF8047B704700BF80B483B000AF7860E9
S2140842907B68072B25D801A252F823F0BD420800F8
S2140842A0C3420800C9420800CF420800D3420800AB
S2140842B0D7420800DB420800DF4208004FF4FA4302
S2140842C010E04FF400430DE04FF400430AE0084BBB
S2140842D008E0084B06E0084B04E0074B02E0064BF4
S2140842E000E0002318460C37BD465DF8047B70478F
S2140842F000093D0000127A00001BB70080B500AF29
S2140843000620044B984702461346DB009B1A5B00C0
S214084310184680BD8942080080B500AF024B984712
S21408432003465B08184680BDFD42080080B582B08B
S21408433000AF78607868024B98470837BD4680BD5E
S214084340295B080080B584B000AF0023BB6000235B
S214084350FB730023BB733B483B4B98477860582059
S2140843603A4B98473A4B1B78002B67D17B6803F08B
S2140843700103002B62D033483649374B9847354BF4
S2140843801B68BB60BB68312B02D1344B01221A7004
S214084390BB68322B02D1324B01221A702F4B1B7886
S2140843A0012B1ED1BB68002B1BD0BB68312B18D045
S2140843B0BB68322B15D02B4B1A782B4BA3FB02135A
S2140843C0D9080B469B000B445B00D31ADBB2BA68CD
S2140843D0D1B2264AD154234B1B780133DAB2214B8B
S2140843E01A701F4B1B78012B1DD11C4B1B78012BF9
S2140843F019D11F4B98471A4B00221A70174B0022E8
S2140844001A70184B00221A700023BB7306E0BB7B99
S214084410164A0021D154BB7B0133BB73BB7B092BE7
S214084420F5D90123FB73FB7B002B05D1094B1B68D1
S214084430044819460F4B98470023FB731037BD46B0
S21408444080BD00BF008009408D5D08003D5508000E
S214084450C80B0720C40B0720115E0800C90B0720ED
S214084460CA0B0720D80B0720CDCCCCCCCC0B07200A
S21408447079440800DD5D080080B588B000AF0023E9
S214084480BB6101237B610123FB740123BB740123F9
S2140844907B7440F227133B6019233B747E4BFB600A
S2140844A0F8687E4B98470346FB747D4BFB60F868BC
S2140844B07A4B98470346BB747A4BFB60F868774B91
S2140844C0984703467B74FB7C012B40F08880764B2C
S2140844D0FB610DE0FB691B78BB6100BF7348B969D7
S2140844E0734B98470346002BF8D1FB690133FB61F1
S2140844F0FB691B78002BEDD16E4BFB610DE0FB6969
S2140845001B78BB6100BF6948B969694B9847034681
S214084510002BF8D1FB690133FB61FB691B78002B84
S214084520EDD1654B1B683B603B461846634B984786
S21408453078613B683B743B7C1846614B984703465A
S2140845403B743B7C1B01FB72FB7A1B09FB723B7CB2
S2140845501B09BB72FB7A3033FB72BB7A3033BB72F3
S2140845607B69002B0AD02B23BB6100BF4F48B96973
S2140845704F4B98470346002BF8D109E02D23BB6123
S21408458000BF4A48B9694A4B98470346002BF8D1FA
S21408459000BFBB7A45481946454B98470346002B4B
S2140845A0F7D100BFFB7A41481946414B9847034666
S2140845B0002BF7D1434BFB610DE0FB691B78BB6111
S2140845C000BF3A48B9693A4B98470346002BF8D1DA
S2140845D0FB690133FB61FB691B78002BEDD1BB7CC3
S2140845E0012B14D1384BFB610DE0FB691B78BB61CE
S2140845F000BF2E48B9692E4B98470346002BF8D1C2
S214084600FB690133FB61FB691B78002BEDD17B7CD2
S214084610012B3DD12D4BFB610DE0FB691B78BB617F
S21408462000BF2248B969224B98470346002BF8D1A9
S214084630FB690133FB61FB691B78002BEDD1244B2A
S2140846401B687B607B68DBB27B607B68402B02D88C
S2140846507B685A2B07D800BF14487968144B9847CC
S2140846600346002BF8D11B4BFB610DE0FB691B785A
S214084670BB6100BF0D48B9690D4B98470346002B30
S214084680F8D1FB690133FB61FB691B78002BEDD180
S21408469000BF2037BD4680BD48B00800D946080090
S2140846A04CB0080058B008005CB00800008009400C
S2140846B0DD5D08007CB0080008AE07203547080016
S2140846C0CD47080098B00800A0B00800BCB00800A5
S2140846D038B50720E4B0080080B485B000AF78602D
S2140846E00023FB730123BB737B68BB600023FB734B
S2140846F014E0BB681A78FB7B0D49CB5C9A4202D063
S2140847000023BB730DE0BB681B78002B00D108E0C4
S214084710BB680133BB60FB7B0133FB73FB7B092B58
S214084720E7D9BB7B18461437BD465DF8047B70474F
S214084730CC0B072080B584B000AF78604FF000033C
S214084740FB607B681B68BB60BB689B08BB601B4B39
S214084750B86898470346FB60194BF8684FF07451E1
S21408476098470346FB60174BF8684FF000019847D8
S2140847700346002B09D0144BF86898470346BB60DD
S2140847807B68BA681A60012313E00C4BB868984730
S214084790034683F000420C4B104698470346BB601E
S2140847A0094BF86898470346BB607B68BA681A6086
S2140847B0002318461037BD4680BD00BF81A80800F4
S2140847C031A9080095AC0800BDAC080080B485B0D7
S2140847D000AF0346FB710023FB730023BB73002363
S2140847E07B73FB79092B19D9FA79104BA3FB0213B3
S2140847F0D9080B469B000B445B00D31ABB73FA79A7
S2140848000A4BA3FB0213DB08FB73FB7B1B01FB7342
S214084810FA7BBB7B13437B737B7B00E0FB791846F4
S2140848201437BD465DF8047B704700BFCDCCCCCCB2
S214084830B0B586B000AF114B3C461D460FCD0FC431
S21408484095E8030084E8030011200D4B98470D4BAC
S214084850984703463A460C4811461A460B4B984763
S21408486009484FF0FF310A4B98470748094B9847C5
S2140848700548094B98471837BD46B0BDE8B008004C
S2140848802D43080019430800008009408D5C080085
S214084890715D0800115D0800415D080080B582B0B2
S2140848A000AF78607B68072B2ED801A252F823F059
S2140848B009490800D1480800D9480800E148080016
S2140848C0E9480800F1480800F948080001490800C6
S2140848D000200F4B984717E001200D4B984713E030
S2140848E000200C4B98470FE010200A4B98470BE027
S2140848F02020084B984707E00020074B984703E01E
S2140849000120054B984700BF0837BD4680BD00BF4D
S21408491041590800B1590800515A080080B582B0BC
S21408492000AF78607B68072B26D801A252F823F0E0
S21408493051490800554908005549080067490800C4
S214084940674908006749080067490800674908007A
S214084950012312E00B4B98470346002B0CBF00239D
S2140849600123DBB209E0084B98470346002B0CBF2F
S21408497000230123DBB200E0002318460837BD46B3
S21408498080BD00BF7D590800BD5A080080B483B0BA
S21408499000AF78607B68072B25D801A252F823F071
S2140849A0C1490800C7490800CD490800D34908008E
S2140849B0D7490800DB490800DF490800E349080032
S2140849C04FF4FA4310E04FF400430DE04FF4004371
S2140849D00AE0084B08E0084B06E0084B04E0074BE3
S2140849E002E0064B00E0002318460C37BD465DF88B
S2140849F0047B704700093D0000127A00001BB700D0
S214084A0080B582B000AF0346FB7100BFFB7918463D
S214084A10054B9847034683F00103DBB2002BF5D11C
S214084A200837BD4680BD00BF1D49080080B586B062
S214084A3000AFF8607A603B600B46FB727B68002B21
S214084A4007D13B68002B04D1FB684FF470021A604C
S214084A5019E0FB7A18460D4B984702467B68B2FB6E
S214084A60F3F37B617B693A6802FB03F37B613B687F
S214084A70013B1A04064B13407A68D2B2134343F438
S214084A807C52FB681A601837BD4680BD8D49080001
S214084A900000FF0780B582B000AF786039603B68D9
S214084AA0002B08D1084B9847084B7A68126842F0E2
S214084AB000529A6205E0054B7A68126842F4803222
S214084AC0DA610837BD4680BDD95A080000060E4090
S214084AD080B582B000AF78607B68002B03D1054BA9
S214084AE09847034602E0044B98470346184608379B
S214084AF0BD4680BDF15A08000D5B080080B582B03F
S214084B0000AF0346FB71FB79033B042B08D8FB79FF
S214084B101846054B9847FB791846044B984700E01B
S214084B2000BF0837BD4680BD9D480800014A0800FA
S214084B3080B582B000AF786000BF7868044B9847AD
S214084B400346002BF9D0002318460837BD4680BD1B
S214084B50D14A080080B500AF0620044B98470246A5
S214084B601346DB009B1A5B00184680BD8D4908007B
S214084B7080B500AF024B984703465B08184680BDD1
S214084B80554B080090B583B000AF104B98470346C6
S214084B9018460F4B984706200E4B98473B1D18465D
S214084BA0062101220E230C4CA0473B1D1846002167
S214084BB00A4B984700200A4B98471020094B9847FD
S214084BC000BF094B98470C37BD4690BD714B08008F
S214084BD0D1600800FD4A08002D4A0800954A0800DA
S214084BE0314B0800BD580800515F080080B500AF7B
S214084BF0114B4FF400425A6001204FF000610F4BF2
S214084C00984700204FF000610C4B984734204FF02F
S214084C1040510A4B984735204FF04051074B98476C
S214084C202F204FF00061054B98472E204FF000616B
S214084C30024B984700BF80BD501A0E409D5508008D
S214084C4080B500AF57204FF04051384B9847572053
S214084C50374B98473B204FF06051344B98475520C8
S214084C604FF06051314B984756204FF060512F4B0C
S214084C7098473A204FF020512C4B984720204FF069
S214084C8020512A4B98470E204FF02051274B984723
S214084C901B204FF02051254B98471B204FF02051E2
S214084CA0224B98471B204FF02051204B984721480D
S214084CB04FF440714FF000621F4B984719204FF091
S214084CC000611A4B98471A204FF00061174B984717
S214084CD01B204FF00061154B98471C204FF00061D1
S214084CE0124B984734204FF08051104B9847352088
S214084CF04FF080510D4B984737204FF080510B4BA3
S214084D00984715204FF00061084B984733204FF01E
S214084D108051064B98470A204FF00061034B98478E
S214084D200B204FF00061014B984780BD9D55080049
S214084D30D5540800000E0E40D956080080B58AB033
S214084D4000AFF860B9607A607B6846F2A81202FB8A
S214084D5003F2BB6813445A1E7B6846F2A81101FB8F
S214084D6003F3B2FBF3F3802B01D9002385E0BB687D
S214084D705A087B684FF4FA5101FB03F39A4201D2B2
S214084D8000237AE0082387F827304FF0FF333B628A
S214084D900823FB772BE0FB7F7A6802FB03F34FF4CC
S214084DA07A7202FB03F3BA68B2FBF3F3802B1BD8C4
S214084DB0FB7F7A6802FB03F34FF47A7202FB03F276
S214084DC0BB68B3FBF2F102FB01F29B1ABB61BA693E
S214084DD03B6A9A4208D2BB693B62FB7F87F827305A
S214084DE03B6A002B00D105E0FB7F0133FB77FB7F96
S214084DF0192BD0D997F827307A6802FB03F34FF4BB
S214084E007A7202FB03F3BA68B2FBF3F3FB75FB7D19
S214084E10012B01D8002330E097F82730A3F10802C9
S214084E2013465B0013445B00164A13443B61F8685C
S214084E30154B98473B69DB78013B03F007023B6953
S214084E409B78013B1B0103F070031A433B695B78B0
S214084E50013B1B0203F4E0631A433B691B79013BE1
S214084E601B0303F440531A43FB7D013B1B0403F466
S214084E70FE031A43FB685A61012318462837BD46C5
S214084E8080BD00BF00B10800354F080080B586B069
S214084E9000AFF860B9607A60F868B9687A68174B46
S214084EA0984778617B69002B01D1002321E0F868D8
S214084EB0134B9847F868134B984700237B610023E9
S214084EC03B6106E0F868104B984778613B69013308
S214084ED03B617B6903F40013002B03D13A690B4B43
S214084EE09A42EFD93A690A4B9A4201D1002300E068
S214084EF0012318461837BD4680BD00BF3D4D080043
S214084F00CD520800154F08008D4F08009F860100F7
S214084F10A086010080B483B000AF78607B681B6809
S214084F2043F001027B681A600C37BD465DF8047BC7
S214084F30704700BF80B483B000AF78607B681B689A
S214084F4023F001027B681A600C37BD465DF8047BC7
S214084F50704700BF80B483B000AF786039607B6864
S214084F603A685A600C37BD465DF8047B704700BF48
S214084F7080B483B000AF786039607B683A689A601E
S214084F800C37BD465DF8047B704700BF80B483B01D
S214084F9000AF78607B681B6918460C37BD465DF81D
S214084FA0047B704780B485B000AF78600B46FB7012
S214084FB07B685B6A23F0FF03FB60FA78FB681A439A
S214084FC07B685A621437BD465DF8047B704700BF9D
S214084FD080B483B000AF78600B46FB70FB787A68C5
S214084FE05B01134403F504731B6818460C37BD466B
S214084FF05DF8047B704700BF80B485B000AF78606A
S21408500039603B681B68FB73FB7B3A68927912042D
S21408501002F4702242F4000279685B010B4403F53F
S21408502006735A601437BD465DF8047B704700BFA8
S21408503080B485B000AF786039603B681B68FB7346
S2140850403B681B79002B2ED1FB7B7A6810335B01FB
S214085050134400221A60FB7B7A6810335B01134402
S21408506000225A60FB7B7A685B01134403F50273DF
S21408507000221A60FB7B7A685B01134403F504730D
S21408508000225A60FB7B7A685B01134403F50673BB
S21408509000221A60FB7B7A685B01134403F50673EB
S2140850A000225A604EE0FB7BFA7B79681032520188
S2140850B00A44126822F470213A68D27912040A4324
S2140850C0796810335B010B441A603B685B79002BE8
S2140850D015D0FB7B3A68D26842F0005279681033E4
S2140850E05B010B445A60FB7B3A68126942F0005237
S2140850F079685B010B4403F502731A6010E0FB7BCA
S2140851003A68D268796810335B010B445A60FB7BB7
S2140851103A68126979685B010B4403F502731A60F2
S214085120FB7BFA7B7968103252010A44126822F037
S214085130E0613A68127912060A43796810335B010F
S2140851400B441A601437BD465DF8047B704700BFF1
S21408515080B586B000AF7860396000237B613B6815
S2140851601B68FB743B689B68FB60FB6803F40003E2
S214085170002B06D0FB6803F08073002B01D00223B7
S2140851807B61FB7C7A685B01134403F502735B68FA
S21408519023F060423B685A61FB6803F470231B0CDB
S2140851A0DAB23B689A71FB7C7A685B01134403F5B4
S2140851B004735A683B689A613B689B79042B08D944
S2140851C0FB7C7A685B01134403F506731A683B6830
S2140851D0DA61FB7C7A685B01134403F504731A688A
S2140851E03B689A603B689B68FB60FB6803F08073CB
S2140851F0002B03D07B6943F004037B617868396829
S214085200034B98477B6918461837BD4680BD00BFD4
S214085210F94F080080B584B000AF786039603B6805
S2140852201B68FB73FB7B78681946274B9847024632
S2140852303B689A603B689B68BB60BB6803F40003E6
S214085240002B01D101233BE03B685B79002B0BD098
S214085250FB7B3A68126942F0005279685B010B449E
S21408526003F502731A6008E0FB7B3A6812697968EE
S2140852705B010B4403F502731A60FB7B3A6892697C
S21408528079685B010B4403F504735A603B689B79A5
S214085290042B08D9FB7B3A68D26979685B010B4412
S2140852A003F506731A60FB7B3A689279120402F4D7
S2140852B0702279685B010B4403F506735A60002375
S2140852C018461037BD4680BDD14F080080B58CB053
S2140852D000AF786000233B74002387F82F300DE07A
S2140852E097F82F30FB6007F10C0378681946074BD0
S2140852F0984797F82F30013387F82F3097F82F30D4
S214085300072BEDD93037BD4680BD00BF31500800A9
S21408531080B485B000AFF860B9607A607B68002B0F
S21408532003D0FB68BA685A6602E0FB68BA681A6671
S2140853301437BD465DF8047B704700BF80B487B05D
S21408534000AFF860B9607A60FB687A685A64BB6830
S214085350B3F1805F1FD0B3F1805F05D8002B27D04C
S214085360B3F1006F0AD01FE0B3F1405F20D0B3F16D
S214085370605F1DD0B3F1205F1AD015E0FB681B6F85
S2140853807B61FB681A6F7B68D9437B690B401A40C0
S214085390FB681A6708E0FB681B6F7B617A687B69A5
S2140853A01A43FB681A6700BFFB687A685A6000E011
S2140853B000BF1C37BD465DF8047B704780B584B0D7
S2140853C000AFF860B9607A60F868B968144B984717
S2140853D07B6803F00A03002B03D0FB68BA681A62DE
S2140853E002E0FB68BA685A627B6803F00203002B87
S2140853F004D0FB68BA68C3F8802008E07B6803F02E
S2140854000803002B03D0FB68BA68C3F88020FB6843
S214085410BA685A61FB68BA681A601037BD4680BD1C
S2140854208954080080B584B000AFF860B9607A6027
S2140854303B60F868B968124B9847F868B968BA6963
S214085440104B98473B68002B03D0FB68BA681A6570
S21408545002E0FB68BA685A657B68002B03D0FB68D5
S214085460BA681A6302E0FB68BA685A63FB68BA68E7
S2140854701A61FB68BA681A601037BD4680BD00BF5F
S214085480895408001153080080B483B000AF7860D0
S21408549039607B683A685A640C37BD465DF8047B09
S2140854A0704700BF80B483B000AF78607B68DB6C61
S2140854B018460C37BD465DF8047B704780B483B049
S2140854C000AF78607B689B6C18460C37BD465DF865
S2140854D0047B704780B485B000AF78607B685B0952
S2140854E003F5001303F207735B02FB607B6803F0A7
S2140854F01F03012202FA03F31A46FB681A631437DD
S214085500BD465DF8047B704780B485B000AF786010
S2140855107B685B0903F5001303F207735B02FB6005
S2140855207B6803F01F03012202FA03F31A46FB689E
S2140855305A631437BD465DF8047B704780B485B05F
S21408554000AF78607B685B0903F5001303F2077306
S2140855505B02FB60FB689A6B7B6803F01F03012104
S21408556001FA03F31340002B09D07B6803F01F03EE
S214085570012202FA03F31A46FB685A6308E07B68BE
S21408558003F01F03012202FA03F31A46FB681A63A4
S2140855901437BD465DF8047B704700BF90B587B0EA
S2140855A002AF786039607B685B0903F5001303F285
S2140855B007735B02FB603B6803F0F043B3F1205FC0
S2140855C048D0B3F1205F06D8B3F1006F0AD0B3F124
S2140855D0805F23D070E0B3F1405F47D0B3F1605FDF
S2140855E044D069E07B6803F01F03012202FA03F344
S2140855F0F8684FF000611A46334B98477B6803F00B
S2140856001F03012202FA03F31A463B6803F001035C
S214085610F86811461A462D4B98474FE07B6803F00A
S2140856201F03012202FA03F3F8684FF080511A4666
S214085630254B98477B6803F01F03012202FA03F301
S2140856401A463B6803F00103F86811461A461F4BD2
S214085650984733E07B6803F01F03012202FA03F33E
S214085660F86819463A681A4B984727E07B6803F0AB
S2140856701F03012202FA03F319463B6803F060533E
S214085680B3F1605F14BF00230123DBB21A463B6800
S21408569003F00403002B0CBF00230123DBB2386899
S2140856A000F0010000280CBF00200120C0B20090C6
S2140856B0F868084CA04701E0002300E001231846DC
S2140856C01437BD4690BD00BF3D530800115308006F
S2140856D0BD5308002554080090B587B002AFF8609F
S2140856E0B9607A607B6803F0F043B3F1205F2ED090
S2140856F0B3F1205F06D8B3F1006F0AD0B3F1805F2C
S21408570016D04AE0B3F1405F27D0B3F1605F24D0EB
S21408571043E0F8684FF00061BA68234B98477B6807
S21408572003F00103F868B9681A46204B984736E034
S214085730F8684FF08051BA681B4B98477B6803F0AF
S2140857400103F868B9681A46184B984727E0F868BE
S214085750B9687A68164B984721E07B6803F060536F
S214085760B3F1605F14BF00230123DBB21A467B68DF
S21408577003F00403002B0CBF00230123DBB2796877
S21408578001F0010100290CBF00210121C9B20091D6
S214085790F868B968074CA04701E0002300E0012339
S2140857A018461437BD4690BD3D53080011530800EF
S2140857B0BD5308002554080080B584B000AF786053
S2140857C039607868224B9847F8607868214B984784
S2140857D00346FA681340FB60FB68002B35D00023AD
S2140857E0BB602FE01C4ABB681B0113441A683B6861
S2140857F09A4224D1184ABB681B0113445A68FB68AE
S2140858001340002B1BD0144ABB681B0113440833F3
S2140858105B681149BA6812010A4411680E48BA68EA
S2140858201201024452680846114698470A4ABB685D
S2140858301B0113445B68DB43FA681340FB60BB68D4
S2140858400133BB60FB68002BCCD11037BD4680BD4A
S214085850A5540800BD540800DC0B072080B500AF2F
S21408586002480B21024B984780BD00BF000E0E4031
S214085870B957080080B500AF02480C21024B98477C
S21408588080BD00BF00100E40B957080080B500AFB5
S21408589002480D21024B984780BD00BF00120E40FB
S2140858A0B957080080B500AF02480E21024B98474A
S2140858B080BD00BF00140E40B957080080B485B0FC
S2140858C000AF78601D4B1D4A126B22F070017A6893
