:0200000280007C
:1000000028C70720152D08000D2D08000D2D08000C
:100010000D2D08000D2D08000D2D0800000000001A
:10002000000000000000000000000000BD310800DA
:100030000D2D08000000000081330800C5330800C2
:100040000D2D08000D2D08000D2D08000D2D0800A8
:10005000E96308000D2D08000D2D08000D2D080086
:100060000D2D08000D2D0800000000009526080049
:10007000AD260800C5260800DD26080000000000A7
:1000800000000000791008000D2D08000D2D08005B
:100090000D2D08000D2D08000D2D08000D2D080058
:1000A0002D0D0800000000000D2D08000D2D08008A
:1000B0000D2D08000D2D08000D2D08000D2D080038
:1000C0000D2D08000D2D08000D2D08000D2D080028
:1000D0000D2D08000D2D08000D2D08000D2D080018
:1000E0000D2D08000D2D08000D2D08005957080092
:1000F0006956080010B5054C237833B9044B13B189
:100100000448AFF300800123237010BD380407209A
:1001100000000000946F080008B5064B1BB10648AC
:100120000649AFF300800648036813B1054B03B1DD
:10013000984708BD00000000946F08003C040720A9
:10014000946F08000000000080B483B000AF7860B6
:100150007B685B6803F00203002B01D0012300E001
:10016000002318460C37BD465DF8047B704700BF7E
:1001700080B582B000AF78607868024B9847083746
:10018000BD4680BD6129080080B582B000AF7860AF
:100190007A68044B9A4202D11820034B98470837DB
:1001A000BD4680BD008000407101080080B483B06E
:1001B00000AF786039607B685B6823F470227B68ED
:1001C0005A607B685A683B681B0403F470231A4327
:1001D0007B685A600C37BD465DF8047B704700BFF2
:1001E00080B483B000AF786039607B685B6823F0CF
:1001F0007F427B685A607B685A683B681B061A43DB
:100200007B685A600C37BD465DF8047B704700BFC1
:1002100080B586B000AFF860B9607A6043F6982385
:100220007B6106E07B695A1E7A61002B01D10123B4
:100230001DE0FB681B6903F00103002BF2D0FB6893
:100240009A680D4B1A60F8680C4B98470346002BD0
:1002500007D0094B1B6803F470231B0CDAB27B68D0
:100260001A70054B1B689AB2BB681A8000235BB2F8
:1002700018461837BD4680BD5404072049010800C0
:1002800080B584B000AF786079807A703B7043F6B7
:100290009823FB6006E0FB685A1EFA60002B01D130
:1002A000012323E07B681B6903F00203002BF2D0DB
:1002B0007868114B98470346002B0ED07A887B78DC
:1002C0001B0403F470231343BB603B78002B06D060
:1002D000BB6843F08073BB6001E07B88BB607B68D8
:1002E000BA68DA603B20054B984700235BB218469A
:1002F0001037BD4680BD00BF4901080075230800C6
:1003000080B485B000AFF860B9607A607B68002B7C
:100310000CD0FB68BA680C3253F8223043F001016C
:10032000FB68BA680C3243F822100BE0FB68BA682D
:100330000C3253F8223023F00101FB68BA680C320A
:1003400043F822101437BD465DF8047B704700BFA8
:1003500080B485B000AFF860B9607A607B68002B2C
:100360000CD0FB68BA680C3253F8223043F002011B
:10037000FB68BA680C3243F822100BE0FB68BA68DD
:100380000C3253F8223023F00201FB68BA680C32B9
:1003900043F822101437BD465DF8047B704700BF58
:1003A00080B485B000AFF860B9607A607B68042BD8
:1003B00018D1FB68BA680C3253F8223023F00801D8
:1003C000FB68BA680C3243F82210FB68BA680C323A
:1003D00053F8223043F00401FB68BA680C3243F84A
:1003E00022102AE07B68002B18D1FB68BA680C3217
:1003F00053F8223023F00801FB68BA680C3243F846
:100400002210FB68BA680C3253F8223023F0040142
:10041000FB68BA680C3243F822100EE07B68082BA8
:100420000BD1FB68BA680C3253F8223043F0080154
:10043000FB68BA680C3243F822101437BD465DF8E9
:10044000047B704780B485B000AFF860B9607A6013
:10045000FB68BA680C3253F8223023F0F001FB68D5
:10046000BA680C3243F82210FB68BA680C3253F8B1
:1004700022207B6842EA0301FB68BA680C3243F829
:1004800022101437BD465DF8047B704780B485B0F8
:1004900000AF786039603A687B6813445A1E7B6805
:1004A000B2FBF3F3FB60FB68002B02DDFB68FF2B64
:1004B00002DD4FF6FF7301E0FB689BB21BB21846EA
:1004C0001437BD465DF8047B704700BF80B485B02B
:1004D00000AFF860B9601346FB71FB68BA680C3274
:1004E00053F8223023F47F41FB68BA680C3243F89A
:1004F0002210FB68BA680C3253F82220FB791B02E9
:100500009BB242EA0301FB68BA680C3243F822103E
:100510001437BD465DF8047B704700BF80B485B0DA
:1005200000AFF860B960FA71BB71FB68BA680C3251
:1005300053F8223099B2FB68BA680C3243F82210A3
:10054000FB68BA680C3253F82220FB791B0403F4D1
:100550007F01BB791B060B4342EA0301FB68BA68C3
:100560000C3243F822101437BD465DF8047B704707
:1005700090B585B004AF01230093002301930023BD
:100580000293002303930548054982224AF6CD339E
:10059000044CA04700BF0437BD4690BDA905080024
:1005A000D86D0800D940080090B58BB000AF7860D6
:1005B0007A684AF6CD339A4202D01A4B9847FEE742
:1005C0000F237B624FF0FF333B62032002210122A5
:1005D000154B9847F8611423BB6119237B61134BBA
:1005E0001B681846002102220023114CA047386ADC
:1005F000F969BA697B690F4CA04738610B4B1B68DE
:1006000018460021002200230B4CA0470B4B9847B3
:100610000346FB6007F10C031846796A084B9847BC
:10062000DDE700BF6533080041610800ACA6072084
:100630002D3C0800355B08006D39080015450800A1
:100640005942080090B585B004AF022300930023FF
:100650000193002302930023039305480549822256
:100660004AF6CD33044CA04700BF0437BD4690BDC9
:100670007D060800DC6D0800D940080090B58BB0FD
:1006800000AF78607A684AF6CD339A4202D0374B91
:100690009847FEE70F237B6214233B620A23FB612A
:1006A0004FF055333B61032002210222304B984723
:1006B0000346FB602F4B1B681846002102220023D3
:1006C0002D4CA0473A69FB68104619463A6AFB6907
:1006D0002A4CA047B861274B1B681846002100220E
:1006E0000023274CA047274B984703467B6107F11F
:1006F00014031846796A244B9847244B1B78002B27
:1007000016D007F10C0207F110031046194640F20B
:10071000D2421F4B9847B861BB69002B08D0FA68DA
:100720001C4B5A603A691B4B1A60184B00221A7016
:10073000194B1B78002B17D007F10C0207F110039F
:100740001046194640F2D242144B9847B861BB6933
:10075000002B09D0FA68124B5A603A69104B1A60A4
:100760000D4B00221A709BE79AE700BF6533080023
:1007700041610800ACA607202D3C0800355B08004D
:100780006D390800154508005942080070A6072079
:10079000E55B080044A607207CA60720315C080022
:1007A000F4A6072090B585B004AF01230093002381
:1007B00001930023029300230393054805498222F5
:1007C0004AF6CD33044CA04700BF0437BD4690BD68
:1007D000DD070800E06D0800D940080090B589B039
:1007E00000AF78607A684AF6CD339A4202D0164B51
:1007F0009847FEE70F23BB610023FB778023FB753F
:1008000019233B61114B1B6818460021022200236B
:100810000F4CA04738690F4B9847F8600B4B1B688B
:1008200018460021002200230B4CA0470B4B984791
:100830000346BB6007F108031846B969084B98479F
:10084000FB7F0133FB77DDE765330800ACA60720AB
:100850002D3C08007D5C08006D3908001545080036
:100860005942080080B582B000AF00237B600FE0E2
:100870000A4B7A6853F8223018464FF06051084B03
:10088000984778680021074B98477B6801337B6065
:100890007B68032BECD90837BD4680BDE46D0800AA
:1008A000D5230800A908080080B582B000AF7860A1
:1008B00039607B68032B23D87B68002B06D13B680B
:1008C000002B14BF00230123DBB23B603B68002BED
:1008D0000BD00D4B98470D4B7A6853F822301846D1
:1008E0000B4B98470B4B98470AE0074B9847074B31
:1008F0007A6853F822301846074B9847054B9847BB
:100900000837BD4680BD00BFE9320800E46D08002D
:10091000412308002D3308000D23080080B483B064
:1009200000AF0346FB71FA790C4BA3FB0213DB0803
:10093000DBB21B01D8B2FA79084BA3FB0213D9082A
:100940000B469B000B445B00D31ADBB20344DBB2C3
:1009500018460C37BD465DF8047B7047CDCCCCCC37
:1009600080B584B000AF0346FB80FB8818460E4B71
:10097000984700233B7200237B720023BB72012344
:100980003B730123FB7201237B730023FB8107F17F
:10099000080393E80300054B9847054B9847054B20
:1009A00098471037BD4680BDA10A0800B909080064
:1009B000010B08005D0B080080B588B000AF3B4616
:1009C00083E803003B783B747B787B74BB78BB7413
:1009D000FB78FB743B793B757B797B75FB88DBB2DD
:1009E000BB750023FB771FE0FB7F9BB28033BB838B
:1009F000FB7F07F12002134413F8103C18460D4BFF
:100A0000984703467B83BB8B1B029AB27B8B1343B5
:100A10009BB29BB2FB8107F10E0318460121064BE6
:100A20009847FB7F0133FB77FB7F062BDCD9203710
:100A3000BD4680BD1D090800690E080080B584B060
:100A400000AF02460B46FA80BB80FB881B029AB2BD
:100A5000BB8813439BB29BB2FB8107F10E03184680
:100A60000121024B98471037BD4680BD690E080032
:100A700080B584B000AF0346FB80FB881B029BB2AD
:100A8000BB8107F10C0318460121044B9847BB8931
:100A9000FB73FB7B18461037BD4680BD690E08000E
:100AA00080B582B000AF0346FB80FB888E201946DC
:100AB000024B98470837BD4680BD00BF3D0A08007D
:100AC00080B582B000AF0346FB80FB888F201946BB
:100AD000024B98470837BD4680BD00BF3D0A08005D
:100AE00080B582B000AF0F20044B98470346FB71DE
:100AF000FB7918460837BD4680BD00BF710A080063
:100B000080B582B000AF0023FB7113E0FB799BB28C
:100B10008B33BB80BB881B029BB243F080039BB22C
:100B20009BB27B80BB1C18460121054B9847FB7983
:100B30000133FB71FB79022BE8D90837BD4680BD34
:100B4000690E080080B500AF0620024B9847024BA3
:100B5000984780BDA10A08005D0B080080B582B0EF
:100B600000AF074B9847034623F00203FB71FB7964
:100B70009BB21846034B98470837BD4680BD00BF5F
:100B8000E10A0800C10A080080B500AF034B98478E
:100B9000034603F00203DBB2184680BDE10A0800F9
:100BA00080B483B000AF78607B68072B25D801A2A2
:100BB00052F823F0D50B0800DB0B0800E10B08000E
:100BC000E70B0800EB0B0800EF0B0800F30B080025
:100BD000F70B08004FF4FA4310E04FF400430DE028
:100BE0004FF400430AE0084B08E0084B06E0084BCE
:100BF00004E0074B02E0064B00E0002318460C37E8
:100C0000BD465DF8047B704700093D0000127A0084
:100C1000001BB70080B500AF0620044B9847024682
:100C20001346DB009B1A5B00184680BDA10B080031
:100C300080B500AF024B984703465B08184680BD5D
:100C4000150C080080B483B000AF78607B68802208
:100C50001A600C37BD465DF8047B704780B483B0E2
:100C600000AF78607B6801221A600C37BD465DF8E2
:100C7000047B704780B483B000AF78607B685B68AA
:100C800043F001027B685A600C37BD465DF8047B77
:100C9000704700BF80B483B000AF78607B685B684A
:100CA00023F002027B685A600C37BD465DF8047B76
:100CB000704700BF80B483B000AF78607B685B682A
:100CC00023F004027B685A600C37BD465DF8047B54
:100CD000704700BF80B483B000AF78607B685B680A
:100CE00043F010027B685A600C37BD465DF8047B08
:100CF000704700BF80B483B000AF78607B685B68EA
:100D000023F080027B685A600C37BD465DF8047B97
:100D1000704700BF80B483B000AF78607B681B6908
:100D200018460C37BD465DF8047B704780B584B02B
:100D300000AF0023FB600023FB720C4B7B600C4870
:100D40000C4B9847034603F00103002B0BD0FB1C10
:100D5000074809491A46094B98477B681B6843F0C6
:100D6000BB027B681A601037BD4680BD0C80004016
:100D700000800040150D08005804072011020800EB
:100D800098B500AF2448254B98472348244B9847F3
:100D90002148244B98472048234B98471E48234B13
:100DA00098471D480E21224B98471B48214B9847D6
:100DB0001948214B984718480021204B984716485E
:100DC0000021452202231E4CA04713480021802207
:100DD0001C4B98471C4B984703461C4819461C4B14
:100DE00098470346DBB20C4800211A46194B984736
:100DF000094800210422184B984707480021012286
:100E0000164B9847044800210022154B984702488A
:100E1000144B984798BD00BF00800040890108002E
:100E2000450C0800750C0800D50C0800F50C0800EE
:100E3000AD010800950C0800B50C0800E1010800A0
:100E40001D05080045040800310C080000093D009C
:100E50008D040800CD040800A10308000103080068
:100E6000510308005D0C080090B587B000AF7860B2
:100E700039607B683B6100237B6124E07B695B0018
:100E80003A6913441B881348194600220023124C68
:100E9000A04700BF0F48114B9847034603F00103DA
:100EA000002BF7D007F10F030A480D491A460D4BE6
:100EB00098477B695B003A691344094A12881A8093
:100EC0007B6901337B617A693B689A42D6D31C37D0
:100ED000BD4690BD0080004081020800150D08004D
:100EE0005A0407201102080080B584B000AF002327
:100EF000FB73084BBB600023FB80BB681B6843F09F
:100F0000BB02BB681A60044B984700BF1037BD4650
:100F100080BD00BF0C800040810D080090B585B0F9
:100F200004AF0123009300230193002302930023C5
:100F300003930548054982224AF6CD33044CA04765
:100F400000BF0437BD4690BD550F0800F46D080082
:100F5000D940080080B582B000AF78607A684AF660
:100F6000CD339A4202D0064B9847FEE7054B98478F
:100F70000346002B02D0044B9847F7E7F6E700BF83
:100F800065330800890B0800450B080080B483B066
:100F900000AF0346FB71084B97F907205209F97916
:100FA00001F01F01012000FA01F143F822100C3773
:100FB000BD465DF8047B704700E100E080B483B07B
:100FC00000AF78607B68072B25D801A252F823F088
:100FD000F10F0800F70F0800FD0F080003100800CC
:100FE000071008000B1008000F100800131008006D
:100FF0004FF4FA4310E04FF400430DE04FF4004388
:101000000AE0084B08E0084B06E0084B04E0074BF9
:1010100002E0064B00E0002318460C37BD465DF8A1
:10102000047B704700093D0000127A00001BB700E6
:1010300080B500AF0620044B984702461346DB00FC
:101040009B1A5B00184680BDBD0F080080B500AF3D
:10105000024B984703465B08184680BD31100800D4
:1010600080B582B000AF78607868024B9847083747
:10107000BD4680BD6129080080B584B000AF002363
:10108000BB6000237B600023FB730023BB733B48E2
:101090003B4B9847386058203A4B98473A4B1B785F
:1010A000002B67D13B6803F00103002B62D033486B
:1010B0003649374B9847354B1B68BB60BB68312BB3
:1010C00002D1344B01221A70BB68322B02D1324B51
:1010D00001221A702F4B1B78012B1ED1BB68002BED
:1010E0001BD0BB68312B18D0BB68322B15D02B4BD3
:1010F0001A782B4BA3FB0213D9080B469B000B4419
:101100005B00D31ADBB2BA68D1B2264AD154234B62
:101110001B780133DAB2214B1A701F4B1B78012B5D
:101120001DD11C4B1B78012B19D11F4B98471A4B13
:1011300000221A70174B00221A70184B00221A70E6
:101140000023BB7306E0BB7B164A0021D154BB7B56
:101150000133BB73BB7B092BF5D90123FB73FB7BED
:10116000002B05D1094B1B68044819460F4B9847C3
:101170000023FB731037BD4680BD00BF00800940CF
:10118000E12B080075230800600407205C04072099
:10119000652C080061040720620407207004072002
:1011A000CDCCCCCC64040720B1110800312C080050
:1011B00080B58AB000AF00233B620123FB610023AE
:1011C000FB760123BB7601237B7601233B7640F23D
:1011D00027137B601923FB757E4B3B6138697E4B7F
:1011E00098470346BB767D4B3B6138697A4B9847FD
:1011F00003467B767A4B3B613869774B98470346C9
:101200003B76BB7E012B40F08880764B7B620DE005
:101210007B6A1B783B6200BF7348396A734B9847FF
:101220000346002BF8D17B6A01337B627B6A1B7813
:10123000002BEDD16E4B7B620DE07B6A1B783B622D
:1012400000BF6948396A694B98470346002BF8D1BB
:101250007B6A01337B627B6A1B78002BEDD1654B87
:101260001B687B603B1D1846634B9847F8617B68A1
:10127000FB75FB7D1846614B98470346FB75FB7D6C
:101280001B01FB73FB7B1B09FB73FB7D1B09BB7302
:10129000FB7B3033FB73BB7B3033BB73FB69002BB1
:1012A0000AD02B233B6200BF4F48396A4F4B984707
:1012B0000346002BF8D109E02D233B6200BF4A48CA
:1012C000396A4A4B98470346002BF8D100BFBB7BD5
:1012D00045481946454B98470346002BF7D100BFB8
:1012E000FB7B41481946414B98470346002BF7D1F9
:1012F000434B7B620DE07B6A1B783B6200BF3A4840
:10130000396A3A4B98470346002BF8D17B6A013380
:101310007B627B6A1B78002BEDD17B7E012B14D185
:10132000384B7B620DE07B6A1B783B6200BF2E4826
:10133000396A2E4B98470346002BF8D17B6A01335C
:101340007B627B6A1B78002BEDD13B7E012B3DD16C
:101350002D4B7B620DE07B6A1B783B6200BF22480D
:10136000396A224B98470346002BF8D17B6A013338
:101370007B627B6A1B78002BEDD1244B1B68BB6022
:10138000BB68DBB2BB60BB68402B02D8BB685A2B82
:1013900007D800BF1448B968144B98470346002B80
:1013A000F8D11B4B7B620DE07B6A1B783B6200BF70
:1013B0000D48396A0D4B98470346002BF8D17B6ADC
:1013C00001337B627B6A1B78002BEDD100BF28378D
:1013D000BD4680BDF86D080015140800FC6D0800BE
:1013E000086E08000C6E080000800940312C0800CF
:1013F0002C6E080044A60720711408000915080087
:10140000486E0800506E08006C6E0800F4A60720B5
:10141000946E080080B485B000AF78600023FB7341
:101420000123BB737B68BB600023FB7314E0BB68C4
:101430001A78FB7B0D49CB5C9A4202D00023BB7328
:101440000DE0BB681B78002B00D108E0BB680133BE
:10145000BB60FB7B0133FB73FB7B092BE7D9BB7BB9
:1014600018461437BD465DF8047B704764040720B6
:1014700080B584B000AF78604FF00003FB607B68FC
:101480001B68BB60BB689B08BB601B4BB868984778
:101490000346FB60194BF8684FF0745198470346B8
:1014A000FB60174BF8684FF0000198470346002B8C
:1014B00009D0144BF86898470346BB607B68BA684C
:1014C0001A60012313E00C4BB8689847034683F079
:1014D00000420C4B104698470346BB60094BF86826
:1014E00098470346BB607B68BA681A6000231846B9
:1014F0001037BD4680BD00BF2D660800DD660800C0
:10150000416A0800696A080080B485B000AF0346EC
:10151000FB710023FB730023BB7300237B73FB79F8
:10152000092B19D9FA79104BA3FB0213D9080B46E2
:101530009B000B445B00D31ABB73FA790A4BA3FBE5
:101540000213DB08FB73FB7B1B01FB73FA7BBB7B8A
:1015500013437B737B7B00E0FB7918461437BD4651
:101560005DF8047B704700BFCDCCCCCCB0B586B065
:1015700000AF134B3C461D460FCD0FC495E803004A
:1015800084E8030011200F4B98470F4B9847034600
:101590003A460E4811461A460D4B98470B484FF0F5
:1015A000FF310C4B984709480B4B984707480B4BAA
:1015B000984711200A4B98471837BD46B0BD00BF69
:1015C000986E0800611008004D1008000080094066
:1015D000C52A0800C52B0800492B0800792B0800F4
:1015E0008D0F080080B584B000AF0023FB7300238B
:1015F0007B601A4B98471A4B00221A700023FB732A
:1016000006E0FB7B174A0021D154FB7B0133FB73BF
:10161000FB7B092BF5D914480121144B984712483C
:101620004FF48051124B9847124BBB600DE0BB68E2
:101630001B787B6000BF0C4879680F4B98470346C6
:10164000002BF8D1BB680133BB60BB681B78002B53
:10165000EDD100BF1037BD4680BD00BF6D1508003D
:10166000600407206404072000800940A92B0800BB
:10167000C52B0800B06E0800312C080080B582B080
:1016800000AF78607B68072B2ED801A252F823F0B8
:10169000E9160800B1160800B9160800C1160800BE
:1016A000C9160800D1160800D9160800E11608006E
:1016B00000200F4B984717E001200D4B984713E08F
:1016C00000200C4B98470FE010200A4B98470BE086
:1016D0002020084B984707E00020074B984703E07D
:1016E0000120054B984700BF0837BD4680BD00BFAD
:1016F00079270800E92708008928080080B582B00A
:1017000000AF78607B68072B26D801A252F823F03F
:10171000311708003517080035170800471708006B
:101720004717080047170800471708004717080021
:10173000012312E00B4B98470346002B0CBF0023FC
:101740000123DBB209E0084B98470346002B0CBF8E
:1017500000230123DBB200E0002318460837BD4612
:1017600080BD00BFB5270800F528080080B483B00D
:1017700000AF78607B68072B25D801A252F823F0D0
:10178000A1170800A7170800AD170800B317080035
:10179000B7170800BB170800BF170800C3170800D9
:1017A0004FF4FA4310E04FF400430DE04FF40043D0
:1017B0000AE0084B08E0084B06E0084B04E0074B42
:1017C00002E0064B00E0002318460C37BD465DF8EA
:1017D000047B704700093D0000127A00001BB7002F
:1017E00080B582B000AF0346FB7100BFFB7918469D
:1017F000054B9847034683F00103DBB2002BF5D17C
:101800000837BD4680BD00BFFD16080080B586B014
:1018100000AFF8607A603B600B46FB727B68002B80
:1018200007D13B68002B04D1FB684FF470021A60AB
:1018300019E0FB7A18460D4B984702467B68B2FBCD
:10184000F3F37B617B693A6802FB03F37B613B68DE
:10185000013B1A04064B13407A68D2B2134343F497
:101860007C52FB681A601837BD4680BD6D170800B2
:101870000000FF0780B582B000AF786039603B6838
:10188000002B08D1084B9847084B7A68126842F041
:1018900000529A6205E0054B7A68126842F4803281
:1018A000DA610837BD4680BD1129080000060E40E8
:1018B00080B582B000AF78607B68002B03D1054B08
:1018C0009847034602E0044B9847034618460837FA
:1018D000BD4680BD292908004529080080B582B091
:1018E00000AF0346FB71FB79033B042B08D8FB795F
:1018F0001846054B9847FB791846044B984700E07B
:1019000000BF0837BD4680BD7D160800E1170800FE
:1019100080B582B000AF786000BF7868044B98470C
:101920000346002BF9D0002318460837BD4680BD7A
:10193000B118080080B500AF0620044B9847024656
:101940001346DB009B1A5B00184680BD6D1708002C
:1019500080B500AF024B984703465B08184680BD30
:101960003519080090B583B000AF104B9847034677
:1019700018460F4B984706200E4B98473B1D1846BC
:10198000062101220E230C4CA0473B1D18460021C6
:101990000A4B984700200A4B98471020094B98475C
:1019A00000BF094B98470C37BD4690BD5119080040
:1019B0003D2F0800DD1808000D18080075180800F4
:1019C00011190800F5260800BD2D080080B500AFEC
:1019D000164B4FF400425A6001204FF00061144B47
:1019E000984700204FF00061114B984734204FF08A
:1019F00040510F4B984735204FF040510C4B9847C2
:101A00002F204FF000610A4B98472E204FF00061C5
:101A1000074B98478F204FF04051054B9847902037
:101A20004FF04051024B984700BF80BD501A0E4006
:101A3000D523080080B500AF57204FF04051254B0B
:101A400098475720244B98473B204FF06051214B3B
:101A5000984755204FF060511E4B984756204FF045
:101A600060511C4B984787201C491A4B98473720D8
:101A70001B49184B98471B484FF440714FF00062C8
:101A8000194B984719204FF00061124B98471A20C4
:101A90004FF000610F4B98471B204FF000610D4B3A
:101AA00098471C204FF000610A4B98470A204FF0DE
:101AB0000061084B98470B204FF00061054B984799
:101AC0008E204FF04051034B98478E20074B98478C
:101AD00080BD00BFD52308000D2308007900002831
:101AE00059000028000E0E4011250800412308006F
:101AF00080B483B000AF786039607B683A681A6060
:101B00000C37BD465DF8047B704700BF80B483B0DE
:101B100000AF786039607B683A685A600C37BD4620
:101B20005DF8047B704700BF80B582B000AF78607D
:101B30007B685B681846024B98470837BD4680BDF6
:101B40000D23080080B582B000AF78607B681B6809
:101B50001846024B98470837BD4680BD4123080010
:101B600080B58AB000AFF860B9607A607B6846F2F1
:101B7000A81202FB03F2BB6813445A1E7B6846F2AC
:101B8000A81101FB03F3B2FBF3F3802B01D900236F
:101B900085E0BB685A087B684FF4FA5101FB03F3F8
:101BA0009A4201D200237AE0082387F827304FF0C9
:101BB000FF333B620823FB772BE0FB7F7A6802FB55
:101BC00003F34FF47A7202FB03F3BA68B2FBF3F348
:101BD000802B1BD8FB7F7A6802FB03F34FF47A72E9
:101BE00002FB03F2BB68B3FBF2F102FB01F29B1AAA
:101BF000BB61BA693B6A9A4208D2BB693B62FB7F10
:101C000087F827303B6A002B00D105E0FB7F0133CA
:101C1000FB77FB7F192BD0D997F827307A6802FB26
:101C200003F34FF47A7202FB03F3BA68B2FBF3F3E7
:101C3000FB75FB7D012B01D8002330E097F827309E
:101C4000A3F1080213465B0013445B00164A1344D9
:101C50003B61F868154B98473B69DB78013B03F023
:101C600007023B699B78013B1B0103F070031A4399
:101C70003B695B78013B1B0203F4E0631A433B6959
:101C80001B79013B1B0303F440531A43FB7D013BCB
:101C90001B0403F4FE031A43FB685A610123184630
:101CA0002837BD4680BD00BFD06E0800591D080012
:101CB00080B586B000AFF860B9607A60F868B9683E
:101CC0007A68174B984778617B69002B01D1002314
:101CD00021E0F868134B9847F868134B98470023A6
:101CE0007B6100233B6106E0F868104B9847786100
:101CF0003B6901333B617B6903F40013002B03D183
:101D00003A690B4B9A42EFD93A690A4B9A4201D190
:101D1000002300E0012318461837BD4680BD00BFF0
:101D2000611B0800F1200800391D0800B11D0800E2
:101D30009F860100A086010080B483B000AF786068
:101D40007B681B6843F001027B681A600C37BD4654
:101D50005DF8047B704700BF80B483B000AF78604B
:101D60007B681B6823F001027B681A600C37BD4654
:101D70005DF8047B704700BF80B483B000AF78602B
:101D800039607B683A685A600C37BD465DF8047B61
:101D9000704700BF80B483B000AF786039607B6863
:101DA0003A689A600C37BD465DF8047B704700BF07
:101DB00080B483B000AF78607B681B6918460C372D
:101DC000BD465DF8047B704780B485B000AF786095
:101DD0000B46FB707B685B6A23F0FF03FB60FA78BD
:101DE000FB681A437B685A621437BD465DF8047B72
:101DF000704700BF80B483B000AF78600B46FB70C3
:101E0000FB787A685B01134403F504731B6818467A
:101E10000C37BD465DF8047B704700BF80B485B0C9
:101E200000AF786039603B681B68FB73FB7B3A68E6
:101E30009279120402F4702242F4000279685B0184
:101E40000B4403F506735A601437BD465DF8047BF6
:101E5000704700BF80B485B000AF786039603B68E0
:101E60001B68FB733B681B79002B2ED1FB7B7A68C8
:101E700010335B01134400221A60FB7B7A68103335
:101E80005B01134400225A60FB7B7A685B011344B8
:101E900003F5027300221A60FB7B7A685B0113442E
:101EA00003F5047300225A60FB7B7A685B011344DC
:101EB00003F5067300221A60FB7B7A685B0113440A
:101EC00003F5067300225A604EE0FB7BFA7B7968CB
:101ED000103252010A44126822F470213A68D27911
:101EE00012040A43796810335B010B441A603B68A3
:101EF0005B79002B15D0FB7B3A68D26842F0005228
:101F0000796810335B010B445A60FB7B3A681269B5
:101F100042F0005279685B010B4403F502731A60CA
:101F200010E0FB7B3A68D268796810335B010B44A0
:101F30005A60FB7B3A68126979685B010B4403F5D0
:101F400002731A60FB7BFA7B7968103252010A44F3
:101F5000126822F0E0613A68127912060A43796841
:101F600010335B010B441A601437BD465DF8047BE7
:101F7000704700BF80B586B000AF7860396000233D
:101F80007B613B681B68FB743B689B68FB60FB687C
:101F900003F40003002B06D0FB6803F08073002BD2
:101FA00001D002237B61FB7C7A685B01134403F55B
:101FB00002735B6823F060423B685A61FB6803F47C
:101FC00070231B0CDAB23B689A71FB7C7A685B0168
:101FD000134403F504735A683B689A613B689B7924
:101FE000042B08D9FB7C7A685B01134403F5067364
:101FF0001A683B68DA61FB7C7A685B01134403F57D
:1020000004731A683B689A603B689B68FB60FB68D6
:1020100003F08073002B03D07B6943F004037B61E2
:1020200078683968034B98477B6918461837BD466E
:1020300080BD00BF1D1E080080B584B000AF786071
:1020400039603B681B68FB73FB7B78681946274B3C
:10205000984702463B689A603B689B68BB60BB68D8
:1020600003F40003002B01D101233BE03B685B79C3
:10207000002B0BD0FB7B3A68126942F00052796862
:102080005B010B4403F502731A6008E0FB7B3A68BE
:10209000126979685B010B4403F502731A60FB7BDC
:1020A0003A68926979685B010B4403F504735A60DE
:1020B0003B689B79042B08D9FB7B3A68D269796825
:1020C0005B010B4403F506731A60FB7B3A68927957
:1020D000120402F4702279685B010B4403F5067365
:1020E0005A60002318461037BD4680BDF51D080014
:1020F00080B58CB000AF786000233B74002387F874
:102100002F300DE097F82F30FB6007F10C03786853
:102110001946074B984797F82F30013387F82F302F
:1021200097F82F30072BEDD93037BD4680BD00BF63
:10213000551E080080B485B000AFF860B9607A60C1
:102140007B68002B03D0FB68BA685A6602E0FB6824
:10215000BA681A661437BD465DF8047B704700BF45
:1021600080B487B000AFF860B9607A60FB687A68C5
:102170005A64BB68B3F1805F1FD0B3F1805F05D8AC
:10218000002B27D0B3F1006F0AD01FE0B3F1405FFE
:1021900020D0B3F1605F1DD0B3F1205F1AD015E0FD
:1021A000FB681B6F7B61FB681A6F7B68D9437B6997
:1021B0000B401A40FB681A6708E0FB681B6F7B61E5
:1021C0007A687B691A43FB681A6700BFFB687A6804
:1021D0005A6000E000BF1C37BD465DF8047B7047C5
:1021E00080B584B000AFF860B9607A60F868B9680B
:1021F000184B98477B6803F00103F868B9681A46E2
:10220000154B98477B6803F00A03002B03D0FB684B
:10221000BA681A6202E0FB68BA685A627B6803F027
:102220000203002B04D0FB68BA68C3F8802008E0E2
:102230007B6803F00803002B03D0FB68BA68C3F87F
:102240008020FB68BA685A61FB68BA681A60103768
:10225000BD4680BDC12208003521080080B584B08C
:1022600000AFF860B9607A603B60F868B968124BFB
:102270009847F868B968BA69104B98473B68002BD3
:1022800003D0FB68BA681A6502E0FB68BA685A6551
:102290007B68002B03D0FB68BA681A6302E0FB6816
:1022A000BA685A63FB68BA681A61FB68BA681A6050
:1022B0001037BD4680BD00BFC1220800352108008F
:1022C00080B483B000AF786039607B683A685A6444
:1022D0000C37BD465DF8047B704700BF80B483B007
:1022E00000AF78607B68DB6C18460C37BD465DF844
:1022F000047B704780B483B000AF78607B689B6CD0
:1023000018460C37BD465DF8047B704780B485B035
:1023100000AF78607B685B0903F5001303F2077375
:102320005B02FB607B6803F01F03012202FA03F3E8
:102330001A46FB681A631437BD465DF8047B704784
:1023400080B485B000AF78607B685B0903F500134B
:1023500003F207735B02FB607B6803F01F0301223B
:1023600002FA03F31A46FB685A631437BD465DF858
:10237000047B704780B485B000AF78607B685B09F0
:1023800003F5001303F207735B02FB60FB689A6BB3
:102390007B6803F01F03012101FA03F31340002BB4
:1023A00009D07B6803F01F03012202FA03F31A46E7
:1023B000FB685A6308E07B6803F01F03012202FAFE
:1023C00003F31A46FB681A631437BD465DF8047BB5
:1023D000704700BF90B587B002AF786039607B6806
:1023E0005B0903F5001303F207735B02FB603B68B4
:1023F00003F0F043B3F1205F48D0B3F1205F06D87B
:10240000B3F1006F0AD0B3F1805F23D070E0B3F175
:10241000405F47D0B3F1605F44D069E07B6803F070
:102420001F03012202FA03F3F8684FF000611A4615
:10243000334B98477B6803F01F03012202FA03F332
:102440001A463B6803F00103F86811461A462D4B03
:1024500098474FE07B6803F01F03012202FA03F361
:10246000F8684FF080511A46254B98477B6803F077
:102470001F03012202FA03F31A463B6803F001032B
:10248000F86811461A461F4B984733E07B6803F003
:102490001F03012202FA03F3F86819463A681A4B3F
:1024A000984727E07B6803F01F03012202FA03F339
:1024B00019463B6803F06053B3F1605F14BF00231B
:1024C0000123DBB21A463B6803F00403002B0CBF68
:1024D00000230123DBB2386800F0010000280CBFA4
:1024E00000200120C0B20090F868084CA04701E02D
:1024F000002300E0012318461437BD4690BD00BFFD
:102500006121080035210800E12108005D22080052
:1025100090B587B002AFF860B9607A607B6803F06D
:10252000F043B3F1205F2ED0B3F1205F06D8B3F1B2
:10253000006F0AD0B3F1805F16D04AE0B3F1405F7C
:1025400027D0B3F1605F24D043E0F8684FF000611A
:10255000BA68234B98477B6803F00103F868B968B1
:102560001A46204B984736E0F8684FF08051BA6819
:102570001B4B98477B6803F00103F868B9681A465B
:10258000184B984727E0F868B9687A68164B98475F
:1025900021E07B6803F06053B3F1605F14BF002358
:1025A0000123DBB21A467B6803F00403002B0CBF47
:1025B00000230123DBB2796801F0010100290CBF7F
:1025C00000210121C9B20091F868B968074CA04701
:1025D00001E0002300E0012318461437BD4690BDFA
:1025E0006121080035210800E12108005D22080072
:1025F00080B584B000AF786039607868224B984726
:10260000F8607868214B98470346FA681340FB60EE
:10261000FB68002B35D00023BB602FE01C4ABB6851
:102620001B0113441A683B689A4224D1184ABB68BC
:102630001B0113445A68FB681340002B1BD0144A3B
:10264000BB681B01134408335B681149BA68120167
:102650000A4411680E48BA681201024452680846DA
:10266000114698470A4ABB681B0113445B68DB4369
:10267000FA681340FB60BB680133BB60FB68002B4A
:10268000CCD11037BD4680BDDD220800F522080000
:102690007404072080B500AF02480B21024B984715
:1026A00080BD00BF000E0E40F125080080B500AFD0
:1026B00002480C21024B984780BD00BF00100E401D
:1026C000F125080080B500AF02480D21024B984764
:1026D00080BD00BF00120E40F125080080B500AF9C
:1026E00002480E21024B984780BD00BF00140E40E7
:1026F000F125080080B485B000AF78601D4B1D4AFD
:10270000126B22F070017A680A431A634FF4006377
:10271000FB6007E0FB68002B01D1012323E0FB688D
:10272000013BFB60134B9B6E03F00803002BF1D0C1
:10273000104B104A126B22F0030242F002021A639D
:102740004FF40063FB6007E0FB68002B01D101231D
:1027500009E0FB68013BFB60064B9B6E03F008033E
:10276000002BF1D0002318461437BD465DF8047BDA
:10277000704700BF00060E4080B483B000AF7860A1
:102780007B68012B07D10A4A094B9B6843F025431C
:1027900043F480139360064A054B1B6843F02543BE
:1027A00043F0080313600C37BD465DF8047B7047A7
:1027B000101A0E4080B400AF094B5B6903F0800330
:1027C000002B07D0074B9B6E03F08003002B01D03A
:1027D000012300E000231846BD465DF8047B7047E6
:1027E000101A0E4000060E4080B485B000AF78602D
:1027F0000023FB60214B1B6A03F00103002B0ED06A
:102800001E4A1E4B1B6A23F45C1323F0780379687D
:102810000B4343F45C1343F0080313620BE0012302
:10282000FB60164A154B196A154B0B407968194322
:10283000144B0B43136200BF104B9B6E03F4003329
:10284000002BF9D00D4A0D4B1B6A23F09B7323F428
:10285000803343F45C131362FB68002B09D0074AF2
:10286000064B1B6A23F45C1323F0010343F45C134F
:1028700013621437BD465DF8047B704700060E40B6
:1028800086C0C8FF093F370080B483B000AF7860CE
:102890007B68002B08D01249114B1B6A114A1A4061
:1028A000114B13430B6216E00D490D4B1B6A0F4A87
:1028B0001A400F4B13430B6200BF094B9B6E03F092
:1028C0000103002BF9D0064A054B1B6A43F09B73AA
:1028D00043F4803313620C37BD465DF8047B7047C8
:1028E00000060E40FCFFC8FE02003701FCC0C8FF16
:1028F000013F370080B400AF044B9B6E03F480337C
:102900001846BD465DF8047B704700BF00060E40C8
:1029100080B400AF034B4FF000529A62BD465DF8A1
:10292000047B704700060E4080B400AF044B9B6EE2
:1029300003F002031846BD465DF8047B704700BFF4
:1029400000060E4080B400AF044B9B6E03F04003C2
:102950001846BD465DF8047B704700BF00060E4078
:1029600080B483B000AF78607B682C2B01D9012341
:102970002FE07B681F2B13D8194B9A697B680121C4
:1029800001FA03F31A407B68012101FA03F39A422A
:102990001ED0134B7A68012101FA02F21A6117E086
:1029A0007B68203B7B600E4BD3F808217B680121BC
:1029B00001FA03F31A407B68012101FA03F39A42FA
:1029C00006D0074B7A68012101FA02F2C3F8002110
:1029D000002318460C37BD465DF8047B704700BFE6
:1029E00000060E4080B489B000AFF860B9607A602C
:1029F000BB681A017B689A4202D81023FB6101E090
:102A00000823FB617B68DA00FB69B96801FB03F30B
:102A10005B081A44FB69B96801FB03F3B2FBF3F3EB
:102A2000BB61BB69DB087B61BB6903F007033B61EA
:102A30007B69002B03D07B69B3F5803F01D3012371
:102A40000FE0FB69082B05D1FB685B6843F40022AB
:102A5000FB685A603B691A047B691A43FB681A6277
:102A6000002318462437BD465DF8047B704700BF3D
:102A700080B582B000AF786078680D4B98477B686E
:102A800000225A607B6800225A627B6800229A62A8
:102A90007868084B98477868074B98477868074BE1
:102AA00098477868064B98470837BD4680BD00BFF9
:102AB000AD2C0800612B0800912B0800F92B0800B1
:102AC000152C080080B584B000AFF860B9607A605A
:102AD000F8681A4B98471A4B00221A60BB68002B03
:102AE00009D0BB681B68F86819467A68154B984787
:102AF0000346002B01D001231BE0BB685A68BB686A
:102B00009B681A43BB681B691A43BB68DB681A439E
:102B10000B4B1B681A430A4B1A60094B1A68084B87
:102B20001A60FB685A68064B1B681A43FB685A60B8
:102B3000002318461037BD4680BD00BF712A08002B
:102B4000E4040720E529080080B483B000AF786072
:102B50007B6840221A600C37BD465DF8047B7047E5
:102B600080B483B000AF78607B6888221A600C372D
:102B7000BD465DF8047B704780B483B000AF7860D9
:102B80007B6810221A600C37BD465DF8047B7047E5
:102B900080B483B000AF78607B6824221A600C3761
:102BA000BD465DF8047B704780B483B000AF7860A9
:102BB00039607B683A689A600C37BD465DF8047BE3
:102BC000704700BF80B483B000AF786039607B6825
:102BD0003A68DA600C37BD465DF8047B704700BF89
:102BE00080B483B000AF78607B685B6918460C37AF
:102BF000BD465DF8047B704780B483B000AF786059
:102C00007B684FF480721A600C37BD465DF8047B18
:102C1000704700BF80B483B000AF78607B684FF42A
:102C200000221A600C37BD465DF8047B704700BF78
:102C300080B483B000AF786039607B685B6903F073
:102C40000203002B01D1012305E03B68C3F3080216
:102C50007B68DA61002318460C37BD465DF8047BBB
:102C6000704700BF80B485B000AF786039604FF422
:102C70007A73FB6006E0FB685A1EFA60002B01D1F4
:102C800001230CE07B685B6903F00103002BF2D0A9
:102C90007B689B69C3F308023B681A6000231846EF
:102CA0001437BD465DF8047B704700BF80B483B025
:102CB00000AF78607B68044AC3F8E4200C37BD4657
:102CC0005DF8047B704700BF0041535580B483B06A
:102CD00000AF78607A68054B9A4202D17B68044A5B
:102CE0001A600C37BD465DF8047B7047501A0E40E1
:102CF000010000A580B483B000AF78607B689B685A
:102D000018460C37BD465DF8047B704780B400AFB1
:102D1000FEE700BF80B582B000AF1E4B7B601E4B4C
:102D20003B607A683B689A420CD007E03B681A1D0A
:102D30003A607A68111D796012681A603A68174B18
:102D40009A42F3D3164B3B6004E03B681A1D3A608D
:102D500000221A603A68134B9A42F6D3124B7B60FA
:102D6000124A7B6823F0604323F07F0393607B6803
:102D7000B3F1005F09D37A680D4B9A4205D80B4B2B
:102D80000A4A926842F000529A600A4B98470A4BEE
:102D90009847FEE7946F08000000072038040720DA
:102DA0003804072028A707200000080000ED00E0F5
:102DB000FFFF0F20A96A08007D62080080B400AF01
:102DC000564B1B6B03F00303032B00F28A8001A117
:102DD00051F823F0E52D0800052E0800552E0800B7
:102DE000552E08004E4B5B6903F08003002B04D086
:102DF0004C4B4FF400421A6073E04A4B4FF4FA42D6
:102E00001A606EE0454B1B6A03F08073002B03D001
:102E1000444B454A1A601CE0424B444A1A603F4BFF
:102E20001B6A03F07003102B04D0202B08D0002B5A
:102E30000ED00EE03B4B1B685A003A4B1A6008E07C
:102E4000384B1A6813465B001A44364B1A6000E090
:102E500000BF46E0314B1B6A03F08073002B03D0A8
:102E6000304B314A1A601CE02E4B304A1A602B4B13
:102E70001B6A03F07003102B04D0202B08D0002B0A
:102E80000ED00EE0274B1B685A00264B1A6008E054
:102E9000244B1A6813465B001A44224B1A6000E068
:102EA00000BF1E4B1B6B03F00303022B15D11B4B02
:102EB0009A6A1F4B13401B0C01331A4A126802FB1B
:102EC00003F2184B1A60174B1A68144B9B6ADBB25B
:102ED000B2FBF3F2134B1A6002E0124B154A1A6070
:102EE00000BF0E4B1B6B03F07003702B08D10D4B12
:102EF0001A68114BA3FB02135A080A4B1A6009E027
:102F0000084B1A68054B1B6B03F070031B09DA4072
:102F1000044B1A60BD465DF8047B704700060E4006
:102F2000101A0E4000000720001BB70000093D00EA
:102F30000000FF07001C4E0EABAAAAAA80B483B003
:102F400000AF78607A681F4B9A4206D81E4B002269
:102F50001A601E4B00221A602EE07A681C4B9A42BF
:102F600008D8194B4FF480721A60184B4FF48072D6
:102F70001A6021E07A68174B9A4208D8124B4FF436
:102F800000721A60114B4FF400721A6014E07A68F4
:102F9000114B9A4208D80C4B4FF440721A600B4BFD
:102FA0004FF440721A6007E0074B4FF480621A60DA
:102FB000064B4FF480621A600C37BD465DF8047B07
:102FC000704700BF9F525701000A0E40000C0E4090
:102FD0007FCC06023FB728037F2FA60480B483B0BE
:102FE00000AF78607B6803F108027B685A607B68F9
:102FF0004FF0FF329A607B6803F108027B68DA6069
:103000007B6803F108027B681A617B6800221A6002
:103010000C37BD465DF8047B704700BF80B483B0B9
:1030200000AF78607B6800221A610C37BD465DF8FE
:10303000047B704780B485B000AF786039607B68EE
:103040005B68FB603B68FA685A60FB689A683B689B
:103050009A60FB689B683A685A60FB683A689A60B5
:103060003B687A681A617B681B685A1C7B681A6027
:103070001437BD465DF8047B704700BF80B485B04F
:1030800000AF786039603B681B68BB60BB68B3F118
:10309000FF3F03D17B681B69FB600CE07B68083352
:1030A000FB6002E0FB685B68FB60FB685B681A68BA
:1030B000BB689A42F6D9FB685A683B685A603B681D
:1030C0005B683A689A603B68FA689A60FB683A689D
:1030D0005A603B687A681A617B681B685A1C7B6877
:1030E0001A601437BD465DF8047B704780B485B024
:1030F00000AF78607B681B69FB607B685B687A68FF
:1031000092689A607B689B687A6852685A60FB682C
:103110005A687B689A4203D17B689A68FB685A6058
:103120007B6800221A61FB681B685A1EFB681A60E4
:10313000FB681B6818461437BD465DF8047B704772
:1031400080B485B000AFF860B9607A60FB68043B7A
:10315000FB60FB684FF080721A60FB68043BFB6009
:10316000BA68FB681A60FB68043BFB60094AFB68AD
:103170001A60FB68143BFB607A68FB681A60FB68A6
:10318000203BFB60FB6818461437BD465DF8047BA6
:10319000704700BF9931080080B500AF054B1B6830
:1031A000B3F1FF3F02D0044B9847FEE7024B98472C
:1031B000FEE700BF0400072065330800074B1968CD
:1031C0000868B0E8F00F80F30988BFF36F8F4FF005
:1031D000000080F311884EF00D0E704708A50720FF
:1031E00006480068006880F3088862B661B6BFF3DD
:1031F0004F8FBFF36F8F00DF00BF000008ED00E0CE
:1032000080B584B000AF284BFB60FB681B78DBB255
:10321000BB60FB68FF221A70FB681B78DBB2FB7196
:10322000FB79DBB223F05F03DAB2204B1A70204B3C
:1032300007221A6009E01E4B1B685A1E1C4B1A60BD
:10324000FB79DBB25B00DBB2FB71FB79DBB2DBB29B
:103250005BB2002BEFDB164B1B681A02144B1A6093
:10326000134B1B6803F4E062114B1A60BB68DAB2BF
:10327000FB681A700F4B0F4A126842F470021A6012
:103280000C4B0C4A126842F070421A600A4B984785
:103290000A4B00221A600A4B98470A4B98470023B2
:1032A00018461037BD4680BD00E400E0E804072062
:1032B000EC04072020ED00E0F933080004000720AB
:1032C000E13108009931080080B400AF054B4FF0A0
:1032D00080521A60BFF34F8FBFF36F8FBD465DF80A
:1032E000047B704704ED00E080B500AF0C4B9847BD
:1032F0000C4B1B685A1C0B4B1A60BFF34F8FBFF36C
:103300006F8F084B1B68012B08D1074B1B6803F01C
:103310001F03002B02D0024B9847FEE780BD00BF81
:10332000653308000400072004ED00E080B500AF1D
:10333000094B1B68002B02D1084B9847FEE7064B50
:103340001B685A1E044B1A60034B1B68002B02D1EA
:103350000020034B984780BD040007206533080018
:1033600079330800EFF311804FF0A00181F3118849
:1033700070470023184600BF80F31188704700BFD4
:10338000EFF30980BFF36F8F0D4B1A6820E9F00F40
:1033900010602DE908404FF0A00080F3118801F083
:1033A0008DF94FF0000080F31188BDE808401968DE
:1033B0000868B0E8F00F80F30988BFF36F8F70479B
:1033C00008A5072080B500AF074B9847074B9847E3
:1033D0000346002B03D0064B4FF080521A600020AA
:1033E000044B984780BD00BF653308004145080085
:1033F00004ED00E07933080080B400AF074B084AC1
:103400001168084AA2FB0102D208013A1A60064B71
:1034100007221A60BD465DF8047B704714E000E0A7
:1034200000000720CDCCCCCC10E000E080B582B00D
:1034300000AFEFF305837B607B680F2B0CD90D4A3F
:103440007B6813441B78FB700B4B1B78FA789A420D
:1034500002D20A4B9847FEE7094B1B6803F4E0626F
:10346000084B1B689A4202D9044B9847FEE708377D
:10347000BD4680BDF0E300E0E804072065330800A6
:103480000CED00E0EC04072080B586B000AF78605A
:103490000023FB604F4B98474F4B1B68002B01D11B
:1034A0004E4B98474E4B1A687B681340002B7DD1DA
:1034B0007B68002B15D008237A6813447B607B68F7
:1034C00003F00703002B0CD07B6823F007030833BD
:1034D0007B607B6803F00703002B02D0414B9847C9
:1034E000FEE77B68002B61D03F4B1B687A689A42ED
:1034F0005CD83E4B3B613D4B1B687B6104E07B69C4
:103500003B617B691B687B617B695A687B689A4277
:1035100003D27B691B68002BF1D12F4B1B687A69A2
:103520009A4243D03B691A6808231344FB607B69C5
:103530001A683B691A607B695A687B68D21A08234B
:103540005B009A4217D97A697B681344BB60BB68F9
:1035500003F00703002B02D0224B9847FEE77B695C
:103560005A687B68D21ABB685A607B697A685A606D
:10357000B8681F4B98471C4B1A687B695B68D21A66
:10358000194B1A60184B1A681A4B1B689A4203D2DF
:10359000154B1A68174B1A607B695A68104B1B68E9
:1035A0001A437B695A607B6900221A60124B984764
:1035B000FB68002B01D1114B9847FB6803F0070310
:1035C000002B02D0074B9847FEE7FB6818461837D8
:1035D000BD4680BDD5430800F8A40720A5360800E5
:1035E00004A5072065330800FCA40720F0A40720E9
:1035F0006937080000A50720F1430800C5630800EB
:1036000080B584B000AF78607B68FB607B68002B7E
:1036100038D008235B42FA681344FB60FB68BB6048
:10362000BB685A68194B1B681340002B02D1184B1A
:103630009847FEE7BB681B68002B02D0144B9847E5
:10364000FEE7BB685A68114B1B681340002B19D06A
:10365000BB681B68002B15D1BB685A680B4B1B68F5
:10366000DB431A40BB685A600A4B9847BB685A68EC
:10367000094B1B681A44084B1A60B868074B9847F7
:10368000074B98471037BD4680BD00BF04A50720F3
:1036900065330800D5430800FCA4072069370800FB
:1036A000F143080080B485B000AF4FF42043BB6005
:1036B000274BFB60FB6803F00703002B0CD0FB6873
:1036C0000733FB60FB6823F00703FB60BA68FB6805
:1036D000D21A1F4B1344BB60FB687B601D4B7A689A
:1036E0001A601C4B00225A607A68BB681344FB6066
:1036F0000823FA68D31AFB60FB6823F00703FB601A
:10370000FA68154B1A60144B1B6800225A60124B62
:103710001B6800221A607B683B603B68FA68D21A1B
:103720003B685A600C4B1A683B681A603B685A68E1
:103730000A4B1A603B685A68094B1A60094B4FF0F4
:1037400000421A601437BD465DF8047B704700BF25
:10375000F0040720F0A40720F8A4072000A5072004
:10376000FCA4072004A5072080B485B000AF7860D2
:10377000274BFB6002E0FB681B68FB60FB681A6874
:103780007B689A42F7D3FB68BB60FB685B68BA68EA
:103790001A447B689A4208D1FB685A687B685B6868
:1037A0001A44FB685A60FB687B607B68BB607B687F
:1037B0005B68BA681A44FB681B689A4218D1FB68B8
:1037C0001A68144B1B689A420DD07B685A68FB68D4
:1037D0001B685B681A447B685A60FB681B681A6840
:1037E0007B681A6008E00B4B1A687B681A6003E07C
:1037F000FB681A687B681A60FA687B689A4202D094
:10380000FB687A681A601437BD465DF8047B704720
:10381000F0A40720F8A4072080B584B000AF78603A
:1038200039607B68FB60FB68002B02D1264B984710
:10383000FEE7264B9847FB681A68FB68DB6BF96864
:10384000096C01FB03F31A44FB685A60FB68002211
:103850009A63FB681A68FB689A60FB681A68FB68E1
:10386000DB6B013BF968096C01FB03F31A44FB684D
:10387000DA60FB684FF0FF325A64FB684FF0FF32AA
:103880009A643B68002B0ED1FB681B69002B14D097
:10389000FB68103318460E4B98470346012B0CD19A
:1038A0000C4B984709E0FB68103318460A4B9847C1
:1038B000FB6824331846084B9847084B9847012368
:1038C00018461037BD4680BD65330800E932080050
:1038D000D9480800C9320800DD2F08002D33080040
:1038E00080B588B000AFF860B9601346FB71002363
:1038F000FB61FB68002B26D04C20184B9847B86121
:10390000BB69002B1FD0FB68BA6802FB03F30133CD
:103910007B617869114B98470246BB691A60BB69A5
:103920001B68002B0CD0BB69FA68DA63BB69BA6804
:103930001A64B86901210A4B9847BB69FB6102E030
:10394000B869084B9847FB69002B02D1064B984792
:10395000FEE7FB6918462037BD4680BD8934080064
:1039600019380800013608006533080080B58AB0B0
:1039700000AFF860B9607A603B6000237B62FB684F
:103980003B623B6A002B02D15B4B9847FEE7BB686A
:10399000002B03D13B6A1B6C002B01D1012300E0FB
:1039A0000023002B02D1544B9847FEE73B68022BC3
:1039B00003D13B6ADB6B012B01D1012300E0002323
:1039C000002B02D14C4B9847FEE74C4B98470346DF
:1039D000002B02D17B68002B01D1012300E00023E2
:1039E000002B02D1444B9847FEE7454B98473B6A72
:1039F0009A6B3B6ADB6B9A4202D33B68022B1DD168
:103A0000386AB9683A683F4B9847F8613B6A5B6A25
:103A1000002B0AD03B6A243318463B4B9847034699
:103A2000012B07D1394B984704E0FB69002B01D0EB
:103A3000364B9847364B9847012359E07B68002B5B
:103A400003D1334B9847002352E07B6A002B06D109
:103A500007F1140318462F4B984701237B622C4B28
:103A600098472D4B9847264B98473B6A5B6CB3F1C0
:103A7000FF3F02D13B6A00225A643B6A9B6CB3F160
:103A8000FF3F02D13B6A00229A64214B984707F11D
:103A900014023B1D10461946204B98470346002B45
:103AA0001ED1386A1E4B98470346002B12D03B6A42
:103AB00003F110027B68104619461A4B9847386A82
:103AC000194B9847194B98470346002B0FD10F4BC2
:103AD00098470CE0386A144B9847144B984784E792
:103AE000386A114B9847114B9847002300E07CE758
:103AF00018462837BD4680BD65330800B14D080023
:103B0000E9320800293E0800D9480800C9320800F7
:103B10002D33080099490800D5430800D149080011
:103B200039400800B94708005D3F0800F14308002C
:103B300080B588B000AFF860B9607A603B60FB6820
:103B4000BB61BB69002B02D1334B9847FEE7BB68D2
:103B5000002B03D1BB691B6C002B01D1012300E0BA
:103B60000023002B02D12C4B9847FEE73B68022B29
:103B700003D1BB69DB6B012B01D1012300E00023E2
:103B8000002B02D1244B9847FEE7244B9847224B49
:103B900098477861BB699A6BBB69DB6B9A4202D329
:103BA0003B68022B2DD1B869B9683A681C4B98471D
:103BB0000346002B05D07B68002B02D07B680122D6
:103BC0001A60BB699B6CB3F1FF3F12D1BB695B6AA2
:103BD000002B13D0BB6924331846124B9847034679
:103BE000002B0BD07B68002B08D07B6801221A6069
:103BF00004E0BB699B6C5A1CBB699A640123FB619E
:103C000001E00023FB617869074B9847FB69184680
:103C10002037BD4680BD00BF653308002D34080045
:103C2000293E0800D94808007933080080B58AB0D9
:103C300000AFF860B9607A603B6000237B62FB688C
:103C40003B623B6A002B02D1674B9847FEE7BB689B
:103C5000002B03D13B6A1B6C002B01D1012300E038
:103C60000023002B02D1604B9847FEE75F4B98473B
:103C70000346002B02D17B68002B01D1012300E019
:103C80000023002B02D1584B9847FEE7584B98472A
:103C90003B6A9B6B002B3BD03B6ADB68FB61386A5D
:103CA000B968544B98473B68002B1CD13B6A9B6B0F
:103CB0005A1E3B6A9A633B6A1B68002B04D14E4B29
:103CC000984702463B6A5A603B6A1B69002B1BD02F
:103CD0003B6A10331846494B98470346012B13D1D2
:103CE000474B984710E03B6AFA69DA603B6A5B6AC7
:103CF000002B09D03B6A24331846404B98470346B3
:103D0000002B01D03E4B98473E4B9847012366E07D
:103D10007B68002B03D13B4B984700235FE07B6A15
:103D2000002B06D107F114031846374B984701239F
:103D30007B62344B9847354B98472D4B98473B6AED
:103D40005B6CB3F1FF3F02D13B6A00225A643B6ACD
:103D50009B6CB3F1FF3F02D13B6A00229A64294B6E
:103D6000984707F114023B1D10461946284B984707
:103D70000346002B2BD1386A264B98470346002B6D
:103D80001FD03B6A1B68002B08D1194B98473B6A30
:103D90005B681846204B98471A4B98473B6A03F1DB
:103DA00024027B68104619461C4B9847386A1C4B06
:103DB00098471C4B98470346002B0FD1104B984750
:103DC0000CE0386A164B9847164B98475EE7386AFE
:103DD000134B9847134B9847002300E056E71846CB
:103DE0002837BD4680BD00BF65330800B14D0800CF
:103DF000E93208000D3F0800C54F0800D948080007
:103E0000C93208002D33080099490800D54308003D
:103E1000D149080005400800ED4D0800B9470800E9
:103E20005D3F0800F143080080B586B000AFF86040
:103E3000B9607A6000237B61FB681B6C002B0DD19D
:103E4000FB681B68002B52D1FB685B6818462D4B42
:103E500098477861FB6800225A6048E07B68002B35
:103E60001AD1FB689A68FB681B6C1046B9681A4641
:103E7000254B9847FB689A68FB681B6C1A44FB68E3
:103E80009A60FB689A68FB685B689A422FD3FB686C
:103E90001A68FB689A602AE0FB68DA68FB681B6CAA
:103EA0001046B9681A46184B9847FB68DA68FB68F1
:103EB0001B6C5B421A44FB68DA60FB68DA68FB68DB
:103EC0001B689A4207D2FB685A68FB681B6C5B420E
:103ED0001A44FB68DA607B68022B08D1FB689B6B95
:103EE000002B04D0FB689B6B5A1EFB689A63FB682F
:103EF0009B6B5A1CFB689A637B6918461837BD4652
:103F000080BD00BFE14E0800616B080080B582B043
:103F100000AF786039607B681B6C002B19D07B6820
:103F2000DA687B681B6C1A447B68DA607B68DA6845
:103F30007B685B689A4203D37B681A687B68DA60A7
:103F40007B68DA687B681B6C386811461A46024B3E
:103F500098470837BD4680BD616B080080B582B0C8
:103F600000AF7860234B984714E07B685B6A002BB6
:103F70000AD07B68243318461F4B98470346002B12
:103F800003D01E4B984700E008E07B689B6C5A1EEC
:103F90007B689A647B689B6C002BE6DC7B684FF047
:103FA000FF329A64164B9847124B984714E07B688F
:103FB0001B69002B0FD07B68103318460E4B9847B7
:103FC0000346002B01D00D4B98477B685B6C5A1E53
:103FD0007B685A6400E003E07B685B6C002BE6DCE6
:103FE0007B684FF0FF325A64054B98470837BD464F
:103FF00080BD00BFE9320800D9480800814A0800A6
:104000002D33080080B584B000AF7860084B984726
:104010007B689B6B002B02D10123FB6001E0002336
:10402000FB60044B9847FB6818461037BD4680BDBF
:10403000E93208002D33080080B584B000AF786005
:10404000094B98477B689A6B7B68DB6B9A4202D17D
:104050000123FB6001E00023FB60044B9847FB68F1
:1040600018461037BD4680BDE93208002D330800E0
:1040700080B584B000AF786039607B68FB60124B1C
:104080009847FB685B6CB3F1FF3F02D1FB680022ED
:104090005A64FB689B6CB3F1FF3F02D1FB680022BE
:1040A0009A640A4B9847FB689B6B002B05D1FB6811
:1040B000243318463968064B9847F868054B9847EB
:1040C0001037BD4680BD00BFE93208002D3308001F
:1040D000594808005D3F080090B58BB002AFF8600A
:1040E000B9603B601346FB80FB68002B02D14B4B51
:1040F0009847FEE73B6B042B02D9484B9847FEE7F5
:10410000FB881846B96B464B9847B861BB69002BD2
:104110006DD0BB691A6BFB8803F18043013B9B00A8
:1041200013447B617B6923F007037B617B6903F0A8
:104130000703002B02D0394B9847FEE7FB8800931A
:10414000B869B9683A6BFB6B364CA0477869F96877
:104150003A68354B98470246BB691A607B6B002B67
:1041600002D07B6BBA691A60304B9847304B1B68A2
:104170005A1C2F4B1A602F4B1B68002B09D12D4B5B
:10418000BA691A602A4B1B68012B0FD12A4B98473A
:104190000CE02A4B1B68002B08D1264B1B68DA6AFF
:1041A0003B6B9A4202D8234BBA691A60244B1B68B6
:1041B0005A1C234B1A60BB69DB6A01229A40214BCF
:1041C0001B681A431F4B1A60BB69DA6A13469B00CF
:1041D00013449B001C4A1A44BB6904331046194619
:1041E0001A4B98470123FB61194B984702E04FF0A7
:1041F000FF33FB61FB69012B0BD1104B1B68002BBC
:1042000007D00C4B1B68DA6A3B6B9A4201D2114B08
:104210009847FB6918462437BD4690BD65330800B2
:10422000D54C0800C14A080041310800E9320800B5
:10423000E0A5072008A50720594B0800ECA507209A
:10424000FCA50720E8A507200CA5072035300800AD
:104250002D330800C932080080B586B000AF786001
:10426000396000237B617B68002B02D12F4B98477C
:10427000FEE73B68002B02D12C4B9847FEE72C4B06
:104280001B68002B02D0294B9847FEE7294B984723
:10429000294B1B683B617B681A683B681344FB60D1
:1042A0007B681A683B699A420BD97B681A68FB687D
:1042B0009A4211D9FA683B699A420DD901237B6170
:1042C0000AE07B681A68FB689A4203D8FA683B697F
:1042D0009A4201D901237B617B68FA681A607B6985
:1042E000002B17D0154B1B6804331846144B984706
:1042F0000346002B0BD1114B1B68DB6A012202FA2B
:1043000003F3DA430F4B1B681A400E4B1A60F86830
:104310000D4B98470D4B9847B860BB68002B01D1F7
:104320000B4B98471837BD4680BD00BF653308006A
:1043300000A60720D5430800E4A5072008A507200C
:10434000ED300800E8A50720654C0800F14308009F
:10435000C932080090B587B004AF00230093002352
:1043600001930023029300230393124812498222EF
:104370000023124CA04778607B68012B02D1104BC0
:10438000984778607B68012B0AD10E4B98470E4BFB
:1043900001221A600D4B00221A600D4B984705E070
:1043A0007B68002B02D1074B9847FEE70C37BD46D0
:1043B00090BD00BF994A08003C6F0800D940080032
:1043C000ED4F080065330800ECA50720E4A50720A1
:1043D0000132080080B400AF044B1B685A1C034B29
:1043E0001A60BD465DF8047B704700BF00A6072039
:1043F00080B582B000AF00237B60374B1B68002B79
:1044000002D1364B9847FEE7354B9847324B1B6835
:104410005A1E314B1A60304B1B68002B55D1314B63
:104420001B68002B51D02EE02F4BDB68DB683B6014
:104430003B68183318462D4B98473B6804331846A1
:104440002A4B98473B68DB6A01229A40284B1B683D
:104450001A43274B1A603B68DA6A13469B001344E1
:104460009B00244A1A443B68043310461946224BE9
:1044700098473B68DA6A214B1B68DB6A9A4202D391
:104480001F4B01221A60184B1B68002BCCD11D4B0F
:104490001B68002B11D00CE01B4B98470346002BE8
:1044A00002D0174B01221A60164B1B685A1E154B7F
:1044B0001A60144B1B68002BEED1114B1B68012BAB
:1044C00003D101237B60114B9847114B98477B68C0
:1044D00018460837BD4680BD00A607206533080092
:1044E000E9320800E0A50720A0A50720ED3008006C
:1044F000E8A507200CA507203530080008A50720EF
:10450000F4A50720F0A5072041450800C93208009E
:104510002D33080080B582B000AF064B9847064B9C
:104520001B687B60054B98477B6818460837BD467B
:1045300080BD00BFE9320800E4A507202D33080044
:1045400080B586B000AF00237B614D4B1B68002B0C
:1045500040F086804B4B1B685A1C4A4B1A60494BF3
:104560001B683B613B69002B18D1474B1B681B68DC
:10457000002B02D0454B9847FEE7434B1B68FB607E
:10458000434B1A68404B1A60414BFA681A60414B22
:104590001B685A1C3F4B1A603F4B98473F4B1B68A8
:1045A0003A699A424DD3384B1B681B68002B01D1E6
:1045B000012300E00023002B04D0384B4FF0FF32E2
:1045C0001A603EE0304B1B68DB68DB68BB60BB6891
:1045D0005B687B603A697B689A4203D22F4B7A68AA
:1045E0001A602EE0BB68043318462D4B9847BB6811
:1045F0009B6A002B04D0BB6818331846284B984799
:10460000BB68DB6A01229A40264B1B681A43254B84
:104610001A60BB68DA6A13469B0013449B00224A67
:104620001A44BB68043310461946204B9847BB68B0
:10463000DA6A1F4B1B68DB6A9A4201D301237B6154
:10464000B1E71B4B1B68DA6A174913469B001344FA
:104650009B000B441B68012B07D901237B6104E0FD
:10466000144B1B685A1C134B1A60134B1B68002B0E
:1046700001D001237B617B6918461837BD4680BD98
:1046800000A60720E4A5072098A5072065330800A9
:104690009CA50720F8A50720694D08000800072001
:1046A000ED300800E8A507200CA5072035300800EC
:1046B00008A50720F0A50720F4A5072080B584B041
:1046C00000AF344B1B68002B03D0334B01221A6020
:1046D0005CE0314B00221A60304B1B681A682F4B8C
:1046E0001B681B6B9A4208D82C4B1A682B4B1B6813
:1046F0003433104619462A4B9847284B1B681B6BCE
:10470000184628491422284B98470346002B08D006
:10471000224B1A68214B1B68343310461946204B34
:104720009847224B1B687B607B68B3FA83F3FB706E
:10473000FB78C3F11F03FB601D49FA6813469B0019
:1047400013449B000B441B68002B02D1194B984764
:10475000FEE7FA6813469B0013449B00144A134477
:10476000BB60BB685B685A68BB685A60BB685A68C4
:10477000BB6808339A4204D1BB685B685A68BB685F
:104780005A60BB685B68DA68044B1A601037BD4634
:1047900080BD00BF00A60720F4A5072008A50720BC
:1047A000D5630800446F0800F96A0800E8A50720EF
:1047B0000CA507206533080080B584B000AF786091
:1047C00039607B68002B02D11A4B9847FEE71A4BE1
:1047D0001B68183378681946184B9847164B1B68A6
:1047E00004331846164B98470346002B0BD1124B47
:1047F0001B68DB6A012202FA03F3DA43114B1B68E0
:104800001A40104B1A603B68B3F1FF3F07D10A4BC7
:104810001B6804330C4819460C4B984707E00C4BB7
:104820001A683B681344FB60F8680A4B98471037D6
:10483000BD4680BD6533080008A507207D3008000F
:10484000ED300800E8A50720CCA50720353008008A
:10485000E4A50720654C080080B584B000AF7860FF
:1048600039607B68002B02D1144B9847FEE7144B4C
:104870001B68183378681946124B9847104B1B6811
:1048800004331846104B98470346002B0BD10C4BB2
:104890001B68DB6A012202FA03F3DA430B4B1B6845
:1048A0001A400A4B1A600A4B1A683B681344FB60B3
:1048B000F868084B98471037BD4680BD653308003F
:1048C00008A5072035300800ED300800E8A50720CE
:1048D000E4A50720654C080080B584B000AF78607F
:1048E0007B68DB68DB68BB60BB68002B02D1214BB7
:1048F0009847FEE7BB68183318461F4B98471F4B75
:104900001B68002B1CD1BB68043318461A4B984710
:10491000BB68DB6A01229A40194B1B681A43184B8B
:104920001A60BB68DA6A13469B0013449B00154A61
:104930001A44BB68043310461946134B984705E0E8
:10494000BB681833114819460F4B9847BB68DA6AA1
:104950000F4B1B68DB6A9A4205D90123FB600D4BA4
:1049600001221A6001E00023FB60FB681846103743
:10497000BD4680BD65330800ED30080000A6072065
:10498000E8A507200CA5072035300800A0A50720C2
:1049900008A50720F4A5072080B582B000AF786095
:1049A0007B68002B02D1074B9847FEE7064B1A683D
:1049B0007B681A60054B1A687B685A600837BD46E9
:1049C00080BD00BF65330800F8A50720E4A50720D7
:1049D00080B584B000AF786039607B68002B02D16D
:1049E000214B9847FEE73B68002B02D11E4B9847AE
:1049F000FEE71E4B98471E4B1B68BB603B681B685D
:104A0000B3F1FF3F02D10023FB6026E07B681A6808
:104A1000184B1B689A4207D07B685A68BB689A4259
:104A200002D80123FB6018E07B685B68BA68D21A81
:104A30003B681B689A420ED23B681A687B685968CB
:104A4000BB68CB1A1A443B681A6078680A4B9847CF
:104A50000023FB6001E00123FB60084B9847FB68E3
:104A600018461037BD4680BD65330800E93208009E
:104A7000E4A50720F8A50720994908002D33080070
:104A800080B400AF034B01221A60BD465DF8047B81
:104A9000704700BFF4A5072080B582B000AF7860F2
:104AA000044B9847044B1B68012B01D9034B9847D3
:104AB000F6E700BFD94B08000CA50720C932080053
:104AC00080B586B000AFF860B9607A603B600023C3
:104AD0007B6112E0BA687B6913441A78F9687B69D4
:104AE0000B4430331A71BA687B6913441B78002B6E
:104AF00000D105E07B6901337B617B69092BE9D932
:104B0000FB68002283F83D207B68042B01D9042335
:104B10007B60FB687A68DA62FB687A681A64FB6813
:104B200000225A64FB68043318460A4B9847FB6816
:104B300018331846074B9847FB68FA681A617B6878
:104B4000C3F10502FB689A61FB68FA685A6218377C
:104B5000BD4680BD1D30080080B582B000AF002387
:104B60007B600CE07A6813469B0013449B00114A5B
:104B700013441846104B98477B6801337B607B6871
:104B8000042BEFD90D480C4B98470D480A4B98471A
:104B90000C48094B98470C48074B98470B48064B65
:104BA00098470B4B054A1A600A4B054A1A600837AA
:104BB000BD4680BD0CA50720DD2F080070A507208D
:104BC00084A50720A0A50720B4A50720CCA5072011
:104BD00098A507209CA5072080B582B000AF28E0EB
:104BE000174B9847174B1B68002B14BF002301235A
:104BF000DBB27B60144B98477B68002B19D1134BB9
:104C00009847104BDB68DB683B603B680433184611
:104C10000F4B98470F4B1B685A1E0E4B1A600E4BDA
:104C20001B685A1E0C4B1A600C4B984738680C4B8B
:104C30009847094B1B68002BD2D10837BD4680BD71
:104C4000D5430800B4A50720F1430800E932080065
:104C5000ED300800E0A50720C8A507202D33080087
:104C6000454D080080B582B000AF7860134B1B68DB
:104C70007A685A60124B1B687A689A4209D2114BC3
:104C80001A680E4B1B680433104619460E4B9847A2
:104C900010E00E4B1A68094B1B6804331046194686
:104CA000094B98470A4B1B687A689A4202D2084B14
:104CB0007A681A600837BD4680BD00BF08A5072086
:104CC000E4A507209CA507207D30080098A50720B3
:104CD0000800072080B584B000AF03463960FB8030
:104CE0004820154B9847F860FB68002B1FD03B68A5
:104CF000002B06D1FB889B0018460F4B98470346B4
:104D000000E03B68FA681363FB681B6B002B05D15E
:104D1000F8680A4B98470023FB6008E0FB681A6BB1
:104D2000FB889B001046A5211A46054B9847FB6857
:104D300018461037BD4680BD89340800013608008A
:104D40004D6C080080B582B000AF78607B681B6B4B
:104D50001846044B98477868024B98470837BD4679
:104D600080BD00BF0136080080B483B000AF0E4B99
:104D70001B681B68002B01D1012300E00023002BDE
:104D800004D00A4B4FF0FF321A6008E0064B1B6854
:104D9000DB68DB687B607B685A68044B1A600C3701
:104DA000BD465DF8047B704798A5072008000720E2
:104DB00080B483B000AF0B4B1B68002B02D10123E2
:104DC0007B6008E0084B1B68002B02D102237B604C
:104DD00001E000237B607B6818460C37BD465DF818
:104DE000047B7047ECA5072000A6072080B584B09F
:104DF00000AF78607B68FB607B68002B62D0FB684B
:104E0000DA6A324B1B68DB6A9A425BD2FB689B69A9
:104E1000002B06DB2D4B1B68DB6AC3F10502FB6828
:104E20009A61FB685969FB68DA6A13469B00134470
:104E30009B00274A1344994201D1012300E000233B
:104E4000002B3AD0FB6804331846224B98470346A0
:104E5000002B15D1FB68DA6A1D4913469B001344E9
:104E60009B000B441B68002B0AD1FB68DB6A012204
:104E700002FA03F3DA43184B1B681A40164B1A6008
:104E8000124B1B68DA6AFB68DA62FB68DB6A012294
:104E90009A40114B1B681A430F4B1A60FB68DA6A81
:104EA00013469B0013449B00094A1A44FB680433D1
:104EB00010461946094B984704E0044B1B68DA6A10
:104EC000FB68DA621037BD4680BD00BF08A5072029
:104ED0000CA50720ED300800E8A5072035300800B4
:104EE00080B584B000AF78607B68BB600023FB6056
:104EF0007B68002B56D0BB685B6C002B02D12C4B1F
:104F00009847FEE7BB685B6C5A1EBB685A64BB6877
:104F1000DA6ABB681B6C9A4244D0BB685B6C002B9E
:104F200040D1BB6804331846224B98470346002BF8
:104F300015D1BB68DA6A204913469B0013449B00D5
:104F40000B441B68002B0AD1BB68DB6A012202FA02
:104F500003F3DA43194B1B681A40184B1A60BB68FD
:104F60001A6CBB68DA62BB68DB6AC3F10502BB6816
:104F70009A61BB68DB6A01229A40104B1B681A4396
:104F80000E4B1A60BB68DA6A13469B0013449B0001
:104F9000094A1A44BB68043310461946084B98471F
:104FA0000123FB60FB6818461037BD4680BD00BF7B
:104FB00065330800ED3008000CA50720E8A50720A0
:104FC0003530080080B400AF074B1B68002B04D0BD
:104FD000054B1B685A6C01325A64034B1B68184618
:104FE000BD465DF8047B704708A5072090B587B0E3
:104FF00004AF00237B60104B9847104B1B68002BBD
:105000000FD0022300930023019300230293002377
:1050100003930B480B494FF4827200230A4CA047BC
:1050200078607B68002B02D1084B9847FEE77B68CD
:1050300018460C37BD4690BD2155080034A6072000
:1050400069510800586F0800D9400800653308000E
:1050500090B589B000AFF860B9607A603B6000231A
:10506000FB611D4B1B68002B30D0BB683B617B682C
:105070007B61FB68BB61BB68052B1CDC174B984749
:105080000346022B0BD1144B1A6807F1100310468C
:1050900019463A6B0023124CA047F86116E00E4BFC
:1050A0001A6807F1100310461946002200230C4C21
:1050B000A047F8610AE0084B1A6807F11003104690
:1050C00019463A680023074CA047F861FB69184667
:1050D0002437BD4690BD00BF34A60720B14D08005F
:1050E0006D390800313B080090B587B002AF786099
:1050F0003960184B1B68DB68DB68FB60FB680433B6
:105100001846154B9847FB68DB69012B1BD1FB68E0
:105110009A697B681344F86819463A687B680F4CB3
:10512000A0470346012B0ED100230093F86800210D
:105130007A6800230A4CA047B860BB68002B02D1F4
:10514000084B9847FEE7FB685B6AF8689847143796
:10515000BD4690BD2CA60720ED300800AD520800DA
:10516000515008006533080080B584B000AF786006
:1051700007F108031846054B9847F860BB68F868C4
:105180001946034B9847034B9847F1E71D52080017
:10519000995108003553080080B584B000AF78609D
:1051A0003960174B984707F108031846154B984785
:1051B000F860BB68002B1ED13B68002B0AD17A68CF
:1051C000FB689A4206D8104B98477868F9680F4BED
:1051D000984712E00E4B1A687968FB68CB1A1046A4
:1051E00019460C4B9847084B98470346002B04D1AF
:1051F000094B984701E0044B98471037BD4680BDE6
:10520000D543080065520800F1430800E950080042
:1052100034A6072071400800C932080080B485B068
:1052200000AF78600E4B1B681B68002B14BF002377
:105230000123DBB21A467B681A607B681B68002B6F
:1052400005D1074B1B68DB681B68FB6001E000238E
:10525000FB60FB6818461437BD465DF8047B704759
:105260002CA6072080B584B000AF78600C4B98471F
:10527000F8600C4B1B68FA689A4205D20A4B9847B3
:105280007B6801221A6002E07B6800221A60054BED
:10529000FA681A60FB6818461037BD4680BD00BF2B
:1052A0001545080038A607206154080080B586B06F
:1052B00000AFF860B9607A603B6000237B61FB68F7
:1052C000BA685A60FB68FA681A61BA687B689A42E1
:1052D00012D87A683B68D21AFB689B699A4202D35B
:1052E00001237B611BE0104B1A68FB6804331046F6
:1052F00019460E4B984712E07A683B689A4206D2EC
:10530000BA683B689A4202D301237B6107E0084BED
:105310001A68FB68043310461946044B98477B69AA
:1053200018461837BD4680BD30A607207D300800DE
:105330002CA6072090B58BB002AF70E0BB68002BA5
:105340006DDB3B69FB61FB695B69002B04D0FB698A
:10535000043318463A4B98473B1D1846394B98473B
:10536000B861BB68092B59D801A252F823F000BFDD
:105370009953080099530800995308001D540800D8
:10538000EB5308001554080099530800995308007E
:105390001D540800EB530800FA68FB699B691A4426
:1053A000FB68F8691146BA69274CA0470346012BF0
:1053B0001AD1FB695B6AF8699847FB69DB69012BC5
:1053C00012D1FA68FB699B69134400220092F869C4
:1053D00000211A4600231D4CA04778617B69002BF1
:1053E00002D11B4B9847FEE719E0FA68FB699A6106
:1053F000FB699B69002B02D1154B9847FEE7FB69BF
:105400009A69BB691344F8691946BA69BB690E4CBD
:10541000A04704E0F8690F4B984700E000BF0E4B2F
:105420001A6807F1080310461946002200230B4CA6
:10543000A0470346002B81D12437BD4690BD00BF55
:10544000ED30080065520800AD52080051500800C8
:10545000653308000136080034A607202D3C0800FB
:1054600090B589B002AF3DE0274B1B68DB681B6835
:105470007B61254B1B68DB68DB683B613B69043360
:105480001846224B98473B695B6A386998473B69E5
:10549000DB69012B26D13B699A697B691344FB6068
:1054A000FA687B699A420ED93B69FA685A603B698F
:1054B0003A691A61144B1A683B690433104619465D
:1054C000134B98470EE000230093386900217A6956
:1054D0000023104CA047B860BB68002B02D10E4BD4
:1054E0009847FEE7084B1B681B68002BBCD1064B96
:1054F0001B687B60094B1A68034B1A60074B7A687C
:105500001A601C37BD4690BD2CA60720ED30080060
:105510007D300800515008006533080030A6072090
:1055200080B500AF114B9847114B1B68002B1AD167
:105530001048114B984711480F4B9847104B0D4A94
:105540001A60104B0D4A1A6005200C2100220E4BE8
:1055500098470246064B1A60054B1B68002B02D188
:105560000A4B9847FEE70A4B984780BDE93208008E
:1055700034A6072004A60720DD2F080018A6072060
:105580002CA6072030A60720E13808006533080064
:105590002D33080080B483B000AF0346FB71084B85
:1055A00097F907205209F97901F01F01012000FA4B
:1055B00001F143F822100C37BD465DF8047B7047BB
:1055C00000E100E080B483B000AF78607B68072B17
:1055D00025D801A252F823F0F9550800FF5508001C
:1055E000055608000B5608000F5608001356080011
:1055F000175608001B5608004FF4FA4310E04FF40A
:1056000000430DE04FF400430AE0084B08E0084B6C
:1056100006E0084B04E0074B02E0064B00E00023E5
:1056200018460C37BD465DF8047B704700093D0005
:1056300000127A00001BB70080B500AF0620044BB3
:10564000984702461346DB009B1A5B00184680BD54
:10565000C555080080B500AF024B984703465B086C
:10566000184680BD3956080080B582B000AF2B487F
:105670002B492C4B98472C482C4B984738603B685B
:10568000DBB2002B46D00023FB7140E0FB792648BB
:105690001946274B984738603B6803F40003002BFA
:1056A00032D0FA791D4B1A601C4B3A689A601E483A
:1056B0001A49204B9847194BDA691F4B9A4207D178
:1056C000164B9A691D4B9A4202D11D4B00221A605B
:1056D000FB79124819461B4B9847104812491A4B40
:1056E0009847FB79072B03D10C480F49174B984774
:1056F000FB79002B03D109480B49154B9847074804
:105700000749144B984705E0FB790133FB71FB799E
:10571000072BBBD90837BD4680BD00BF50A6072068
:105720008CA607203D5D080000800B40B11D0800DD
:10573000F51D0800751F080067452301EFCDAB89F3
:10574000E4A60720BD590800F95708005958080079
:105750001D590800AD5D080080B582B000AF1C483F
:105760001C491D4B98471D481D4B984738603B68A6
:10577000DBB2002B29D00023FB7123E0FB79174813
:105780001946184B984738603B6803F40003002B18
:1057900015D0FA790E4B1A600D4B3A689A600F4893
:1057A0000B49114B9847114B01221A6008480B49CD
:1057B0000F4B9847064807490E4B984705E0FB7981
:1057C0000133FB71FB79072BD8D90837BD4680BD63
:1057D000BCA6072000A707203D5D080000400B4045
:1057E000B11D0800F51D0800751F08003CA6072024
:1057F000F9570800AD5D080080B586B000AF78604D
:1058000039607B689B697B617B68DB693B613B69D5
:1058100003F47F031B0CFB733B6903F47F431B0AF8
:10582000BB73FB7B022B05D1BB7B042B02D1572022
:10583000084B9847FB7B012B02D15520054B98471D
:10584000FB7B002B02D15620024B984700BF183734
:10585000BD4680BD7523080080B487B000AF786076
:1058600039607B689B697B617B68DB693B613B6975
:105870001B0FFB733B6903F070631B0EBB733B692B
:1058800003F47F031B0C7B733B6903F47F431B0A08
:105890003B737B7B022B00D02EE03B7B062B02D0A0
:1058A000082B14D027E0BB7B042B00D00EE0154B57
:1058B0001B78002B09D0144B01221A70134B3A6944
:1058C0005A60124B7A691A60FFE700BF13E0BB7B96
:1058D000042B00D00EE00E4B1B78002B09D00D4B93
:1058E00001221A700C4B3A695A600B4B7A691A60A4
:1058F000FFE700BF00BF00BF1C37BD465DF8047B5B
:10590000704700BFE8A607204CA6072080A6072006
:10591000B0A607207DA60720B4A6072080B487B0D4
:1059200000AF786039607B68DB697B617B689B696D
:105930003B617B6903F47F031B0CFB737B6903F4FE
:105940007F431B0ABB73FB7B002B00D028E0BB7B93
:10595000013B032B22D801A252F823F06D59080015
:1059600073590800795908008B5908000F4B012220
:105970001A700F4B01221A700E4B01221A700E4B37
:105980007A695A600C4B3A691A600A4B01221A7004
:10599000094B7A695A60084B3A691A6000BF00BF28
:1059A0001C37BD465DF8047B704700BF70A607201A
:1059B0007CA60720F0A60720DCA6072090B587B0BC
:1059C00000AF78600B46FB707B689B697B617B68EE
:1059D000DB693B61FB78072B73D801A252F823F0F7
:1059E000015A0800C35A0800C35A0800C35A0800E5
:1059F000C35A0800315A0800615A0800915A080039
:105A0000324B196807F1140207F10C0308461146DE
:105A10001A4600232E4CA0472C4B196807F11002A0
:105A200007F10C03084611461A460023284CA047EC
:105A3000284B196807F1140207F10C0308461146B8
:105A40001A460023224CA047224B196807F1100286
:105A500007F10C03084611461A4600231C4CA047C8
:105A60001D4B196807F1140207F10C030846114693
:105A70001A460023164CA047174B196807F110026D
:105A800007F10C03084611461A460023104CA047A4
:105A9000124B196807F1140207F10C03084611466E
:105AA0001A4600230A4CA0470C4B196807F1100254
:105AB00007F10C03084611461A460023044CA04780
:105AC00000BF00BF1C37BD4690BD00BF88A60720A1
:105AD000313B0800FCA6072040A60720ECA60720C3
