S01400004D61696E5F50726F6772616D2E7372656354
S21408000070DB0720F5280800ED280800ED28080012
S214080010ED280800ED280800ED280800000000007C
S2140800200000000000000000000000009D2D0800F1
S214080030ED28080000000000612F0800A52F080022
S214080040ED280800ED280800ED280800ED2808002F
S2140800500D600800ED280800ED280800ED280800C7
S214080060ED280800ED280800000000003D220800E2
S214080070552208006D2208008522080000000000AE
S21408008000000000590B0800ED280800ED280800BD
S214080090ED280800ED280800ED280800ED280800DF
S2140800A04D08080000000000ED280800ED280800AC
S2140800B0ED280800ED280800ED280800ED280800BF
S2140800C0ED280800ED280800ED280800ED280800AF
S2140800D0ED280800ED280800ED280800ED2808009F
S2140800E0ED280800ED280800ED2808003D52080015
S2140800F04D51080010B5054C237833B9044B13B19D
S2140801000448AFF300800123237010BD380407208D
S21408011000000000F46A080008B5064B1BB1064844
S2140801200649AFF300800648036813B1054B03B1D0
S214080130984708BD00000000F46A08003C04072041
S214080140F46A08000000000080B483B000AF78604E
S2140801507B685B6803F00203002B01D0012300E0F4
S214080160002318460C37BD465DF8047B704700BF71
S21408017080B582B000AF78607868024B9847083739
S214080180BD4680BD0925080080B582B000AF7860FE
S2140801907A68044B9A4202D11820034B98470837CE
S2140801A0BD4680BD008000407101080080B483B061
S2140801B000AF786039607B685B6823F470227B68E0
S2140801C05A607B685A683B681B0403F470231A431A
S2140801D07B685A600C37BD465DF8047B704700BFE5
S2140801E080B483B000AF786039607B685B6823F0C2
S2140801F07F427B685A607B685A683B681B061A43CE
S2140802007B685A600C37BD465DF8047B704700BFB4
S21408021080B586B000AFF860B9607A6043F6982378
S2140802207B6106E07B695A1E7A61002B01D10123A7
S2140802301DE0FB681B6903F00103002BF2D0FB6886
S2140802409A680D4B1A60F8680C4B98470346002BC3
S21408025007D0094B1B6803F470231B0CDAB27B68C3
S2140802601A70054B1B689AB2BB681A8000235BB2EB
S21408027018461837BD4680BD5404072049010800B3
S21408028080B485B000AFF860B9607A607B68002BF0
S2140802900CD0FB68BA680C3253F8223043F00101E0
S2140802A0FB68BA680C3243F822100BE0FB68BA68A1
S2140802B00C3253F8223023F00101FB68BA680C327E
S2140802C043F822101437BD465DF8047B704700BF1C
S2140802D080B485B000AFF860B9607A607B68002BA0
S2140802E00CD0FB68BA680C3253F8223043F002018F
S2140802F0FB68BA680C3243F822100BE0FB68BA6851
S2140803000C3253F8223023F00201FB68BA680C322C
S21408031043F822101437BD465DF8047B704700BFCB
S21408032080B485B000AFF860B9607A607B68042B4B
S21408033018D1FB68BA680C3253F8223023F008014B
S214080340FB68BA680C3243F82210FB68BA680C32AD
S21408035053F8223043F00401FB68BA680C3243F8BD
S21408036022102AE07B68002B18D1FB68BA680C328A
S21408037053F8223023F00801FB68BA680C3243F8B9
S2140803802210FB68BA680C3253F8223023F00401B6
S214080390FB68BA680C3243F822100EE07B68082B1C
S2140803A00BD1FB68BA680C3253F8223043F00801C8
S2140803B0FB68BA680C3243F822101437BD465DF85D
S2140803C0047B704780B485B000AFF860B9607A6087
S2140803D0FB68BA680C3253F8223023F0F001FB6849
S2140803E0BA680C3243F82210FB68BA680C3253F825
S2140803F022207B6842EA0301FB68BA680C3243F89D
S21408040022101437BD465DF8047B704780B485B06B
S21408041000AF786039603A687B6813445A1E7B6878
S214080420B2FBF3F3FB60FB68002B02DDFB68FF2BD7
S21408043002DD4FF6FF7301E0FB689BB21BB218465D
S2140804401437BD465DF8047B704700BF80B485B09E
S21408045000AFF860B9601346FB71FB68BA680C32E7
S21408046053F8223023F47F41FB68BA680C3243F80D
S2140804702210FB68BA680C3253F82220FB791B025C
S2140804809BB242EA0301FB68BA680C3243F82210B2
S2140804901437BD465DF8047B704700BF80B485B04E
S2140804A000AFF860B960FA71BB71FB68BA680C32C5
S2140804B053F8223099B2FB68BA680C3243F8221017
S2140804C0FB68BA680C3253F82220FB791B0403F445
S2140804D07F01BB791B060B4342EA0301FB68BA6837
S2140804E00C3243F822101437BD465DF8047B70477B
S2140804F090B585B004AF0123009300230193002331
S2140805000293002303930548054982224AF6CD3311
S214080510044CA04700BF0437BD4690BD2905080017
S2140805204C690800B93C080090B58DB002AF7860F9
S2140805307A684AF6CD339A4202D02B4B9847FEE7A4
S21408054064237B62012387F823300A23FB614FF07C
S21408055055333B613A69FB69D9B297F823300220D4
S2140805600090019110461946032200231F4CA0470D
S214080570B8611F4B1B78002B17D007F10C0207F148
S21408058010031046194640F2D2421A4B98470346C3
S214080590BB61BB69002B08D0FA68174B5A603A69EA
S2140805A0154B1A60124B00221A70144B1B78002B3E
S2140805B018D007F10C0207F110031046194640F24E
S2140805C0D2420F4B98470346BB61BB69002B09D044
S2140805D0FA680C4B5A603A690A4B1A60074B0022B5
S2140805E01A70B4E7B3E700BF452F08002157080084
S2140805F078A60720D15708004CA607207BA6072018
S2140806003958080024A7072080B582B000AF002319
S2140806107B600FE00A4B7A6853F8223018464FF092
S2140806206051084B984778680021074B98477B68C5
S21408063001337B607B68032BECD90837BD4680BD49
S214080640506908007D1F08004D06080080B582B076
S21408065000AF786039607B68032B23D87B68002B53
S21408066006D13B68002B14BF00230123DBB23B6096
S2140806703B68002B0BD00D4B98470D4B7A6853F808
S214080680223018460B4B98470B4B98470AE0074B07
S2140806909847074B7A6853F822301846074B98470E
S2140806A0054B98470837BD4680BD00BFC92E0800D1
S2140806B050690800E91E08000D2F0800B51E08003E
S2140806C080B483B000AF78607B68072B25D801A27A
S2140806D052F823F0F5060800FB0608000107080094
S2140806E0070708000B0708000F070800130708008D
S2140806F0170708004FF4FA4310E04FF400430DE0E4
S2140807004FF400430AE0084B08E0084B06E0084BA5
S21408071004E0074B02E0064B00E0002318460C37BF
S214080720BD465DF8047B704700093D0000127A005C
S214080730001BB70080B500AF0620044B984702465A
S2140807401346DB009B1A5B00184680BDC1060800EE
S21408075080B500AF024B984703465B08184680BD35
S2140807603507080080B483B000AF78607B688022C5
S2140807701A600C37BD465DF8047B704780B483B0BA
S21408078000AF78607B6801221A600C37BD465DF8BA
S214080790047B704780B483B000AF78607B685B6882
S2140807A043F001027B685A600C37BD465DF8047B4F
S2140807B0704700BF80B483B000AF78607B685B6822
S2140807C043F002027B685A600C37BD465DF8047B2E
S2140807D0704700BF80B483B000AF78607B685B6802
S2140807E023F004027B685A600C37BD465DF8047B2C
S2140807F0704700BF80B483B000AF78607B685B68E2
S21408080043F010027B685A600C37BD465DF8047BDF
S214080810704700BF80B483B000AF78607B685B68C1
S21408082023F080027B685A600C37BD465DF8047B6F
S214080830704700BF80B483B000AF78607B681B69E0
S21408084018460C37BD465DF8047B704780B582B005
S21408085000AF0C4B7B600C480C4B9847034603F0E4
S2140808600103002B0BD0FB1C074809491A46094B05
S21408087098477B681B6843F0BB027B681A6008379A
S214080880BD4680BD0C80004000800040350808004A
S214080890580407201102080090B585B000AF5948E3
S2140808A0594B98475748594B98475648584B984776
S2140808B05448584B98475348574B984751480B212C
S2140808C0564B98474F48564B98474E48554B98476F
S2140808D04C480021544B98470023FB60534BBB60A1
S2140808E001237B6000233B604648F9680022022308
S2140808F04F4CA0474348F96880224E4B98474E4BCA
S21408090098470346B86819464C4B98470346DBB2E7
S2140809103C48F9681A464A4B98473A48F968042208
S214080920484B98473748F9687A68474B9847354898
S214080930F9683A68454B98470123FB60444BBB600F
S21408094000237B6000233B602E48F96800220223C0
S214080950374CA0472B48F9680022364B9847364B49
S21408096098470346B8681946344B98470346DBB29F
S2140809702448F9681A46324B98472248F9680422F0
S214080980304B98471F48F9687A682F4B98471D4898
S214080990F9683A682D4B98470223FB602D4BBB60DD
S2140809A001237B6000233B601648F9680022022377
S2140809B01F4CA0471348F96800221E4B98471E4B49
S2140809C098470346B86819461C4B98470346DBB257
S2140809D00C48F9681A461A4B98470A48F9680822D4
S2140809E0184B98470748F9687A68174B9847054898
S2140809F0F9683A68154B98470248174B98471437D2
S214080A00BD4690BD008000408901080065070800C3
S214080A1095070800F507080015080800AD01080046
S214080A20B5070800D5070800E1010800A086010000
S214080A309D040800C5030800510708000D040800B7
S214080A404D0408002103080081020800D1020800AE
S214080A5080841E0000639F027D07080080B500AFF3
S214080A60014B984700BF80BD9908080080B483B042
S214080A7000AF0346FB71084B97F907205209F9792E
S214080A8001F01F01012000FA01F143F822100C378B
S214080A90BD465DF8047B704700E100E080B483B093
S214080AA000AF78607B68072B25D801A252F823F0A0
S214080AB0D10A0800D70A0800DD0A0800E30A080079
S214080AC0E70A0800EB0A0800EF0A0800F30A08001D
S214080AD04FF4FA4310E04FF400430DE04FF40043A0
S214080AE00AE0084B08E0084B06E0084B04E0074B12
S214080AF002E0064B00E0002318460C37BD465DF8BA
S214080B00047B704700093D0000127A00001BB700FE
S214080B1080B500AF0620044B984702461346DB0014
S214080B209B1A5B00184680BD9D0A080080B500AF7A
S214080B30024B984703465B08184680BD110B080011
S214080B4080B582B000AF78607868024B984708375F
S214080B50BD4680BD0925080080B584B000AF0023D7
S214080B60BB6000237B600023FB730023BB733B48FA
S214080B703B4B9847386058203A4B98473A4B1B7877
S214080B80002B67D13B6803F00103002B62D0334883
S214080B903649374B9847354B1B68BB60BB68312BCB
S214080BA002D1344B01221A70BB68322B02D1324B69
S214080BB001221A702F4B1B78012B1ED1BB68002B05
S214080BC01BD0BB68312B18D0BB68322B15D02B4BEB
S214080BD01A782B4BA3FB0213D9080B469B000B4431
S214080BE05B00D31ADBB2BA68D1B2264AD154234B7B
S214080BF01B780133DAB2214B1A701F4B1B78012B76
S214080C001DD11C4B1B78012B19D11F4B98471A4B2B
S214080C1000221A70174B00221A70184B00221A70FE
S214080C200023BB7306E0BB7B164A0021D154BB7B6E
S214080C300133BB73BB7B092BF5D90123FB73FB7B05
S214080C40002B05D1094B1B68044819460F4B9847DB
S214080C500023FB731037BD4680BD00BF00800940E7
S214080C60892708001D1F0800600407205C04072069
S214080C700D28080061040720620407207004072076
S214080C80CDCCCCCC64040720910C0800D9270800EA
S214080C9080B58AB000AF00233B620123FB610023C6
S214080CA0FB760123BB7601237B7601233B7640F255
S214080CB027137B601923FB757E4B3B6138697E4B97
S214080CC098470346BB767D4B3B6138697A4B984715
S214080CD003467B767A4B3B613869774B98470346E1
S214080CE03B76BB7E012B40F08880764B7B620DE01E
S214080CF07B6A1B783B6200BF7348396A734B984718
S214080D000346002BF8D17B6A01337B627B6A1B782B
S214080D10002BEDD16E4B7B620DE07B6A1B783B6245
S214080D2000BF6948396A694B98470346002BF8D1D3
S214080D307B6A01337B627B6A1B78002BEDD1654B9F
S214080D401B687B603B1D1846634B9847F8617B68B9
S214080D50FB75FB7D1846614B98470346FB75FB7D84
S214080D601B01FB73FB7B1B09FB73FB7D1B09BB731A
S214080D70FB7B3033FB73BB7B3033BB73FB69002BC9
S214080D800AD02B233B6200BF4F48396A4F4B98471F
S214080D900346002BF8D109E02D233B6200BF4A48E2
S214080DA0396A4A4B98470346002BF8D100BFBB7BED
S214080DB045481946454B98470346002BF7D100BFD0
S214080DC0FB7B41481946414B98470346002BF7D111
S214080DD0434B7B620DE07B6A1B783B6200BF3A4858
S214080DE0396A3A4B98470346002BF8D17B6A013399
S214080DF07B627B6A1B78002BEDD17B7E012B14D19E
S214080E00384B7B620DE07B6A1B783B6200BF2E483E
S214080E10396A2E4B98470346002BF8D17B6A013374
S214080E207B627B6A1B78002BEDD13B7E012B3DD184
S214080E302D4B7B620DE07B6A1B783B6200BF224825
S214080E40396A224B98470346002BF8D17B6A013350
S214080E507B627B6A1B78002BEDD1244B1B68BB603A
S214080E60BB68DBB2BB60BB68402B02D8BB685A2B9A
S214080E7007D800BF1448B968144B98470346002B98
S214080E80F8D11B4B7B620DE07B6A1B783B6200BF88
S214080E900D48396A0D4B98470346002BF8D17B6AF4
S214080EA001337B627B6A1B78002BEDD100BF2837A5
S214080EB0BD4680BD60690800F50E08006469080034
S214080EC0706908007469080000800940D92708007E
S214080ED0946908004CA60720510F0800E90F08007F
S214080EE0B0690800B8690800D469080024A7072074
S214080EF0FC69080080B485B000AF78600023FB73F7
S214080F000123BB737B68BB600023FB7314E0BB68DC
S214080F101A78FB7B0D49CB5C9A4202D00023BB7340
S214080F200DE0BB681B78002B00D108E0BB680133D6
S214080F30BB60FB7B0133FB73FB7B092BE7D9BB7BD1
S214080F4018461437BD465DF8047B704764040720CE
S214080F5080B584B000AF78604FF00003FB607B6814
S214080F601B68BB60BB689B08BB601B4BB868984790
S214080F700346FB60194BF8684FF0745198470346D0
S214080F80FB60174BF8684FF0000198470346002BA4
S214080F9009D0144BF86898470346BB607B68BA6864
S214080FA01A60012313E00C4BB8689847034683F091
S214080FB000420C4B104698470346BB60094BF8683E
S214080FC098470346BB607B68BA681A6000231846D1
S214080FD01037BD4680BD00BFA161080051620800F9
S214080FE0B5650800DD65080080B485B000AF034627
S214080FF0FB710023FB730023BB7300237B73FB7911
S214081000092B19D9FA79104BA3FB0213D9080B46FA
S2140810109B000B445B00D31ABB73FA790A4BA3FBFD
S2140810200213DB08FB73FB7B1B01FB73FA7BBB7BA2
S21408103013437B737B7B00E0FB7918461437BD4669
S2140810405DF8047B704700BFCDCCCCCCB0B586B07D
S21408105000AF134B3C461D460FCD0FC495E8030062
S21408106084E8030011200F4B98470F4B9847034618
S2140810703A460E4811461A460D4B98470B484FF00D
S214081080FF310C4B984709480B4B984707480B4BC2
S214081090984711200A4B98471837BD46B0BD00BF81
S2140810A0006A0800410B08002D0B08000080094064
S2140810B06D2608006D270800F1260800212708007D
S2140810C06D0A080080B584B000AF0023FB730023C8
S2140810D07B601A4B98471A4B00221A700023FB7342
S2140810E006E0FB7B174A0021D154FB7B0133FB73D8
S2140810F0FB7B092BF5D914480121144B9847124855
S2140811004FF48051124B9847124BBB600DE0BB68FA
S2140811101B787B6000BF0C4879680F4B98470346DE
S214081120002BF8D1BB680133BB60BB681B78002B6B
S214081130EDD100BF1037BD4680BD00BF4D1008007A
S214081140600407206404072000800940512708002F
S2140811506D270800186A0800D927080080B582B0ED
S21408116000AF78607B68072B2ED801A252F823F0D0
S214081170C91108009111080099110800A11108006A
S214081180A9110800B1110800B9110800C11108001A
S21408119000200F4B984717E001200D4B984713E0A7
S2140811A000200C4B98470FE010200A4B98470BE09E
S2140811B02020084B984707E00020074B984703E095
S2140811C00120054B984700BF0837BD4680BD00BFC5
S2140811D021230800912308003124080080B582B036
S2140811E000AF78607B68072B26D801A252F823F058
S2140811F01112080015120800151208002712080018
S21408120027120800271208002712080027120800CD
S214081210012312E00B4B98470346002B0CBF002314
S2140812200123DBB209E0084B98470346002B0CBFA6
S21408123000230123DBB200E0002318460837BD462A
S21408124080BD00BF5D2308009D24080080B483B0DD
S21408125000AF78607B68072B25D801A252F823F0E8
S21408126081120800871208008D12080093120800E1
S214081270971208009B1208009F120800A312080085
S2140812804FF4FA4310E04FF400430DE04FF40043E8
S2140812900AE0084B08E0084B06E0084B04E0074B5A
S2140812A002E0064B00E0002318460C37BD465DF802
S2140812B0047B704700093D0000127A00001BB70047
S2140812C080B582B000AF0346FB7100BFFB791846B5
S2140812D0054B9847034683F00103DBB2002BF5D194
S2140812E00837BD4680BD00BFDD11080080B586B052
S2140812F000AFF8607A603B600B46FB727B68002B99
S21408130007D13B68002B04D1FB684FF470021A60C3
S21408131019E0FB7A18460D4B984702467B68B2FBE5
S214081320F3F37B617B693A6802FB03F37B613B68F6
S214081330013B1A04064B13407A68D2B2134343F4AF
S2140813407C52FB681A601837BD4680BD4D120800EF
S2140813500000FF0780B582B000AF786039603B6850
S214081360002B08D1084B9847084B7A68126842F059
S21408137000529A6205E0054B7A68126842F4803299
S214081380DA610837BD4680BDB924080000060E405D
S21408139080B582B000AF78607B68002B03D1054B20
S2140813A09847034602E0044B984703461846083712
S2140813B0BD4680BDD1240800ED24080080B582B063
S2140813C000AF0346FB71FB79033B042B08D8FB7977
S2140813D01846054B9847FB791846044B984700E093
S2140813E000BF0837BD4680BD5D110800C112080061
S2140813F080B582B000AF786000BF7868044B984725
S2140814000346002BF9D0002318460837BD4680BD92
S2140814109113080080B500AF0620044B9847024693
S2140814201346DB009B1A5B00184680BD4D12080069
S21408143080B500AF024B984703465B08184680BD48
S2140814401514080090B583B000AF104B98470346B4
S21408145018460F4B984706200E4B98473B1D1846D4
S214081460062101220E230C4CA0473B1D18460021DE
S2140814700A4B984700200A4B98471020094B984774
S21408148000BF094B98470C37BD4690BD311408007D
S2140814901D2B0800BD130800ED12080055130800A0
S2140814A0F11308009D2208009D29080080B483B027
S2140814B000AF0346FB71084B97F907205209F979E4
S2140814C001F01F01012000FA01F143F822100C3741
S2140814D0BD465DF8047B704700E100E080B483B049
S2140814E000AF0346FB71094B97F907205209F979B3
S2140814F001F01F01012000FA01F1203243F8221002
S2140815000C37BD465DF8047B704700BF00E100E07D
S21408151080B483B000AF0346FB71094B97F90720E8
S2140815205209F97901F01F01012000FA01F1603231
S21408153043F822100C37BD465DF8047B704700BFA1
S21408154000E100E080B483B000AF03463960FB7169
S21408155097F90730002B0BDA0D49FB7903F00F03D8
S214081560043B3A68D2B21201D2B20B441A7609E0AA
S214081570084997F907303A68D2B21201D2B20B443A
S21408158083F800230C37BD465DF8047B704700BF20
S21408159000ED00E000E100E090B583B000AF1D4B21
S2140815A07B607D233B603B689AB23B689BB21A48D7
S2140815B079681A4CA0470420194B98470420194B01
S2140815C0984704200021184B98470420174B984743
S2140815D001204FF00061164B984700204FF000613D
S2140815E0134B984734204FF04051114B98473520FD
S2140815F04FF040510E4B98472F204FF000610C4B90
S21408160098472E204FF00061094B984700BF0C37CB
S214081610BD4690BD00700020501A0E407528080080
S214081620DD1408001115080045150800AD1408005B
S2140816307D1F080080B500AF57204FF040512E4B55
S214081640984757202D4B98473B204FF060512A4B20
S214081650984755204FF06051274B984756204FF033
S2140816606051254B984726484FF440714FF000626A
S214081670244B984719204FF000611F4B98471A20B3
S2140816804FF000611C4B98471B204FF000611A4B27
S21408169098471C204FF00061174B984734204FF0AE
S2140816A08051154B984735204FF08051124B98477C
S2140816B037204FF08051104B984720204FF080512C
S2140816C00D4B98471C204FF000610B4B9847152090
S2140816D04FF00061084B984733204FF08051064B77
S2140816E098470A204FF00061034B98470B204FF0AD
S2140816F00061014B984780BD7D1F0800B51E080095
S214081700000E0E40B920080080B58AB000AFF86019
S214081710B9607A607B6846F2A81202FB03F2BB68DF
S21408172013445A1E7B6846F2A81101FB03F3B2FB6A
S214081730F3F3802B01D9002385E0BB685A087B6841
S2140817404FF4FA5101FB03F39A4201D200237AE0E0
S214081750082387F827304FF0FF333B620823FB77D0
S2140817602BE0FB7F7A6802FB03F34FF47A7202FBE6
S21408177003F3BA68B2FBF3F3802B1BD8FB7F7A68B7
S21408178002FB03F34FF47A7202FB03F2BB68B3FB67
S214081790F2F102FB01F29B1ABB61BA693B6A9A42F4
S2140817A008D2BB693B62FB7F87F827303B6A002B71
S2140817B000D105E0FB7F0133FB77FB7F192BD0D9DF
S2140817C097F827307A6802FB03F34FF47A7202FB25
S2140817D003F3BA68B2FBF3F3FB75FB7D012B01D864
S2140817E0002330E097F82730A3F1080213465B0081
S2140817F013445B00164A13443B61F868154B984738
S2140818003B69DB78013B03F007023B699B78013BA9
S2140818101B0103F070031A433B695B78013B1B020C
S21408182003F4E0631A433B691B79013B1B0303F48B
S21408183040531A43FB7D013B1B0403F4FE031A4383
S214081840FB685A61012318462837BD4680BD00BF8D
S214081850386A08000119080080B586B000AFF8603D
S214081860B9607A60F868B9687A68174B98477861FB
S2140818707B69002B01D1002321E0F868134B9847B9
S214081880F868134B984700237B6100233B6106E00A
S214081890F868104B984778613B6901333B617B6970
S2140818A003F40013002B03D13A690B4B9A42EFD985
S2140818B03A690A4B9A4201D1002300E001231846F0
S2140818C01837BD4680BD00BF09170800991C0800D8
S2140818D0E1180800591908009F860100A086010033
S2140818E080B483B000AF78607B681B6843F0010261
S2140818F07B681A600C37BD465DF8047B704700BFEE
S21408190080B483B000AF78607B681B6823F0010260
S2140819107B681A600C37BD465DF8047B704700BFCD
S21408192080B483B000AF786039607B683A685A60E4
S2140819300C37BD465DF8047B704700BF80B483B0A3
S21408194000AF786039607B683A689A600C37BD46A5
S2140819505DF8047B704700BF80B483B000AF786042
S2140819607B681B6918460C37BD465DF8047B7047D4
S21408197080B485B000AF78600B46FB707B685B6A06
S21408198023F0FF03FB60FA78FB681A437B685A6209
S2140819901437BD465DF8047B704700BF80B483B03B
S2140819A000AF78600B46FB70FB787A685B011344DF
S2140819B003F504731B6818460C37BD465DF8047BB0
S2140819C0704700BF80B485B000AF786039603B6868
S2140819D01B68FB73FB7B3A689279120402F4702248
S2140819E042F4000279685B010B4403F506735A60FB
S2140819F01437BD465DF8047B704700BF80B485B0D9
S214081A0000AF786039603B681B68FB733B681B79DE
S214081A10002B2ED1FB7B7A6810335B01134400221F
S214081A201A60FB7B7A6810335B01134400225A6005
S214081A30FB7B7A685B01134403F5027300221A6085
S214081A40FB7B7A685B01134403F5047300225A6033
S214081A50FB7B7A685B01134403F5067300221A6061
S214081A60FB7B7A685B01134403F5067300225A6011
S214081A704EE0FB7BFA7B7968103252010A44126802
S214081A8022F470213A68D27912040A43796810332E
S214081A905B010B441A603B685B79002B15D0FB7B17
S214081AA03A68D26842F00052796810335B010B44FA
S214081AB05A60FB7B3A68126942F0005279685B010B
S214081AC00B4403F502731A6010E0FB7B3A68D26891
S214081AD0796810335B010B445A60FB7B3A681269DD
S214081AE079685B010B4403F502731A60FB7BFA7B8B
S214081AF07968103252010A44126822F0E0613A68A6
S214081B00127912060A43796810335B010B441A608F
S214081B101437BD465DF8047B704700BF80B586B0B5
S214081B2000AF7860396000237B613B681B68FB74F4
S214081B303B689B68FB60FB6803F40003002B06D039
S214081B40FB6803F08073002B01D002237B61FB7CCB
S214081B507A685B01134403F502735B6823F06042FE
S214081B603B685A61FB6803F470231B0CDAB23B68C7
S214081B709A71FB7C7A685B01134403F504735A6810
S214081B803B689A613B689B79042B08D9FB7C7A688A
S214081B905B01134403F506731A683B68DA61FB7C3D
S214081BA07A685B01134403F504731A683B689A6005
S214081BB03B689B68FB60FB6803F08073002B03D0D0
S214081BC07B6943F004037B6178683968034B984760
S214081BD07B6918461837BD4680BD00BFC519080082
S214081BE080B584B000AF786039603B681B68FB73CB
S214081BF0FB7B78681946274B984702463B689A60ED
S214081C003B689B68BB60BB6803F40003002B01D1EC
S214081C1001233BE03B685B79002B0BD0FB7B3A68E3
S214081C20126942F0005279685B010B4403F50273AF
S214081C301A6008E0FB7B3A68126979685B010B4416
S214081C4003F502731A60FB7B3A68926979685B0150
S214081C500B4403F504735A603B689B79042B08D938
S214081C60FB7B3A68D26979685B010B4403F5067317
S214081C701A60FB7B3A689279120402F4702279683B
S214081C805B010B4403F506735A60002318461037A9
S214081C90BD4680BD9D19080080B58CB000AF786041
S214081CA000233B74002387F82F300DE097F82F3079
S214081CB0FB6007F10C0378681946074B984797F8B6
S214081CC02F30013387F82F3097F82F30072BEDD9B0
S214081CD03037BD4680BD00BFFD19080080B485B00A
S214081CE000AFF860B9607A607B68002B03D0FB68A9
S214081CF0BA685A6602E0FB68BA681A661437BD46C0
S214081D005DF8047B704700BF80B487B000AFF8600A
S214081D10B9607A60FB687A685A64BB68B3F1805F1A
S214081D201FD0B3F1805F05D8002B27D0B3F1006F22
S214081D300AD01FE0B3F1405F20D0B3F1605F1DD03A
S214081D40B3F1205F1AD015E0FB681B6F7B61FB6858
S214081D501A6F7B68D9437B690B401A40FB681A6781
S214081D6008E0FB681B6F7B617A687B691A43FB682F
S214081D701A6700BFFB687A685A6000E000BF1C3725
S214081D80BD465DF8047B704780B584B000AFF86048
S214081D90B9607A60F868B968184B98477B6803F0AA
S214081DA00103F868B9681A46154B98477B6803F02C
S214081DB00A03002B03D0FB68BA681A6202E0FB68C5
S214081DC0BA685A627B6803F00203002B04D0FB68EB
S214081DD0BA68C3F8802008E07B6803F00803002B85
S214081DE003D0FB68BA68C3F88020FB68BA685A61F3
S214081DF0FB68BA681A601037BD4680BD691E0800C1
S214081E00DD1C080080B584B000AFF860B9607A6061
S214081E103B60F868B968124B9847F868B968BA69B9
S214081E20104B98473B68002B03D0FB68BA681A65C6
S214081E3002E0FB68BA685A657B68002B03D0FB682B
S214081E40BA681A6302E0FB68BA685A63FB68BA683D
S214081E501A61FB68BA681A601037BD4680BD00BFB5
S214081E60691E0800DD1C080080B483B000AF7860E7
S214081E7039607B683A685A640C37BD465DF8047B5F
S214081E80704700BF80B483B000AF78607B68DB6CB7
S214081E9018460C37BD465DF8047B704780B483B09F
S214081EA000AF78607B689B6C18460C37BD465DF8BB
S214081EB0047B704780B485B000AF78607B685B09A8
S214081EC003F5001303F207735B02FB607B6803F0FD
S214081ED01F03012202FA03F31A46FB681A63143733
S214081EE0BD465DF8047B704780B485B000AF786067
S214081EF07B685B0903F5001303F207735B02FB605C
S214081F007B6803F01F03012202FA03F31A46FB68F4
S214081F105A631437BD465DF8047B704780B485B0B5
S214081F2000AF78607B685B0903F5001303F207735C
S214081F305B02FB60FB689A6B7B6803F01F0301215A
S214081F4001FA03F31340002B09D07B6803F01F0344
S214081F50012202FA03F31A46FB685A6308E07B6814
S214081F6003F01F03012202FA03F31A46FB681A63FA
S214081F701437BD465DF8047B704700BF90B587B040
S214081F8002AF786039607B685B0903F5001303F2DB
S214081F9007735B02FB603B6803F0F043B3F1205F16
S214081FA048D0B3F1205F06D8B3F1006F0AD0B3F17A
S214081FB0805F23D070E0B3F1405F47D0B3F1605F35
S214081FC044D069E07B6803F01F03012202FA03F39A
S214081FD0F8684FF000611A46334B98477B6803F061
S214081FE01F03012202FA03F31A463B6803F00103B3
S214081FF0F86811461A462D4B98474FE07B6803F061
S2140820001F03012202FA03F3F8684FF080511A46BC
S214082010254B98477B6803F01F03012202FA03F357
S2140820201A463B6803F00103F86811461A461F4B28
S214082030984733E07B6803F01F03012202FA03F394
S214082040F86819463A681A4B984727E07B6803F001
S2140820501F03012202FA03F319463B6803F0605394
S214082060B3F1605F14BF00230123DBB21A463B6856
S21408207003F00403002B0CBF00230123DBB23868EF
S21408208000F0010000280CBF00200120C0B200901C
S214082090F868084CA04701E0002300E00123184632
S2140820A01437BD4690BD00BF091D0800DD1C08009A
S2140820B0891D0800051E080090B587B002AFF860B5
S2140820C0B9607A607B6803F0F043B3F1205F2ED0E6
S2140820D0B3F1205F06D8B3F1006F0AD0B3F1805F82
S2140820E016D04AE0B3F1405F27D0B3F1605F24D042
S2140820F043E0F8684FF00061BA68234B98477B685E
S21408210003F00103F868B9681A46204B984736E08A
S214082110F8684FF08051BA681B4B98477B6803F005
S2140821200103F868B9681A46184B984727E0F86814
S214082130B9687A68164B984721E07B6803F06053C5
S214082140B3F1605F14BF00230123DBB21A467B6835
S21408215003F00403002B0CBF00230123DBB27968CD
S21408216001F0010100290CBF00210121C9B200912C
S214082170F868B968074CA04701E0002300E001238F
S21408218018461437BD4690BD091D0800DD1C08001A
S214082190891D0800051E080080B584B000AF786069
S2140821A039607868224B9847F8607868214B9847DA
S2140821B00346FA681340FB60FB68002B35D0002303
S2140821C0BB602FE01C4ABB681B0113441A683B68B7
S2140821D09A4224D1184ABB681B0113445A68FB6804
S2140821E01340002B1BD0144ABB681B01134408334A
S2140821F05B681149BA6812010A4411680E48BA6841
S2140822001201024452680846114698470A4ABB68B3
S2140822101B0113445B68DB43FA681340FB60BB682A
S2140822200133BB60FB68002BCCD11037BD4680BDA0
S214082230851E08009D1E08007404072080B500AFA0
S21408224002480B21024B984780BD00BF000E0E4087
S2140822509921080080B500AF02480C21024B984728
S21408226080BD00BF00100E409921080080B500AF61
S21408227002480D21024B984780BD00BF00120E4051
S2140822809921080080B500AF02480E21024B9847F6
S21408229080BD00BF00140E409921080080B485B0A8
S2140822A000AF78601D4B1D4A126B22F070017A68E9
S2140822B00A431A634FF40063FB6007E0FB68002BD1
S2140822C001D1012323E0FB68013BFB60134B9B6EA7
S2140822D003F00803002BF1D0104B104A126B22F0C3
S2140822E0030242F002021A634FF40063FB6007E041
S2140822F0FB68002B01D1012309E0FB68013BFB606A
S214082300064B9B6E03F00803002BF1D000231846FB
S2140823101437BD465DF8047B704700BF00060E40C4
S21408232080B483B000AF78607B68012B07D10A4A77
S214082330094B9B6843F0254343F480139360064A91
S214082340054B1B6843F0254343F0080313600C371E
S214082350BD465DF8047B7047101A0E4080B400AF87
S214082360094B5B6903F08003002B07D0074B9B6E75
S21408237003F08003002B01D0012300E00023184659
S214082380BD465DF8047B7047101A0E4000060E40E6
S21408239080B485B000AF78600023FB60214B1B6AD1
S2140823A003F00103002B0ED01E4A1E4B1B6A23F4B3
S2140823B05C1323F0780379680B4343F45C1343F00B
S2140823C0080313620BE00123FB60164A154B196AD3
S2140823D0154B0B4079681943144B0B43136200BF27
S2140823E0104B9B6E03F40033002BF9D00D4A0D4BAF
S2140823F01B6A23F09B7323F4803343F45C13136245
S214082400FB68002B09D0074A064B1B6A23F45C13AB
S21408241023F0010343F45C1313621437BD465DF8DA
S214082420047B704700060E4086C0C8FF093F370089
S21408243080B483B000AF78607B68002B08D0124960
S214082440114B1B6A114A1A40114B13430B6216E0D4
S2140824500D490D4B1B6A0F4A1A400F4B13430B626C
S21408246000BF094B9B6E03F00103002BF9D0064A08
S214082470054B1B6A43F09B7343F4803313620C3797
S214082480BD465DF8047B704700060E40FCFFC8FE9C
S21408249002003701FCC0C8FF013F370080B400AF18
S2140824A0044B9B6E03F480331846BD465DF8047BE8
S2140824B0704700BF00060E4080B400AF034B4FF0D5
S2140824C000529A62BD465DF8047B704700060E40CF
S2140824D080B400AF044B9B6E03F002031846BD465B
S2140824E05DF8047B704700BF00060E4080B400AF5E
S2140824F0044B9B6E03F040031846BD465DF8047B0C
S214082500704700BF00060E4080B483B000AF786006
S2140825107B682C2B01D901232FE07B681F2B13D84F
S214082520194B9A697B68012101FA03F31A407B6804
S214082530012101FA03F39A421ED0134B7A6801214F
S21408254001FA02F21A6117E07B68203B7B600E4BAB
S214082550D3F808217B68012101FA03F31A407B6847
S214082560012101FA03F39A4206D0074B7A68012143
S21408257001FA02F2C3F80021002318460C37BD46BC
S2140825805DF8047B704700BF00060E4080B489B033
S21408259000AFF860B9607A60BB681A017B689A4237
S2140825A002D81023FB6101E00823FB617B68DA0090
S2140825B0FB69B96801FB03F35B081A44FB69B96851
S2140825C001FB03F3B2FBF3F3BB61BB69DB087B617A
S2140825D0BB6903F007033B617B69002B03D07B696B
S2140825E0B3F5803F01D301230FE0FB69082B05D123
S2140825F0FB685B6843F40022FB685A603B691A0470
S2140826007B691A43FB681A62002318462437BD46BE
S2140826105DF8047B704700BF80B582B000AF786075
S21408262078680D4B98477B6800225A607B680022C2
S2140826305A627B6800229A627868084B98477868DE
S214082640074B98477868074B98477868064B98472B
S2140826500837BD4680BD00BF552808000927080072
S21408266039270800A1270800BD27080080B584B0D0
S21408267000AFF860B9607A60F8681A4B98471A4B4A
S21408268000221A60BB68002B09D0BB681B68F86874
S21408269019467A68154B98470346002B01D0012344
S2140826A01BE0BB685A68BB689B681A43BB681B6913
S2140826B01A43BB68DB681A430B4B1B681A430A4B62
S2140826C01A60094B1A68084B1A60FB685A68064B6A
S2140826D01B681A43FB685A60002318461037BD4625
S2140826E080BD00BF19260800E40407208D250800D1
S2140826F080B483B000AF78607B6840221A600C37DD
S214082700BD465DF8047B704780B483B000AF786040
S2140827107B6888221A600C37BD465DF8047B7047D4
S21408272080B483B000AF78607B6810221A600C37DC
S214082730BD465DF8047B704780B483B000AF786010
S2140827407B6824221A600C37BD465DF8047B704708
S21408275080B483B000AF786039607B683A689A6066
S2140827600C37BD465DF8047B704700BF80B483B065
S21408277000AF786039607B683A68DA600C37BD4627
S2140827805DF8047B704700BF80B483B000AF786004
S2140827907B685B6918460C37BD465DF8047B704756
S2140827A080B483B000AF78607B684FF480721A609C
S2140827B00C37BD465DF8047B704700BF80B483B015
S2140827C000AF78607B684FF400221A600C37BD466D
S2140827D05DF8047B704700BF80B483B000AF7860B4
S2140827E039607B685B6903F00203002B01D1012383
S2140827F005E03B68C3F308027B68DA6100231846E5
S2140828000C37BD465DF8047B704700BF80B485B0C2
S21408281000AF786039604FF47A73FB6006E0FB68B7
S2140828205A1EFA60002B01D101230CE07B685B6915
S21408283003F00103002BF2D07B689B69C3F3080200
S2140828403B681A60002318461437BD465DF8047BBB
S214082850704700BF80B483B000AF78607B68044AD6
S214082860C3F8E4200C37BD465DF8047B704700BF0C
S2140828700041535580B485B000AFF860B960FA805F
S214082880BB80FB88C3F30B02BB681A43BB881B04D8
S2140828901946054B0B401A43FB685A601437BD4669
S2140828A05DF8047B704700BF0000FF0F80B483B05C
S2140828B000AF78607A68054B9A4202D17B68044A72
S2140828C01A600C37BD465DF8047B7047501A0E40F8
S2140828D0010000A580B483B000AF78607B689B6871
S2140828E018460C37BD465DF8047B704780B400AFC9
S2140828F0FEE700BF80B582B000AF1E4B7B601E4B64
S2140829003B607A683B689A420CD007E03B681A1D21
S2140829103A607A68111D796012681A603A68174B2F
S2140829209A42F3D3164B3B6004E03B681A1D3A60A4
S21408293000221A603A68134B9A42F6D3124B7B6011
S214082940124A7B6823F0604323F07F0393607B681A
S214082950B3F1005F09D37A680D4B9A4205D80B4B42
S2140829600A4A926842F000529A600A4B98470A4B05
S2140829709847FEE7F46A0800000007203804072096
S214082980380407206CBB07200000080000ED00E0B4
S214082990FFFF0F201D660800A55E080080B400AF84
S2140829A0564B1B6B03F00303032B00F28A8001A12E
S2140829B051F823F0C5290800E5290800352A08003B
S2140829C0352A08004E4B5B6903F08003002B04D0C1
S2140829D04C4B4FF400421A6073E04A4B4FF4FA42ED
S2140829E01A606EE0454B1B6A03F08073002B03D019
S2140829F0444B454A1A601CE0424B444A1A603F4B17
S214082A001B6A03F07003102B04D0202B08D0002B71
S214082A100ED00EE03B4B1B685A003A4B1A6008E093
S214082A20384B1A6813465B001A44364B1A6000E0A7
S214082A3000BF46E0314B1B6A03F08073002B03D0BF
S214082A40304B314A1A601CE02E4B304A1A602B4B2A
S214082A501B6A03F07003102B04D0202B08D0002B21
S214082A600ED00EE0274B1B685A00264B1A6008E06B
S214082A70244B1A6813465B001A44224B1A6000E07F
S214082A8000BF1E4B1B6B03F00303022B15D11B4B19
S214082A909A6A1F4B13401B0C01331A4A126802FB32
S214082AA003F2184B1A60174B1A68144B9B6ADBB272
S214082AB0B2FBF3F2134B1A6002E0124B154A1A6087
S214082AC000BF0E4B1B6B03F07003702B08D10D4B29
S214082AD01A68114BA3FB02135A080A4B1A6009E03E
S214082AE0084B1A68054B1B6B03F070031B09DA408A
S214082AF0044B1A60BD465DF8047B704700060E401E
S214082B00101A0E4000000720001BB70000093D0001
S214082B100000FF07001C4E0EABAAAAAA80B483B01A
S214082B2000AF78607A681F4B9A4206D81E4B002280
S214082B301A601E4B00221A602EE07A681C4B9A42D6
S214082B4008D8194B4FF480721A60184B4FF48072ED
S214082B501A6021E07A68174B9A4208D8124B4FF44D
S214082B6000721A60114B4FF400721A6014E07A680B
S214082B70114B9A4208D80C4B4FF440721A600B4B14
S214082B804FF440721A6007E0074B4FF480621A60F1
S214082B90064B4FF480621A600C37BD465DF8047B1E
S214082BA0704700BF9F525701000A0E40000C0E40A7
S214082BB07FCC06023FB728037F2FA60480B483B0D5
S214082BC000AF78607B6803F108027B685A607B6810
S214082BD04FF0FF329A607B6803F108027B68DA6080
S214082BE07B6803F108027B681A617B6800221A601A
S214082BF00C37BD465DF8047B704700BF80B483B0D1
S214082C0000AF78607B6800221A610C37BD465DF815
S214082C10047B704780B485B000AF786039607B6805
S214082C205B68FB603B68FA685A60FB689A683B68B2
S214082C309A60FB689B683A685A60FB683A689A60CC
S214082C403B687A681A617B681B685A1C7B681A603E
S214082C501437BD465DF8047B704700BF80B485B066
S214082C6000AF786039603B681B68BB60BB68B3F12F
S214082C70FF3F03D17B681B69FB600CE07B68083369
S214082C80FB6002E0FB685B68FB60FB685B681A68D1
S214082C90BB689A42F6D9FB685A683B685A603B6834
S214082CA05B683A689A603B68FA689A60FB683A68B4
S214082CB05A603B687A681A617B681B685A1C7B688E
S214082CC01A601437BD465DF8047B704780B485B03B
S214082CD000AF78607B681B69FB607B685B687A6816
S214082CE092689A607B689B687A6852685A60FB6844
S214082CF05A687B689A4203D17B689A68FB685A6070
S214082D007B6800221A61FB681B685A1EFB681A60FB
S214082D10FB681B6818461437BD465DF8047B704789
S214082D2080B485B000AFF860B9607A60FB68043B91
S214082D30FB60FB684FF080721A60FB68043BFB6020
S214082D40BA68FB681A60FB68043BFB60094AFB68C4
S214082D501A60FB68143BFB607A68FB681A60FB68BD
S214082D60203BFB60FB6818461437BD465DF8047BBD
S214082D70704700BF792D080080B500AF054B1B686B
S214082D80B3F1FF3F02D0044B9847FEE7024B984743
S214082D90FEE700BF04000720452F0800074B196808
S214082DA00868B0E8F00F80F30988BFF36F8F4FF01C
S214082DB0000080F311884EF00D0E704708A5072016
S214082DC006480068006880F3088862B661B6BFF3F4
S214082DD04F8FBFF36F8F00DF00BF000008ED00E0E5
S214082DE080B584B000AF284BFB60FB681B78DBB26D
S214082DF0BB60FB68FF221A70FB681B78DBB2FB71AE
S214082E00FB79DBB223F05F03DAB2204B1A70204B53
S214082E1007221A6009E01E4B1B685A1E1C4B1A60D4
S214082E20FB79DBB25B00DBB2FB71FB79DBB2DBB2B2
S214082E305BB2002BEFDB164B1B681A02144B1A60AA
S214082E40134B1B6803F4E062114B1A60BB68DAB2D6
S214082E50FB681A700F4B0F4A126842F470021A6029
S214082E600C4B0C4A126842F070421A600A4B98479C
S214082E700A4B00221A600A4B98470A4B98470023C9
S214082E8018461037BD4680BD00E400E0E804072079
S214082E90EC04072020ED00E0D92F080004000720E6
S214082EA0C12D0800792D080080B400AF054B4FF0FF
S214082EB080521A60BFF34F8FBFF36F8FBD465DF821
S214082EC0047B704704ED00E080B500AF0C4B9847D4
S214082ED00C4B1B685A1C0B4B1A60BFF34F8FBFF383
S214082EE06F8F084B1B68012B08D1074B1B6803F034
S214082EF01F03002B02D0024B9847FEE780BD00BF99
S214082F00452F08000400072004ED00E080B500AF58
S214082F10094B1B68002B02D1084B9847FEE7064B67
S214082F201B685A1E044B1A60034B1B68002B02D101
S214082F300020034B984780BD04000720452F080053
S214082F40592F0800EFF311804FF0A00181F3118884
S214082F5070470023184600BF80F31188704700BFEB
S214082F60EFF30980BFF36F8F0D4B1A6820E9F00F57
S214082F7010602DE908404FF0A00080F3118801F09A
S214082F800FF94FF0000080F31188BDE80840196873
S214082F900868B0E8F00F80F30988BFF36F8F7047B2
S214082FA008A5072080B500AF074B9847074B9847FA
S214082FB00346002B03D0064B4FF080521A600020C1
S214082FC0044B984780BD00BF452F080025400800E1
S214082FD004ED00E0592F080080B400AF074B084AFC
S214082FE01168084AA2FB01029209013A1A60064BC8
S214082FF007221A60BD465DF8047B704714E000E0BF
S21408300000000720D34D621010E000E080B582B0C3
S21408301000AFEFF305837B607B680F2B0CD90D4A56
S2140830207B6813441B78FB700B4B1B78FA789A4224
S21408303002D20A4B9847FEE7094B1B6803F4E06286
S214083040084B1B689A4202D9044B9847FEE7083794
S214083050BD4680BDF0E300E0E8040720452F0800E1
S2140830600CED00E0EC04072080B586B000AF786071
S2140830700023FB604F4B98474F4B1B68002B01D132
S2140830804E4B98474E4B1A687B681340002B7DD1F1
S2140830907B68002B15D008237A6813447B607B680E
S2140830A003F00703002B0CD07B6823F007030833D4
S2140830B07B607B6803F00703002B02D0414B9847E0
S2140830C0FEE77B68002B61D03F4B1B687A689A4204
S2140830D05CD83E4B3B613D4B1B687B6104E07B69DB
S2140830E03B617B691B687B617B695A687B689A428F
S2140830F003D27B691B68002BF1D12F4B1B687A69BA
S2140831009A4243D03B691A6808231344FB607B69DC
S2140831101A683B691A607B695A687B68D21A082362
S2140831205B009A4217D97A697B681344BB60BB6810
S21408313003F00703002B02D0224B9847FEE77B6973
S2140831405A687B68D21ABB685A607B697A685A6084
S214083150B8681F4B98471C4B1A687B695B68D21A7D
S214083160194B1A60184B1A681A4B1B689A4203D2F6
S214083170154B1A68174B1A607B695A68104B1B6800
S2140831801A437B695A607B6900221A60124B98477B
S214083190FB68002B01D1114B9847FB6803F0070327
S2140831A0002B02D0074B9847FEE7FB6818461837EF
S2140831B0BD4680BDB93E0800F8A407208532080041
S2140831C004A50720452F0800FCA40720F0A4072024
S2140831D04933080000A50720D53E0800E95F080027
S2140831E080B584B000AF78607B68FB607B68002B96
S2140831F038D008235B42FA681344FB60FB68BB6060
S214083200BB685A68194B1B681340002B02D1184B31
S2140832109847FEE7BB681B68002B02D0144B9847FC
S214083220FEE7BB685A68114B1B681340002B19D081
S214083230BB681B68002B15D1BB685A680B4B1B680C
S214083240DB431A40BB685A600A4B9847BB685A6803
S214083250094B1B681A44084B1A60B868074B98470E
S214083260074B98471037BD4680BD00BF04A507200A
S214083270452F0800B93E0800FCA40720493308007B
S214083280D53E080080B485B000AF4FF42043BB603D
S214083290274BFB60FB6803F00703002B0CD0FB688A
S2140832A00733FB60FB6823F00703FB60BA68FB681C
S2140832B0D21A1F4B1344BB60FB687B601D4B7A68B1
S2140832C01A601C4B00225A607A68BB681344FB607D
S2140832D00823FA68D31AFB60FB6823F00703FB6031
S2140832E0FA68154B1A60144B1B6800225A60124B7A
S2140832F01B6800221A607B683B603B68FA68D21A33
S2140833003B685A600C4B1A683B681A603B685A68F8
S2140833100A4B1A603B685A68094B1A60094B4FF00B
S21408332000421A601437BD465DF8047B704700BF3C
S214083330F0040720F0A40720F8A4072000A507201B
S214083340FCA4072004A5072080B485B000AF7860E9
S214083350274BFB6002E0FB681B68FB60FB681A688B
S2140833607B689A42F7D3FB68BB60FB685B68BA6801
S2140833701A447B689A4208D1FB685A687B685B687F
S2140833801A44FB685A60FB687B607B68BB607B6896
S2140833905B68BA681A44FB681B689A4218D1FB68CF
S2140833A01A68144B1B689A420DD07B685A68FB68EB
S2140833B01B685B681A447B685A60FB681B681A6857
S2140833C07B681A6008E00B4B1A687B681A6003E093
S2140833D0FB681A687B681A60FA687B689A4202D0AB
S2140833E0FB687A681A601437BD465DF8047B704738
S2140833F0F0A40720F8A4072080B584B000AF786052
S21408340039607B68FB60FB68002B02D1264B984727
S214083410FEE7264B9847FB681A68FB68DB6BF9687B
S214083420096C01FB03F31A44FB685A60FB68002228
S2140834309A63FB681A68FB689A60FB681A68FB68F8
S214083440DB6B013BF968096C01FB03F31A44FB6864
S214083450DA60FB684FF0FF325A64FB684FF0FF32C1
S2140834609A643B68002B0ED1FB681B69002B14D0AE
S214083470FB68103318460E4B98470346012B0CD1B1
S2140834800C4B984709E0FB68103318460A4B9847D8
S214083490FB6824331846084B9847084B984701237F
S2140834A018461037BD4680BD452F0800C92E0800AF
S2140834B0BD430800A92E0800BD2B08000D2F0800E4
S2140834C080B588B000AFF860B9601346FB7100237A
S2140834D0FB61FB68002B26D04C20184B9847B86138
S2140834E0BB69002B1FD0FB68BA6802FB03F30133E5
S2140834F07B617869114B98470246BB691A60BB69BD
S2140835001B68002B0CD0BB69FA68DA63BB69BA681B
S2140835101A64B86901210A4B9847BB69FB6102E047
S214083520B869084B9847FB69002B02D1064B9847A9
S214083530FEE7FB6918462037BD4680BD693008009F
S214083540F9330800E1310800452F080080B58AB035
S21408355000AFF860B9607A603B6000237B62FB6866
S2140835603B623B6A002B02D15B4B9847FEE7BB6881
S214083570002B03D13B6A1B6C002B01D1012300E012
S2140835800023002B02D1544B9847FEE73B68022BDA
S21408359003D13B6ADB6B012B01D1012300E000233A
S2140835A0002B02D14C4B9847FEE74C4B98470346F6
S2140835B0002B02D17B68002B01D1012300E00023F9
S2140835C0002B02D1444B9847FEE7454B98473B6A89
S2140835D09A6B3B6ADB6B9A4202D33B68022B1DD17F
S2140835E0386AB9683A683F4B9847F8613B6A5B6A3D
S2140835F0002B0AD03B6A243318463B4B98470346B1
S214083600012B07D1394B984704E0FB69002B01D002
S214083610364B9847364B9847012359E07B68002B72
S21408362003D1334B9847002352E07B6A002B06D120
S21408363007F1140318462F4B984701237B622C4B3F
S21408364098472D4B9847264B98473B6A5B6CB3F1D7
S214083650FF3F02D13B6A00225A643B6A9B6CB3F177
S214083660FF3F02D13B6A00229A64214B984707F134
S21408367014023B1D10461946204B98470346002B5C
S2140836801ED1386A1E4B98470346002B12D03B6A59
S21408369003F110027B68104619461A4B9847386A99
S2140836A0194B9847194B98470346002B0FD10F4BD9
S2140836B098470CE0386A144B9847144B984784E7A9
S2140836C0386A114B9847114B9847002300E07CE76F
S2140836D018462837BD4680BD452F0800954808007F
S2140836E0C92E0800093A0800BD430800A92E08009C
S2140836F00D2F08007D440800B93E0800B5440800B0
S214083700193C08009D4208003D3B0800D53E0800CD
S21408371080B588B000AFF860B9607A603B60FB6837
S214083720BB61BB69002B02D1334B9847FEE7BB68E9
S214083730002B03D1BB691B6C002B01D1012300E0D1
S2140837400023002B02D12C4B9847FEE73B68022B40
S21408375003D1BB69DB6B012B01D1012300E00023F9
S214083760002B02D1244B9847FEE7244B9847224B60
S21408377098477861BB699A6BBB69DB6B9A4202D340
S2140837803B68022B2DD1B869B9683A681C4B984734
S2140837900346002B05D07B68002B02D07B680122ED
S2140837A01A60BB699B6CB3F1FF3F12D1BB695B6AB9
S2140837B0002B13D0BB6924331846124B9847034690
S2140837C0002B0BD07B68002B08D07B6801221A6080
S2140837D004E0BB699B6C5A1CBB699A640123FB61B5
S2140837E001E00023FB617869074B9847FB69184698
S2140837F02037BD4680BD00BF452F08000D300800A5
S214083800093A0800BD430800592F080080B58AB059
S21408381000AFF860B9607A603B6000237B62FB68A3
S2140838203B623B6A002B02D1674B9847FEE7BB68B2
S214083830002B03D13B6A1B6C002B01D1012300E04F
S2140838400023002B02D1604B9847FEE75F4B984752
S2140838500346002B02D17B68002B01D1012300E030
S2140838600023002B02D1584B9847FEE7584B984741
S2140838703B6A9B6B002B3BD03B6ADB68FB61386A74
S214083880B968544B98473B68002B1CD13B6A9B6B26
S2140838905A1E3B6A9A633B6A1B68002B04D14E4B40
S2140838A0984702463B6A5A603B6A1B69002B1BD046
S2140838B03B6A10331846494B98470346012B13D1E9
S2140838C0474B984710E03B6AFA69DA603B6A5B6ADE
S2140838D0002B09D03B6A24331846404B98470346CA
S2140838E0002B01D03E4B98473E4B9847012366E095
S2140838F07B68002B03D13B4B984700235FE07B6A2D
S214083900002B06D107F114031846374B98470123B6
S2140839107B62344B9847354B98472D4B98473B6A04
S2140839205B6CB3F1FF3F02D13B6A00225A643B6AE4
S2140839309B6CB3F1FF3F02D13B6A00229A64294B85
S214083940984707F114023B1D10461946284B98471E
S2140839500346002B2BD1386A264B98470346002B84
S2140839601FD03B6A1B68002B08D1194B98473B6A47
S2140839705B681846204B98471A4B98473B6A03F1F2
S21408398024027B68104619461C4B9847386A1C4B1D
S21408399098471C4B98470346002B0FD1104B984767
S2140839A00CE0386A164B9847164B98475EE7386A15
S2140839B0134B9847134B9847002300E056E71846E2
S2140839C02837BD4680BD00BF452F0800954808002B
S2140839D0C92E0800ED3A0800A94A0800BD430800A9
S2140839E0A92E08000D2F08007D440800B93E0800DF
S2140839F0B5440800E53B0800D14808009D42080089
S214083A003D3B0800D53E080080B586B000AFF8609C
S214083A10B9607A6000237B61FB681B6C002B0DD1B4
S214083A20FB681B68002B52D1FB685B6818462D4B59
S214083A3098477861FB6800225A6048E07B68002B4C
S214083A401AD1FB689A68FB681B6C1046B9681A4658
S214083A50254B9847FB689A68FB681B6C1A44FB68FA
S214083A609A60FB689A68FB685B689A422FD3FB6883
S214083A701A68FB689A602AE0FB68DA68FB681B6CC1
S214083A801046B9681A46184B9847FB68DA68FB6808
S214083A901B6C5B421A44FB68DA60FB68DA68FB68F2
S214083AA01B689A4207D2FB685A68FB681B6C5B4225
S214083AB01A44FB68DA607B68022B08D1FB689B6BAC
S214083AC0002B04D0FB689B6B5A1EFB689A63FB6846
S214083AD09B6B5A1CFB689A637B6918461837BD4669
S214083AE080BD00BFC5490800D566080080B582B00D
S214083AF000AF786039607B681B6C002B19D07B6838
S214083B00DA687B681B6C1A447B68DA607B68DA685C
S214083B107B685B689A4203D37B681A687B68DA60BE
S214083B207B68DA687B681B6C386811461A46024B55
S214083B3098470837BD4680BDD566080080B582B070
S214083B4000AF7860234B984714E07B685B6A002BCD
S214083B500AD07B68243318461F4B98470346002B29
S214083B6003D01E4B984700E008E07B689B6C5A1E03
S214083B707B689A647B689B6C002BE6DC7B684FF05E
S214083B80FF329A64164B9847124B984714E07B68A6
S214083B901B69002B0FD07B68103318460E4B9847CE
S214083BA00346002B01D00D4B98477B685B6C5A1E6A
S214083BB07B685A6400E003E07B685B6C002BE6DCFD
S214083BC07B684FF0FF325A64054B98470837BD4666
S214083BD080BD00BFC92E0800BD4308006545080023
S214083BE00D2F080080B584B000AF7860084B984762
S214083BF07B689B6B002B02D10123FB6001E000234E
S214083C00FB60044B9847FB6818461037BD4680BDD6
S214083C10C92E08000D2F080080B584B000AF786064
S214083C20094B98477B689A6B7B68DB6B9A4202D194
S214083C300123FB6001E00023FB60044B9847FB6808
S214083C4018461037BD4680BDC92E08000D2F08003F
S214083C5080B584B000AF786039607B68FB60124B33
S214083C609847FB685B6CB3F1FF3F02D1FB68002204
S214083C705A64FB689B6CB3F1FF3F02D1FB680022D5
S214083C809A640A4B9847FB689B6B002B05D1FB6828
S214083C90243318463968064B9847F868054B984702
S214083CA01037BD4680BD00BFC92E08000D2F08007E
S214083CB03D4308003D3B080090B58BB002AFF86066
S214083CC0B9603B601346FB80FB68002B02D14B4B68
S214083CD09847FEE73B6B042B02D9484B9847FEE70C
S214083CE0FB881846B96B464B9847B861BB69002BEA
S214083CF06DD0BB691A6BFB8803F18043013B9B00C0
S214083D0013447B617B6923F007037B617B6903F0BF
S214083D100703002B02D0394B9847FEE7FB88009331
S214083D20B869B9683A6BFB6B364CA0477869F9688E
S214083D303A68354B98470246BB691A607B6B002B7E
S214083D4002D07B6BBA691A60304B9847304B1B68B9
S214083D505A1C2F4B1A602F4B1B68002B09D12D4B72
S214083D60BA691A602A4B1B68012B0FD12A4B984751
S214083D700CE02A4B1B68002B08D1264B1B68DA6A16
S214083D803B6B9A4202D8234BBA691A60244B1B68CD
S214083D905A1C234B1A60BB69DB6A01229A40214BE6
S214083DA01B681A431F4B1A60BB69DA6A13469B00E6
S214083DB013449B001C4A1A44BB6904331046194630
S214083DC01A4B98470123FB61194B984702E04FF0BE
S214083DD0FF33FB61FB69012B0BD1104B1B68002BD3
S214083DE007D00C4B1B68DA6A3B6B9A4201D2114B20
S214083DF09847FB6918462437BD4690BD452F0800EE
S214083E00B9470800A5450800212D0800C92E080056
S214083E10E0A5072008A507203D460800ECA50720D2
S214083E20FCA50720E8A507200CA50720152C0800E8
S214083E300D2F0800A92E080090B587B004AF002300
S214083E400093002301930023029300230393124850
S214083E50124982220023124CA04778607B68012B07
S214083E6002D1104B984778607B68012B0AD10E4B1D
S214083E7098470E4B01221A600D4B00221A600D4B14
S214083E80984705E07B68002B02D1074B9847FEE76A
S214083E900C37BD4690BD00BF7D450800A46A0800E3
S214083EA0B93C0800D14A0800452F0800ECA50720B1
S214083EB0E4A50720E12D080080B400AF044B1B687A
S214083EC05A1C034B1A60BD465DF8047B704700BF5A
S214083ED000A6072080B582B000AF00237B60374B72
S214083EE01B68002B02D1364B9847FEE7354B9847A0
S214083EF0324B1B685A1E314B1A60304B1B68002B1E
S214083F0055D1314B1B68002B51D02EE02F4BDB6868
S214083F10DB683B603B68183318462D4B98473B6870
S214083F20043318462A4B98473B68DB6A01229A40B6
S214083F30284B1B681A43274B1A603B68DA6A1346F5
S214083F409B0013449B00244A1A443B6804331046DB
S214083F501946224B98473B68DA6A214B1B68DB6A8E
S214083F609A4202D31F4B01221A60184B1B68002B7B
S214083F70CCD11D4B1B68002B11D00CE01B4B98476F
S214083F800346002B02D0174B01221A60164B1B68FB
S214083F905A1E154B1A60144B1B68002BEED1114B9A
S214083FA01B68012B03D101237B60114B9847114BEB
S214083FB098477B6818460837BD4680BD00A6072088
S214083FC0452F0800C92E0800E0A50720A0A5072051
S214083FD0CD2C0800E8A507200CA50720152C0800FE
S214083FE008A50720F4A50720F0A507202540080007
S214083FF0A92E08000D2F080080B582B000AF064B2A
S2140840009847064B1B687B60054B98477B681846A5
S2140840100837BD4680BD00BFC92E0800E4A50720A6
S2140840200D2F080080B586B000AF00237B614D4B8E
S2140840301B68002B40F086804B4B1B685A1C4A4B6B
S2140840401A60494B1B683B613B69002B18D1474BEC
S2140840501B681B68002B02D0454B9847FEE7434B6E
S2140840601B68FB60434B1A68404B1A60414BFA6862
S2140840701A60414B1B685A1C3F4B1A603F4B9847C7
S2140840803F4B1B683A699A424DD3384B1B681B68EE
S214084090002B01D1012300E00023002B04D0384B6D
S2140840A04FF0FF321A603EE0304B1B68DB68DB6877
S2140840B0BB60BB685B687B603A697B689A4203D2E0
S2140840C02F4B7A681A602EE0BB68043318462D4BCF
S2140840D09847BB689B6A002B04D0BB681833184601
S2140840E0284B9847BB68DB6A01229A40264B1B6818
S2140840F01A43254B1A60BB68DA6A13469B001344BA
S2140841009B00224A1A44BB68043310461946204BC3
S2140841109847BB68DA6A1F4B1B68DB6A9A4201D36A
S21408412001237B61B1E71B4B1B68DA6A1749134604
S2140841309B0013449B000B441B68012B07D90123E3
S2140841407B6104E0144B1B685A1C134B1A60134B14
S2140841501B68002B01D001237B617B691846183742
S214084160BD4680BD00A60720E4A5072098A5072021
S214084170452F08009CA50720F8A507204D480800ED
S21408418008000720CD2C0800E8A507200CA5072066
S214084190152C080008A50720F0A50720F4A5072079
S2140841A080B584B000AF344B1B68002B03D0334B6C
S2140841B001221A605CE0314B00221A60304B1B6803
S2140841C01A682F4B1B681B6B9A4208D82C4B1A6828
S2140841D02B4B1B683433104619462A4B9847284BF6
S2140841E01B681B6B184628491422284B9847034619
S2140841F0002B08D0224B1A68214B1B683433104614
S2140842001946204B9847224B1B687B607B68B3FA9D
S21408421083F3FB70FB78C3F11F03FB601D49FA6844
S21408422013469B0013449B000B441B68002B02D1CB
S214084230194B9847FEE7FA6813469B0013449B0001
S214084240144A1344BB60BB685B685A68BB685A600C
S214084250BB685A68BB6808339A4204D1BB685B6877
S2140842605A68BB685A60BB685B68DA68044B1A60B1
S2140842701037BD4680BD00BF00A60720F4A507205E
S21408428008A50720F95F0800AC6A08006D660800F4
S214084290E8A507200CA50720452F080080B584B0A0
S2140842A000AF786039607B68002B02D11A4B9847BC
S2140842B0FEE71A4B1B68183378681946184B984758
S2140842C0164B1B6804331846164B98470346002BB4
S2140842D00BD1124B1B68DB6A012202FA03F3DA439E
S2140842E0114B1B681A40104B1A603B68B3F1FF3F2E
S2140842F007D10A4B1B6804330C4819460C4B9847E1
S21408430007E00C4B1A683B681344FB60F8680A4BD6
S21408431098471037BD4680BD452F080008A50720DA
S2140843205D2C0800CD2C0800E8A50720CCA50720A2
S214084330152C0800E4A507204947080080B584B076
S21408434000AF786039607B68002B02D1144B984721
S214084350FEE7144B1B68183378681946124B9847C3
S214084360104B1B6804331846104B98470346002B1F
S2140843700BD10C4B1B68DB6A012202FA03F3DA4303
S2140843800B4B1B681A400A4B1A600A4B1A683B68A4
S2140843901344FB60F868084B98471037BD4680BD45
S2140843A0452F080008A50720152C0800CD2C080066
S2140843B0E8A50720E4A507204947080080B584B08B
S2140843C000AF78607B68DB68DB68BB60BB68002B87
S2140843D002D1214B9847FEE7BB68183318461F4B97
S2140843E098471F4B1B68002B1CD1BB680433184624
S2140843F01A4B9847BB68DB6A01229A40194B1B6820
S2140844001A43184B1A60BB68DA6A13469B001344B3
S2140844109B00154A1A44BB68043310461946134BCA
S214084420984705E0BB681833114819460F4B98475C
S214084430BB68DA6A0F4B1B68DB6A9A4205D9012308
S214084440FB600D4B01221A6001E00023FB60FB684D
S21408445018461037BD4680BD452F0800CD2C0800ED
S21408446000A60720E8A507200CA50720152C08009D
S214084470A0A5072008A50720F4A5072080B582B0C8
S21408448000AF78607B68002B02D1074B9847FEE7A1
S214084490064B1A687B681A60054B1A687B685A6070
S2140844A00837BD4680BD00BF452F0800F8A5072081
S2140844B0E4A5072080B584B000AF786039607B68D3
S2140844C0002B02D1214B9847FEE73B68002B02D110
S2140844D01E4B9847FEE71E4B98471E4B1B68BB6053
S2140844E03B681B68B3F1FF3F02D10023FB6026E060
S2140844F07B681A68184B1B689A4207D07B685A680C
S214084500BB689A4202D80123FB6018E07B685B68A8
S214084510BA68D21A3B681B689A420ED23B681A6879
S2140845207B685968BB68CB1A1A443B681A60786877
S2140845300A4B98470023FB6001E00123FB60084B09
S2140845409847FB6818461037BD4680BD452F0800BB
S214084550C92E0800E4A50720F8A507207D44080012
S2140845600D2F080080B400AF034B01221A60BD4629
S2140845705DF8047B704700BFF4A5072080B582B0BD
S21408458000AF7860044B9847044B1B68012B01D991
S214084590034B9847F6E700BFBD4608000CA5072062
S2140845A0A92E080080B586B000AFF860B9607A60BA
S2140845B03B6000237B6112E0BA687B6913441A7873
S2140845C0F9687B690B4430331A71BA687B691344FF
S2140845D01B78002B00D105E07B6901337B617B6982
S2140845E0092BE9D9FB68002283F83D207B68042B59
S2140845F001D904237B60FB687A68DA62FB687A680C
S2140846001A64FB6800225A64FB68043318460A4B8F
S2140846109847FB6818331846074B9847FB68FA68AC
S2140846201A617B68C3F10502FB689A61FB68FA6841
S2140846305A621837BD4680BDFD2B080080B582B08B
S21408464000AF00237B600CE07A6813469B00134497
S2140846509B00114A13441846104B98477B68013351
S2140846607B607B68042BEFD90D480C4B98470D48A8
S2140846700A4B98470C48094B98470C48074B9847ED
S2140846800B48064B98470B4B054A1A600A4B054AD7
S2140846901A600837BD4680BD0CA50720BD2B08004C
S2140846A070A5072084A50720A0A50720B4A5072085
S2140846B0CCA5072098A507209CA5072080B582B022
S2140846C000AF28E0174B9847174B1B68002B14BF02
S2140846D000230123DBB27B60144B98477B68002BD2
S2140846E019D1134B9847104BDB68DB683B603B6877
S2140846F0043318460F4B98470F4B1B685A1E0E4B31
S2140847001A600E4B1B685A1E0C4B1A600C4B9847C7
S21408471038680C4B9847094B1B68002BD2D10837D2
S214084720BD4680BDB93E0800B4A50720D53E0800A2
S214084730C92E0800CD2C0800E0A50720C8A507202C
S2140847400D2F08002948080080B582B000AF7860B1
S214084750134B1B687A685A60124B1B687A689A4231
S21408476009D2114B1A680E4B1B68043310461946BB
S2140847700E4B984710E00E4B1A68094B1B6804331B
S21408478010461946094B98470A4B1B687A689A429E
S21408479002D2084B7A681A600837BD4680BD00BF4B
S2140847A008A50720E4A507209CA507205D2C08007F
S2140847B098A507200800072080B584B000AF0346F8
S2140847C03960FB804820154B9847F860FB68002B3B
S2140847D01FD03B68002B06D1FB889B0018460F4B62
S2140847E09847034600E03B68FA681363FB681B6B50
S2140847F0002B05D1F8680A4B98470023FB6008E0B1
S214084800FB681A6BFB889B001046A5211A46054BC9
S2140848109847FB6818461037BD4680BD69300800C3
S214084820E1310800C167080080B582B000AF786043
S2140848307B681B6B1846044B98477868024B98476A
S2140848400837BD4680BD00BFE131080080B483B09C
S21408485000AF0E4B1B681B68002B01D1012300E03C
S2140848600023002B04D00A4B4FF0FF321A6008E0F2
S214084870064B1B68DB68DB687B607B685A68044B02
S2140848801A600C37BD465DF8047B704798A507206C
S2140848900800072080B483B000AF0B4B1B68002BC2
S2140848A002D101237B6008E0084B1B68002B02D16D
S2140848B002237B6001E000237B607B6818460C3788
S2140848C0BD465DF8047B7047ECA5072000A60720C8
S2140848D080B584B000AF78607B68FB607B68002B8F
S2140848E062D0FB68DA6A324B1B68DB6A9A425BD294
S2140848F0FB689B69002B06DB2D4B1B68DB6AC3F144
S2140849000502FB689A61FB685969FB68DA6A134610
S2140849109B0013449B00274A1344994201D1012364
S21408492000E00023002B3AD0FB6804331846224BDD
S21408493098470346002B15D1FB68DA6A1D491346CB
S2140849409B0013449B000B441B68002B0AD1FB6892
S214084950DB6A012202FA03F3DA43184B1B681A4093
S214084960164B1A60124B1B68DA6AFB68DA62FB6839
S214084970DB6A01229A40114B1B681A430F4B1A60D8
S214084980FB68DA6A13469B0013449B00094A1A44DC
S214084990FB68043310461946094B984704E0044B55
S2140849A01B68DA6AFB68DA621037BD4680BD00BF4E
S2140849B008A507200CA50720CD2C0800E8A5072089
S2140849C0152C080080B584B000AF78607B68BB60A3
S2140849D00023FB607B68002B56D0BB685B6C002B03
S2140849E002D12C4B9847FEE7BB685B6C5A1EBB6827
S2140849F05A64BB68DA6ABB681B6C9A4244D0BB68C8
S214084A005B6C002B40D1BB6804331846224B984792
S214084A100346002B15D1BB68DA6A204913469B006B
S214084A2013449B000B441B68002B0AD1BB68DB6A47
S214084A30012202FA03F3DA43194B1B681A40184B93
S214084A401A60BB681A6CBB68DA62BB68DB6AC3F1BB
S214084A500502BB689A61BB68DB6A01229A40104B64
S214084A601B681A430E4B1A60BB68DA6A13469B002B
S214084A7013449B00094A1A44BB6804331046194677
S214084A80084B98470123FB60FB6818461037BD465D
S214084A9080BD00BF452F0800CD2C08000CA50720B8
S214084AA0E8A50720152C080080B400AF074B1B6844
S214084AB0002B04D0054B1B685A6C01325A64034B12
S214084AC01B681846BD465DF8047B704708A5072096
S214084AD090B587B004AF00237B60104B9847104B07
S214084AE01B68002B0FD0022300930023019300239A
S214084AF00293002303930B480B494FF4827200235A
S214084B000A4CA04778607B68002B02D1084B984770
S214084B10FEE77B6818460C37BD4690BD0550080072
S214084B2034A607204D4C0800C06A0800B93C0800A7
S214084B30452F080090B589B000AFF860B9607A6074
S214084B403B600023FB611D4B1B68002B30D0BB6805
S214084B503B617B687B61FB68BB61BB68052B1CDC23
S214084B60174B98470346022B0BD1144B1A6807F1CC
S214084B701003104619463A6B0023124CA047F861FA
S214084B8016E00E4B1A6807F1100310461946002265
S214084B9000230C4CA047F8610AE0084B1A6807F196
S214084BA01003104619463A680023074CA047F861D8
S214084BB0FB6918462437BD4690BD00BF34A60720BB
S214084BC0954808004D3508001137080090B587B09D
S214084BD002AF78603960184B1B68DB68DB68FB60DF
S214084BE0FB6804331846154B9847FB68DB69012BAE
S214084BF01BD1FB689A697B681344F86819463A68BB
S214084C007B680F4CA0470346012B0ED10023009368
S214084C10F86800217A6800230A4CA047B860BB6889
S214084C20002B02D1084B9847FEE7FB685B6AF868DA
S214084C3098471437BD4690BD2CA60720CD2C0800F3
S214084C40914D0800354B0800452F080080B584B004
S214084C5000AF786007F108031846054B9847F860D8
S214084C60BB68F8681946034B9847034B9847F1E723
S214084C70014D08007D4C0800194E080080B584B028
S214084C8000AF78603960174B984707F10803184655
S214084C90154B9847F860BB68002B1ED13B68002B65
S214084CA00AD17A68FB689A4206D8104B9847786803
S214084CB0F9680F4B984712E00E4B1A687968FB683C
S214084CC0CB1A104619460C4B9847084B984703468C
S214084CD0002B04D1094B984701E0044B984710373E
S214084CE0BD4680BDB93E0800494D0800D53E0800BF
S214084CF0CD4B080034A60720513C0800A92E080012
S214084D0080B485B000AF78600E4B1B681B68002B1C
S214084D1014BF00230123DBB21A467B681A607B683F
S214084D201B68002B05D1074B1B68DB681B68FB60FC
S214084D3001E00023FB60FB6818461437BD465DF8A3
S214084D40047B70472CA6072080B584B000AF786037
S214084D500C4B9847F8600C4B1B68FA689A4205D2C9
S214084D600A4B98477B6801221A6002E07B6800229B
S214084D701A60054BFA681A60FB6818461037BD4675
S214084D8080BD00BFF93F080038A60720454F080039
S214084D9080B586B000AFF860B9607A603B600023E3
S214084DA07B61FB68BA685A60FB68FA681A61BA6879
S214084DB07B689A4212D87A683B68D21AFB689B6965
S214084DC09A4202D301237B611BE0104B1A68FB68EA
S214084DD00433104619460E4B984712E07A683B682B
S214084DE09A4206D2BA683B689A4202D301237B618C
S214084DF007E0084B1A68FB68043310461946044B4C
S214084E0098477B6918461837BD4680BD30A60720E8
S214084E105D2C08002CA6072090B58BB002AF70E07A
S214084E20BB68002B6DDB3B69FB61FB695B69002B8C
S214084E3004D0FB69043318463A4B98473B1D18467E
S214084E40394B9847B861BB68092B59D801A252F864
S214084E5023F000BF7D4E08007D4E08007D4E0800FA
S214084E60014F0800CF4E0800F94E08007D4E080096
S214084E707D4E0800014F0800CF4E0800FA68FB690F
S214084E809B691A44FB68F8691146BA69274CA0471B
S214084E900346012B1AD1FB695B6AF8699847FB69D8
S214084EA0DB69012B12D1FA68FB699B69134400225F
S214084EB00092F86900211A4600231D4CA047786125
S214084EC07B69002B02D11B4B9847FEE719E0FA686E
S214084ED0FB699A61FB699B69002B02D1154B9847C1
S214084EE0FEE7FB699A69BB691344F8691946BA690B
S214084EF0BB690E4CA04704E0F8690F4B984700E0E2
S214084F0000BF0E4B1A6807F1080310461946002220
S214084F1000230B4CA0470346002B81D12437BD46FF
S214084F2090BD00BFCD2C0800494D0800914D0800E3
S214084F30354B0800452F0800E131080034A6072045
S214084F400D38080090B589B002AF3DE0274B1B68C6
S214084F50DB681B687B61254B1B68DB68DB683B618D
S214084F603B6904331846224B98473B695B6A3869A5
S214084F7098473B69DB69012B26D13B699A697B69AF
S214084F801344FB60FA687B699A420ED93B69FA6853
S214084F905A603B693A691A61144B1A683B690433CC
S214084FA010461946134B98470EE0002300933869BD
S214084FB000217A690023104CA047B860BB68002B14
S214084FC002D10E4B9847FEE7084B1B681B68002B60
S214084FD0BCD1064B1B687B60094B1A68034B1A60EA
S214084FE0074B7A681A601C37BD4690BD2CA607206A
S214084FF0CD2C08005D2C0800354B0800452F08000E
S21408500030A6072080B500AF114B9847114B1B6898
S214085010002B1AD11048114B984711480F4B984748
S214085020104B0D4A1A60104B0D4A1A6005200C21C9
S21408503000220E4B98470246064B1A60054B1B6823
S214085040002B02D10A4B9847FEE70A4B984780BDCB
S214085050C92E080034A6072004A60720BD2B080082
S21408506018A607202CA6072030A60720C13408005B
S214085070452F08000D2F080080B483B000AF034604
S214085080FB71084B97F907205209F97901F01F01BF
S214085090012000FA01F143F822100C37BD465DF8EE
S2140850A0047B704700E100E080B483B000AF78600E
S2140850B07B68072B25D801A252F823F0DD5008009C
S2140850C0E3500800E9500800EF500800F3500800C5
S2140850D0F7500800FB500800FF5008004FF4FA434A
S2140850E010E04FF400430DE04FF400430AE0084B8D
S2140850F008E0084B06E0084B04E0074B02E0064BC6
S21408510000E0002318460C37BD465DF8047B704760
S21408511000093D0000127A00001BB70080B500AFFA
S2140851200620044B984702461346DB009B1A5B0092
S214085130184680BDA950080080B500AF024B9847B6
S21408514003465B08184680BD1D51080080B582B02E
S21408515000AF2B482B492C4B98472C482C4B98478C
S21408516038603B68DBB2002B46D00023FB7140E07A
S214085170FB7926481946274B984738603B6803F45E
S2140851800003002B32D0FA791D4B1A601C4B3A6884
S2140851909A601E481A49204B9847194BDA691F4BE4
S2140851A09A4207D1164B9A691D4B9A4202D11D4B5B
S2140851B000221A60FB79124819461B4B984710487C
S2140851C012491A4B9847FB79072B03D10C480F490D
S2140851D0174B9847FB79002B03D109480B49154B09
S2140851E0984707480749144B984705E0FB79013369
S2140851F0FB71FB79072BBBD90837BD4680BD00BFBE
S21408520058A6072094A60720A158080000800B403F
S214085210591908009D1908001D1B08006745230139
S214085220EFCDAB8900A707200D550800915208005E
S214085230F1520800455408001159080080B582B09C
S21408524000AF1048104B984738603B68DBB2002B1D
S21408525014D00023FB710EE0FB790A4819460B4B65
S214085260984738603B6803F40003002B00D005E03D
S214085270FB790133FB71FB79072BEDD90837BD465F
S21408528080BD00BF00400B40591908009D19080052
S21408529080B586B000AF786039607B689B697B61B3
S2140852A07B68DB693B613B6903F47F031B0CFB737C
S2140852B03B6903F47F431B0ABB73FB7B022B05D1B8
S2140852C0BB7B042B02D15720084B9847FB7B012B4E
S2140852D002D15520054B9847FB7B002B02D1562060
S2140852E0024B984700BF1837BD4680BD1D1F0800F3
S2140852F090B587B000AF786039607B689B693B6182
S2140853007B68DB69FB60FB681B0FFB75FB6803F0BB
S21408531070631B0EBB75FB6803F47F031B0C7B7561
S214085320FB6803F47F431B0A3B757B7D022B00D08A
S2140853306FE03B7D063B0D2B69D801A252F823F09F
S214085340795308000F540800A15308000F540800AA
S2140853500F5408000F5408000F5408000F54080094
S214085360C95308000F54080007540800F9530800EA
S2140853700F540800FD530800BB7D042B00D00EE038
S214085380254B1B78002B09D0244B01221A70FA688B
S214085390234B5A603A69224B1A60FFE700BF37E092
S2140853A0BB7D042B00D00EE01E4B1B78002B09D0CB
S2140853B01D4B01221A70FA681C4B5A603A691B4B3F
S2140853C01A60FFE700BF23E0194B196807F11002BF
S2140853D007F10803084611461A460023154CA0474D
S2140853E0134B196807F10C0207F108030846114623
S2140853F01A4600230F4CA0470F4B98473B69DAB272
S2140854000E4B1A7004E00E4B01221A7000E000BF23
S21408541000BF1C37BD4690BD0DA7072054A6072021
S21408542088A60720C0A607207CA60720CCA60720AB
S21408543008A7072011370800755D080004A707208D
S2140854407AA6072080B487B000AF786039607B689A
S214085450DB697B617B689B693B617B6903F47F033F
S2140854601B0CFB737B6903F47F431B0ABB737B69C6
S21408547003F070631B0E7B73FB7B002B00D02FE0C2
S214085480BB7B012B02D1194B01221A70BB7B022B66
S21408549002D1174B01221A707B7B082B04D0092BEC
S2140854A014D0072B09D01BE0124B01221A70124B9E
S2140854B07A695A60104B3A691A60104B01221A70C2
S2140854C00F4B7A695A600E4B3A691A600D4B0122E7
S2140854D01A700D4B7A695A600B4B3A691A6000BF0E
S2140854E01C37BD465DF8047B704700BF78A60720CA
S2140854F07BA6072014A70720F4A6072079A607206E
S214085500B8A607201CA70720C4A6072090B587B012
S21408551000AF78600B46FB707B689B697B617B6895
S214085520DB693B61FB78072B73D801A252F823F09E
S214085530515508001356080013560800135608005D
S2140855401356080081550800B1550800E1550800B3
S214085550324B196807F1140207F10C030846114686
S2140855601A4600232E4CA0472C4B196807F1100248
S21408557007F10C03084611461A460023284CA04794
S214085580284B196807F1140207F10C030846114660
S2140855901A460023224CA047224B196807F110022E
S2140855A007F10C03084611461A4600231C4CA04770
S2140855B01D4B196807F1140207F10C03084611463B
S2140855C01A460023164CA047174B196807F1100215
S2140855D007F10C03084611461A460023104CA0474C
S2140855E0124B196807F1140207F10C030846114616
S2140855F01A4600230A4CA0470C4B196807F11002FC
S21408560007F10C03084611461A460023044CA04727
S21408561000BF00BF1C37BD4690BD00BF90A6072040
S214085620113708002CA7072048A6072010A7072030
S21408563080B483B000AF78607B6800221A607B680D
S21408564000221A717B6800225A717B6800229A71C0
S2140856507B680022DA717B6800229A607B680022E9
S214085660DA607B6800221A617B6800225A617B68D0
S21408567000229A617B680022DA6100BF0C37BD46BB
S2140856805DF8047B704700BF80B586B000AFF86051
S214085690B9607A603B6042F2D0037B6119481A4BC6
S2140856A09847184B07221A60164B03221A713B6854
S2140856B0DAB2144BDA71134B00225A71114B0022DE
S2140856C0DA6012480F49124B98477B689A04114BC8
S2140856D013400C4A13610B4BFA689A61094BBA6877
S2140856E0DA61084B08229A71084806490A4B984717
S2140856F006488021094B9847002318461837BD46A8
S21408570080BD00BFD4A607203156080000400B40D5
S214085710FD1908000000FC1FE11B080071190800AD
S21408572090B587B000AF7860F970BA707B7042F2B7
S214085730D003FB607B78002B01D114237B617B7838
S214085740012B01D11A237B617B78022B01D1202300
S2140857507B61B9787A7897F828300846114602228D
S214085760164CA0473861FB78002B03D0FB783A69C3
S21408577013403B61124B1B68184600210122002388
S214085780104CA0470346012B11D197F82C307868A7
S21408579039697A690C4CA047B860094B1B681846EB
S2140857A0002100220023094CA047BB6801E04FF007
S2140857B0FF3318461C37BD4690BD00BF255D080060
S2140857C018A707200D380800895608004D35080028
S2140857D090B585B000AFF860B9607A607A6840F234
S2140857E0D2439A421DD1124B1B681846B96801224B
S2140857F00023104CA0470346012B0FD10C4B1B6807
S2140858001846F968012200230A4CA0470346012BD4
S21408581001D1012307E04FF0FF3304E04FF0FF33D8
S21408582001E04FF0FF3318461437BD4690BD00BF61
S21408583090A607200D38080090B585B000AFF86030
S214085840B9607A607A6840F2D2439A421DD1124B08
S2140858501B681846B96801220023104CA047034667
S214085860012B0FD10C4B1B681846F9680122002340
S2140858700A4CA0470346012B01D1012307E04FF04D
S214085880FF3304E04FF0FF3301E04FF0FF331846D4
S2140858901437BD4690BD00BF2CA707200D3808005A
S2140858A080B483B000AF786039607B681A683B685C
S2140858B01A607B681A793B681A717B685A793B6864
S2140858C05A717B689A793B689A717B68DA793B6883
